{"abi":[{"inputs":[{"internalType":"string","name":"votingName","type":"string"}],"stateMutability":"nonpayable","type":"constructor"},{"inputs":[{"internalType":"string","name":"candidateName","type":"string"}],"name":"addCandidate","outputs":[],"stateMutability":"nonpayable","type":"function"},{"inputs":[],"name":"candidatesCounter","outputs":[{"internalType":"uint256","name":"","type":"uint256"}],"stateMutability":"view","type":"function"},{"inputs":[],"name":"getCandidates","outputs":[{"components":[{"internalType":"uint256","name":"id","type":"uint256"},{"internalType":"string","name":"name","type":"string"},{"internalType":"uint256","name":"votes","type":"uint256"}],"internalType":"struct Voting.Candidate[]","name":"","type":"tuple[]"}],"stateMutability":"view","type":"function"},{"inputs":[],"name":"name","outputs":[{"internalType":"string","name":"","type":"string"}],"stateMutability":"view","type":"function"},{"inputs":[{"internalType":"uint256","name":"id","type":"uint256"}],"name":"vote","outputs":[],"stateMutability":"nonpayable","type":"function"},{"inputs":[{"internalType":"address","name":"","type":"address"}],"name":"voters","outputs":[{"internalType":"bool","name":"voted","type":"bool"}],"stateMutability":"view","type":"function"},{"inputs":[],"name":"winner","outputs":[{"components":[{"internalType":"uint256","name":"id","type":"uint256"},{"internalType":"string","name":"name","type":"string"},{"internalType":"uint256","name":"votes","type":"uint256"}],"internalType":"struct Voting.Candidate","name":"","type":"tuple"}],"stateMutability":"view","type":"function"}],"devdoc":{"kind":"dev","methods":{},"version":1},"evm":{"assembly":"    /* \"Voting.sol\":62:1727  contract Voting {... */\n  mstore(0x40, 0x80)\n    /* \"Voting.sol\":380:512  constructor (string memory votingName) {... */\n  callvalue\n  dup1\n  iszero\n  tag_1\n  jumpi\n  0x00\n  dup1\n  revert\ntag_1:\n  pop\n  mload(0x40)\n  sub(codesize, bytecodeSize)\n  dup1\n  bytecodeSize\n  dup4\n  codecopy\n  dup2\n  dup2\n  add\n  0x40\n  mstore\n  dup2\n  add\n  swap1\n  tag_2\n  swap2\n  swap1\n  tag_3\n  jump\t// in\ntag_2:\n    /* \"Voting.sol\":436:446  votingName */\n  dup1\n    /* \"Voting.sol\":429:433  name */\n  0x02\n    /* \"Voting.sol\":429:446  name = votingName */\n  swap1\n  dup2\n  tag_6\n  swap2\n  swap1\n  tag_7\n  jump\t// in\ntag_6:\n  pop\n    /* \"Voting.sol\":476:477  0 */\n  0x00\n    /* \"Voting.sol\":456:473  candidatesCounter */\n  0x01\n    /* \"Voting.sol\":456:477  candidatesCounter = 0 */\n  dup2\n  swap1\n  sstore\n  pop\n    /* \"Voting.sol\":495:505  msg.sender */\n  caller\n    /* \"Voting.sol\":487:492  owner */\n  0x00\n  dup1\n    /* \"Voting.sol\":487:505  owner = msg.sender */\n  0x0100\n  exp\n  dup2\n  sload\n  dup2\n  0xffffffffffffffffffffffffffffffffffffffff\n  mul\n  not\n  and\n  swap1\n  dup4\n  0xffffffffffffffffffffffffffffffffffffffff\n  and\n  mul\n  or\n  swap1\n  sstore\n  pop\n    /* \"Voting.sol\":380:512  constructor (string memory votingName) {... */\n  pop\n    /* \"Voting.sol\":62:1727  contract Voting {... */\n  jump(tag_8)\n    /* \"#utility.yul\":7:82   */\ntag_9:\n    /* \"#utility.yul\":40:46   */\n  0x00\n    /* \"#utility.yul\":73:75   */\n  0x40\n    /* \"#utility.yul\":67:76   */\n  mload\n    /* \"#utility.yul\":57:76   */\n  swap1\n  pop\n    /* \"#utility.yul\":7:82   */\n  swap1\n  jump\t// out\n    /* \"#utility.yul\":88:205   */\ntag_10:\n    /* \"#utility.yul\":197:198   */\n  0x00\n    /* \"#utility.yul\":194:195   */\n  dup1\n    /* \"#utility.yul\":187:199   */\n  revert\n    /* \"#utility.yul\":211:328   */\ntag_11:\n    /* \"#utility.yul\":320:321   */\n  0x00\n    /* \"#utility.yul\":317:318   */\n  dup1\n    /* \"#utility.yul\":310:322   */\n  revert\n    /* \"#utility.yul\":334:451   */\ntag_12:\n    /* \"#utility.yul\":443:444   */\n  0x00\n    /* \"#utility.yul\":440:441   */\n  dup1\n    /* \"#utility.yul\":433:445   */\n  revert\n    /* \"#utility.yul\":457:574   */\ntag_13:\n    /* \"#utility.yul\":566:567   */\n  0x00\n    /* \"#utility.yul\":563:564   */\n  dup1\n    /* \"#utility.yul\":556:568   */\n  revert\n    /* \"#utility.yul\":580:682   */\ntag_14:\n    /* \"#utility.yul\":621:627   */\n  0x00\n    /* \"#utility.yul\":672:674   */\n  0x1f\n    /* \"#utility.yul\":668:675   */\n  not\n    /* \"#utility.yul\":663:665   */\n  0x1f\n    /* \"#utility.yul\":656:661   */\n  dup4\n    /* \"#utility.yul\":652:666   */\n  add\n    /* \"#utility.yul\":648:676   */\n  and\n    /* \"#utility.yul\":638:676   */\n  swap1\n  pop\n    /* \"#utility.yul\":580:682   */\n  swap2\n  swap1\n  pop\n  jump\t// out\n    /* \"#utility.yul\":688:868   */\ntag_15:\n    /* \"#utility.yul\":736:813   */\n  0x4e487b7100000000000000000000000000000000000000000000000000000000\n    /* \"#utility.yul\":733:734   */\n  0x00\n    /* \"#utility.yul\":726:814   */\n  mstore\n    /* \"#utility.yul\":833:837   */\n  0x41\n    /* \"#utility.yul\":830:831   */\n  0x04\n    /* \"#utility.yul\":823:838   */\n  mstore\n    /* \"#utility.yul\":857:861   */\n  0x24\n    /* \"#utility.yul\":854:855   */\n  0x00\n    /* \"#utility.yul\":847:862   */\n  revert\n    /* \"#utility.yul\":874:1155   */\ntag_16:\n    /* \"#utility.yul\":957:984   */\n  tag_50\n    /* \"#utility.yul\":979:983   */\n  dup3\n    /* \"#utility.yul\":957:984   */\n  tag_14\n  jump\t// in\ntag_50:\n    /* \"#utility.yul\":949:955   */\n  dup2\n    /* \"#utility.yul\":945:985   */\n  add\n    /* \"#utility.yul\":1087:1093   */\n  dup2\n    /* \"#utility.yul\":1075:1085   */\n  dup2\n    /* \"#utility.yul\":1072:1094   */\n  lt\n    /* \"#utility.yul\":1051:1069   */\n  0xffffffffffffffff\n    /* \"#utility.yul\":1039:1049   */\n  dup3\n    /* \"#utility.yul\":1036:1070   */\n  gt\n    /* \"#utility.yul\":1033:1095   */\n  or\n    /* \"#utility.yul\":1030:1118   */\n  iszero\n  tag_51\n  jumpi\n    /* \"#utility.yul\":1098:1116   */\n  tag_52\n  tag_15\n  jump\t// in\ntag_52:\n    /* \"#utility.yul\":1030:1118   */\ntag_51:\n    /* \"#utility.yul\":1138:1148   */\n  dup1\n    /* \"#utility.yul\":1134:1136   */\n  0x40\n    /* \"#utility.yul\":1127:1149   */\n  mstore\n    /* \"#utility.yul\":917:1155   */\n  pop\n    /* \"#utility.yul\":874:1155   */\n  pop\n  pop\n  jump\t// out\n    /* \"#utility.yul\":1161:1290   */\ntag_17:\n    /* \"#utility.yul\":1195:1201   */\n  0x00\n    /* \"#utility.yul\":1222:1242   */\n  tag_54\n  tag_9\n  jump\t// in\ntag_54:\n    /* \"#utility.yul\":1212:1242   */\n  swap1\n  pop\n    /* \"#utility.yul\":1251:1284   */\n  tag_55\n    /* \"#utility.yul\":1279:1283   */\n  dup3\n    /* \"#utility.yul\":1271:1277   */\n  dup3\n    /* \"#utility.yul\":1251:1284   */\n  tag_16\n  jump\t// in\ntag_55:\n    /* \"#utility.yul\":1161:1290   */\n  swap2\n  swap1\n  pop\n  jump\t// out\n    /* \"#utility.yul\":1296:1604   */\ntag_18:\n    /* \"#utility.yul\":1358:1362   */\n  0x00\n    /* \"#utility.yul\":1448:1466   */\n  0xffffffffffffffff\n    /* \"#utility.yul\":1440:1446   */\n  dup3\n    /* \"#utility.yul\":1437:1467   */\n  gt\n    /* \"#utility.yul\":1434:1490   */\n  iszero\n  tag_57\n  jumpi\n    /* \"#utility.yul\":1470:1488   */\n  tag_58\n  tag_15\n  jump\t// in\ntag_58:\n    /* \"#utility.yul\":1434:1490   */\ntag_57:\n    /* \"#utility.yul\":1508:1537   */\n  tag_59\n    /* \"#utility.yul\":1530:1536   */\n  dup3\n    /* \"#utility.yul\":1508:1537   */\n  tag_14\n  jump\t// in\ntag_59:\n    /* \"#utility.yul\":1500:1537   */\n  swap1\n  pop\n    /* \"#utility.yul\":1592:1596   */\n  0x20\n    /* \"#utility.yul\":1586:1590   */\n  dup2\n    /* \"#utility.yul\":1582:1597   */\n  add\n    /* \"#utility.yul\":1574:1597   */\n  swap1\n  pop\n    /* \"#utility.yul\":1296:1604   */\n  swap2\n  swap1\n  pop\n  jump\t// out\n    /* \"#utility.yul\":1610:1856   */\ntag_19:\n    /* \"#utility.yul\":1691:1692   */\n  0x00\n    /* \"#utility.yul\":1701:1814   */\ntag_61:\n    /* \"#utility.yul\":1715:1721   */\n  dup4\n    /* \"#utility.yul\":1712:1713   */\n  dup2\n    /* \"#utility.yul\":1709:1722   */\n  lt\n    /* \"#utility.yul\":1701:1814   */\n  iszero\n  tag_63\n  jumpi\n    /* \"#utility.yul\":1800:1801   */\n  dup1\n    /* \"#utility.yul\":1795:1798   */\n  dup3\n    /* \"#utility.yul\":1791:1802   */\n  add\n    /* \"#utility.yul\":1785:1803   */\n  mload\n    /* \"#utility.yul\":1781:1782   */\n  dup2\n    /* \"#utility.yul\":1776:1779   */\n  dup5\n    /* \"#utility.yul\":1772:1783   */\n  add\n    /* \"#utility.yul\":1765:1804   */\n  mstore\n    /* \"#utility.yul\":1737:1739   */\n  0x20\n    /* \"#utility.yul\":1734:1735   */\n  dup2\n    /* \"#utility.yul\":1730:1740   */\n  add\n    /* \"#utility.yul\":1725:1740   */\n  swap1\n  pop\n    /* \"#utility.yul\":1701:1814   */\n  jump(tag_61)\ntag_63:\n    /* \"#utility.yul\":1848:1849   */\n  0x00\n    /* \"#utility.yul\":1839:1845   */\n  dup5\n    /* \"#utility.yul\":1834:1837   */\n  dup5\n    /* \"#utility.yul\":1830:1846   */\n  add\n    /* \"#utility.yul\":1823:1850   */\n  mstore\n    /* \"#utility.yul\":1672:1856   */\n  pop\n    /* \"#utility.yul\":1610:1856   */\n  pop\n  pop\n  pop\n  jump\t// out\n    /* \"#utility.yul\":1862:2296   */\ntag_20:\n    /* \"#utility.yul\":1951:1956   */\n  0x00\n    /* \"#utility.yul\":1976:2042   */\n  tag_65\n    /* \"#utility.yul\":1992:2041   */\n  tag_66\n    /* \"#utility.yul\":2034:2040   */\n  dup5\n    /* \"#utility.yul\":1992:2041   */\n  tag_18\n  jump\t// in\ntag_66:\n    /* \"#utility.yul\":1976:2042   */\n  tag_17\n  jump\t// in\ntag_65:\n    /* \"#utility.yul\":1967:2042   */\n  swap1\n  pop\n    /* \"#utility.yul\":2065:2071   */\n  dup3\n    /* \"#utility.yul\":2058:2063   */\n  dup2\n    /* \"#utility.yul\":2051:2072   */\n  mstore\n    /* \"#utility.yul\":2103:2107   */\n  0x20\n    /* \"#utility.yul\":2096:2101   */\n  dup2\n    /* \"#utility.yul\":2092:2108   */\n  add\n    /* \"#utility.yul\":2141:2144   */\n  dup5\n    /* \"#utility.yul\":2132:2138   */\n  dup5\n    /* \"#utility.yul\":2127:2130   */\n  dup5\n    /* \"#utility.yul\":2123:2139   */\n  add\n    /* \"#utility.yul\":2120:2145   */\n  gt\n    /* \"#utility.yul\":2117:2229   */\n  iszero\n  tag_67\n  jumpi\n    /* \"#utility.yul\":2148:2227   */\n  tag_68\n  tag_13\n  jump\t// in\ntag_68:\n    /* \"#utility.yul\":2117:2229   */\ntag_67:\n    /* \"#utility.yul\":2238:2290   */\n  tag_69\n    /* \"#utility.yul\":2283:2289   */\n  dup5\n    /* \"#utility.yul\":2278:2281   */\n  dup3\n    /* \"#utility.yul\":2273:2276   */\n  dup6\n    /* \"#utility.yul\":2238:2290   */\n  tag_19\n  jump\t// in\ntag_69:\n    /* \"#utility.yul\":1957:2296   */\n  pop\n    /* \"#utility.yul\":1862:2296   */\n  swap4\n  swap3\n  pop\n  pop\n  pop\n  jump\t// out\n    /* \"#utility.yul\":2316:2671   */\ntag_21:\n    /* \"#utility.yul\":2383:2388   */\n  0x00\n    /* \"#utility.yul\":2432:2435   */\n  dup3\n    /* \"#utility.yul\":2425:2429   */\n  0x1f\n    /* \"#utility.yul\":2417:2423   */\n  dup4\n    /* \"#utility.yul\":2413:2430   */\n  add\n    /* \"#utility.yul\":2409:2436   */\n  slt\n    /* \"#utility.yul\":2399:2521   */\n  tag_71\n  jumpi\n    /* \"#utility.yul\":2440:2519   */\n  tag_72\n  tag_12\n  jump\t// in\ntag_72:\n    /* \"#utility.yul\":2399:2521   */\ntag_71:\n    /* \"#utility.yul\":2550:2556   */\n  dup2\n    /* \"#utility.yul\":2544:2557   */\n  mload\n    /* \"#utility.yul\":2575:2665   */\n  tag_73\n    /* \"#utility.yul\":2661:2664   */\n  dup5\n    /* \"#utility.yul\":2653:2659   */\n  dup3\n    /* \"#utility.yul\":2646:2650   */\n  0x20\n    /* \"#utility.yul\":2638:2644   */\n  dup7\n    /* \"#utility.yul\":2634:2651   */\n  add\n    /* \"#utility.yul\":2575:2665   */\n  tag_20\n  jump\t// in\ntag_73:\n    /* \"#utility.yul\":2566:2665   */\n  swap2\n  pop\n    /* \"#utility.yul\":2389:2671   */\n  pop\n    /* \"#utility.yul\":2316:2671   */\n  swap3\n  swap2\n  pop\n  pop\n  jump\t// out\n    /* \"#utility.yul\":2677:3201   */\ntag_3:\n    /* \"#utility.yul\":2757:2763   */\n  0x00\n    /* \"#utility.yul\":2806:2808   */\n  0x20\n    /* \"#utility.yul\":2794:2803   */\n  dup3\n    /* \"#utility.yul\":2785:2792   */\n  dup5\n    /* \"#utility.yul\":2781:2804   */\n  sub\n    /* \"#utility.yul\":2777:2809   */\n  slt\n    /* \"#utility.yul\":2774:2893   */\n  iszero\n  tag_75\n  jumpi\n    /* \"#utility.yul\":2812:2891   */\n  tag_76\n  tag_10\n  jump\t// in\ntag_76:\n    /* \"#utility.yul\":2774:2893   */\ntag_75:\n    /* \"#utility.yul\":2953:2954   */\n  0x00\n    /* \"#utility.yul\":2942:2951   */\n  dup3\n    /* \"#utility.yul\":2938:2955   */\n  add\n    /* \"#utility.yul\":2932:2956   */\n  mload\n    /* \"#utility.yul\":2983:3001   */\n  0xffffffffffffffff\n    /* \"#utility.yul\":2975:2981   */\n  dup2\n    /* \"#utility.yul\":2972:3002   */\n  gt\n    /* \"#utility.yul\":2969:3086   */\n  iszero\n  tag_77\n  jumpi\n    /* \"#utility.yul\":3005:3084   */\n  tag_78\n  tag_11\n  jump\t// in\ntag_78:\n    /* \"#utility.yul\":2969:3086   */\ntag_77:\n    /* \"#utility.yul\":3110:3184   */\n  tag_79\n    /* \"#utility.yul\":3176:3183   */\n  dup5\n    /* \"#utility.yul\":3167:3173   */\n  dup3\n    /* \"#utility.yul\":3156:3165   */\n  dup6\n    /* \"#utility.yul\":3152:3174   */\n  add\n    /* \"#utility.yul\":3110:3184   */\n  tag_21\n  jump\t// in\ntag_79:\n    /* \"#utility.yul\":3100:3184   */\n  swap2\n  pop\n    /* \"#utility.yul\":2903:3194   */\n  pop\n    /* \"#utility.yul\":2677:3201   */\n  swap3\n  swap2\n  pop\n  pop\n  jump\t// out\n    /* \"#utility.yul\":3207:3306   */\ntag_22:\n    /* \"#utility.yul\":3259:3265   */\n  0x00\n    /* \"#utility.yul\":3293:3298   */\n  dup2\n    /* \"#utility.yul\":3287:3299   */\n  mload\n    /* \"#utility.yul\":3277:3299   */\n  swap1\n  pop\n    /* \"#utility.yul\":3207:3306   */\n  swap2\n  swap1\n  pop\n  jump\t// out\n    /* \"#utility.yul\":3312:3492   */\ntag_23:\n    /* \"#utility.yul\":3360:3437   */\n  0x4e487b7100000000000000000000000000000000000000000000000000000000\n    /* \"#utility.yul\":3357:3358   */\n  0x00\n    /* \"#utility.yul\":3350:3438   */\n  mstore\n    /* \"#utility.yul\":3457:3461   */\n  0x22\n    /* \"#utility.yul\":3454:3455   */\n  0x04\n    /* \"#utility.yul\":3447:3462   */\n  mstore\n    /* \"#utility.yul\":3481:3485   */\n  0x24\n    /* \"#utility.yul\":3478:3479   */\n  0x00\n    /* \"#utility.yul\":3471:3486   */\n  revert\n    /* \"#utility.yul\":3498:3818   */\ntag_24:\n    /* \"#utility.yul\":3542:3548   */\n  0x00\n    /* \"#utility.yul\":3579:3580   */\n  0x02\n    /* \"#utility.yul\":3573:3577   */\n  dup3\n    /* \"#utility.yul\":3569:3581   */\n  div\n    /* \"#utility.yul\":3559:3581   */\n  swap1\n  pop\n    /* \"#utility.yul\":3626:3627   */\n  0x01\n    /* \"#utility.yul\":3620:3624   */\n  dup3\n    /* \"#utility.yul\":3616:3628   */\n  and\n    /* \"#utility.yul\":3647:3665   */\n  dup1\n    /* \"#utility.yul\":3637:3718   */\n  tag_83\n  jumpi\n    /* \"#utility.yul\":3703:3707   */\n  0x7f\n    /* \"#utility.yul\":3695:3701   */\n  dup3\n    /* \"#utility.yul\":3691:3708   */\n  and\n    /* \"#utility.yul\":3681:3708   */\n  swap2\n  pop\n    /* \"#utility.yul\":3637:3718   */\ntag_83:\n    /* \"#utility.yul\":3765:3767   */\n  0x20\n    /* \"#utility.yul\":3757:3763   */\n  dup3\n    /* \"#utility.yul\":3754:3768   */\n  lt\n    /* \"#utility.yul\":3734:3752   */\n  dup2\n    /* \"#utility.yul\":3731:3769   */\n  sub\n    /* \"#utility.yul\":3728:3812   */\n  tag_84\n  jumpi\n    /* \"#utility.yul\":3784:3802   */\n  tag_85\n  tag_23\n  jump\t// in\ntag_85:\n    /* \"#utility.yul\":3728:3812   */\ntag_84:\n    /* \"#utility.yul\":3549:3818   */\n  pop\n    /* \"#utility.yul\":3498:3818   */\n  swap2\n  swap1\n  pop\n  jump\t// out\n    /* \"#utility.yul\":3824:3965   */\ntag_25:\n    /* \"#utility.yul\":3873:3877   */\n  0x00\n    /* \"#utility.yul\":3896:3899   */\n  dup2\n    /* \"#utility.yul\":3888:3899   */\n  swap1\n  pop\n    /* \"#utility.yul\":3919:3922   */\n  dup2\n    /* \"#utility.yul\":3916:3917   */\n  0x00\n    /* \"#utility.yul\":3909:3923   */\n  mstore\n    /* \"#utility.yul\":3953:3957   */\n  0x20\n    /* \"#utility.yul\":3950:3951   */\n  0x00\n    /* \"#utility.yul\":3940:3958   */\n  keccak256\n    /* \"#utility.yul\":3932:3958   */\n  swap1\n  pop\n    /* \"#utility.yul\":3824:3965   */\n  swap2\n  swap1\n  pop\n  jump\t// out\n    /* \"#utility.yul\":3971:4064   */\ntag_26:\n    /* \"#utility.yul\":4008:4014   */\n  0x00\n    /* \"#utility.yul\":4055:4057   */\n  0x20\n    /* \"#utility.yul\":4050:4052   */\n  0x1f\n    /* \"#utility.yul\":4043:4048   */\n  dup4\n    /* \"#utility.yul\":4039:4053   */\n  add\n    /* \"#utility.yul\":4035:4058   */\n  div\n    /* \"#utility.yul\":4025:4058   */\n  swap1\n  pop\n    /* \"#utility.yul\":3971:4064   */\n  swap2\n  swap1\n  pop\n  jump\t// out\n    /* \"#utility.yul\":4070:4177   */\ntag_27:\n    /* \"#utility.yul\":4114:4122   */\n  0x00\n    /* \"#utility.yul\":4164:4169   */\n  dup3\n    /* \"#utility.yul\":4158:4162   */\n  dup3\n    /* \"#utility.yul\":4154:4170   */\n  shl\n    /* \"#utility.yul\":4133:4170   */\n  swap1\n  pop\n    /* \"#utility.yul\":4070:4177   */\n  swap3\n  swap2\n  pop\n  pop\n  jump\t// out\n    /* \"#utility.yul\":4183:4576   */\ntag_28:\n    /* \"#utility.yul\":4252:4258   */\n  0x00\n    /* \"#utility.yul\":4302:4303   */\n  0x08\n    /* \"#utility.yul\":4290:4300   */\n  dup4\n    /* \"#utility.yul\":4286:4304   */\n  mul\n    /* \"#utility.yul\":4325:4422   */\n  tag_90\n    /* \"#utility.yul\":4355:4421   */\n  0xffffffffffffffffffffffffffffffffffffffffffffffffffffffffffffffff\n    /* \"#utility.yul\":4344:4353   */\n  dup3\n    /* \"#utility.yul\":4325:4422   */\n  tag_27\n  jump\t// in\ntag_90:\n    /* \"#utility.yul\":4443:4482   */\n  tag_91\n    /* \"#utility.yul\":4473:4481   */\n  dup7\n    /* \"#utility.yul\":4462:4471   */\n  dup4\n    /* \"#utility.yul\":4443:4482   */\n  tag_27\n  jump\t// in\ntag_91:\n    /* \"#utility.yul\":4431:4482   */\n  swap6\n  pop\n    /* \"#utility.yul\":4515:4519   */\n  dup1\n    /* \"#utility.yul\":4511:4520   */\n  not\n    /* \"#utility.yul\":4504:4509   */\n  dup5\n    /* \"#utility.yul\":4500:4521   */\n  and\n    /* \"#utility.yul\":4491:4521   */\n  swap4\n  pop\n    /* \"#utility.yul\":4564:4568   */\n  dup1\n    /* \"#utility.yul\":4554:4562   */\n  dup7\n    /* \"#utility.yul\":4550:4569   */\n  and\n    /* \"#utility.yul\":4543:4548   */\n  dup5\n    /* \"#utility.yul\":4540:4570   */\n  or\n    /* \"#utility.yul\":4530:4570   */\n  swap3\n  pop\n    /* \"#utility.yul\":4259:4576   */\n  pop\n  pop\n    /* \"#utility.yul\":4183:4576   */\n  swap4\n  swap3\n  pop\n  pop\n  pop\n  jump\t// out\n    /* \"#utility.yul\":4582:4659   */\ntag_29:\n    /* \"#utility.yul\":4619:4626   */\n  0x00\n    /* \"#utility.yul\":4648:4653   */\n  dup2\n    /* \"#utility.yul\":4637:4653   */\n  swap1\n  pop\n    /* \"#utility.yul\":4582:4659   */\n  swap2\n  swap1\n  pop\n  jump\t// out\n    /* \"#utility.yul\":4665:4725   */\ntag_30:\n    /* \"#utility.yul\":4693:4696   */\n  0x00\n    /* \"#utility.yul\":4714:4719   */\n  dup2\n    /* \"#utility.yul\":4707:4719   */\n  swap1\n  pop\n    /* \"#utility.yul\":4665:4725   */\n  swap2\n  swap1\n  pop\n  jump\t// out\n    /* \"#utility.yul\":4731:4873   */\ntag_31:\n    /* \"#utility.yul\":4781:4790   */\n  0x00\n    /* \"#utility.yul\":4814:4867   */\n  tag_95\n    /* \"#utility.yul\":4832:4866   */\n  tag_96\n    /* \"#utility.yul\":4841:4865   */\n  tag_97\n    /* \"#utility.yul\":4859:4864   */\n  dup5\n    /* \"#utility.yul\":4841:4865   */\n  tag_29\n  jump\t// in\ntag_97:\n    /* \"#utility.yul\":4832:4866   */\n  tag_30\n  jump\t// in\ntag_96:\n    /* \"#utility.yul\":4814:4867   */\n  tag_29\n  jump\t// in\ntag_95:\n    /* \"#utility.yul\":4801:4867   */\n  swap1\n  pop\n    /* \"#utility.yul\":4731:4873   */\n  swap2\n  swap1\n  pop\n  jump\t// out\n    /* \"#utility.yul\":4879:4954   */\ntag_32:\n    /* \"#utility.yul\":4922:4925   */\n  0x00\n    /* \"#utility.yul\":4943:4948   */\n  dup2\n    /* \"#utility.yul\":4936:4948   */\n  swap1\n  pop\n    /* \"#utility.yul\":4879:4954   */\n  swap2\n  swap1\n  pop\n  jump\t// out\n    /* \"#utility.yul\":4960:5229   */\ntag_33:\n    /* \"#utility.yul\":5070:5109   */\n  tag_100\n    /* \"#utility.yul\":5101:5108   */\n  dup4\n    /* \"#utility.yul\":5070:5109   */\n  tag_31\n  jump\t// in\ntag_100:\n    /* \"#utility.yul\":5131:5222   */\n  tag_101\n    /* \"#utility.yul\":5180:5221   */\n  tag_102\n    /* \"#utility.yul\":5204:5220   */\n  dup3\n    /* \"#utility.yul\":5180:5221   */\n  tag_32\n  jump\t// in\ntag_102:\n    /* \"#utility.yul\":5172:5178   */\n  dup5\n    /* \"#utility.yul\":5165:5169   */\n  dup5\n    /* \"#utility.yul\":5159:5170   */\n  sload\n    /* \"#utility.yul\":5131:5222   */\n  tag_28\n  jump\t// in\ntag_101:\n    /* \"#utility.yul\":5125:5129   */\n  dup3\n    /* \"#utility.yul\":5118:5223   */\n  sstore\n    /* \"#utility.yul\":5036:5229   */\n  pop\n    /* \"#utility.yul\":4960:5229   */\n  pop\n  pop\n  pop\n  jump\t// out\n    /* \"#utility.yul\":5235:5308   */\ntag_34:\n    /* \"#utility.yul\":5280:5283   */\n  0x00\n    /* \"#utility.yul\":5235:5308   */\n  swap1\n  jump\t// out\n    /* \"#utility.yul\":5314:5503   */\ntag_35:\n    /* \"#utility.yul\":5391:5423   */\n  tag_105\n  tag_34\n  jump\t// in\ntag_105:\n    /* \"#utility.yul\":5432:5497   */\n  tag_106\n    /* \"#utility.yul\":5490:5496   */\n  dup2\n    /* \"#utility.yul\":5482:5488   */\n  dup5\n    /* \"#utility.yul\":5476:5480   */\n  dup5\n    /* \"#utility.yul\":5432:5497   */\n  tag_33\n  jump\t// in\ntag_106:\n    /* \"#utility.yul\":5367:5503   */\n  pop\n    /* \"#utility.yul\":5314:5503   */\n  pop\n  pop\n  jump\t// out\n    /* \"#utility.yul\":5509:5695   */\ntag_36:\n    /* \"#utility.yul\":5569:5689   */\ntag_108:\n    /* \"#utility.yul\":5586:5589   */\n  dup2\n    /* \"#utility.yul\":5579:5584   */\n  dup2\n    /* \"#utility.yul\":5576:5590   */\n  lt\n    /* \"#utility.yul\":5569:5689   */\n  iszero\n  tag_110\n  jumpi\n    /* \"#utility.yul\":5640:5679   */\n  tag_111\n    /* \"#utility.yul\":5677:5678   */\n  0x00\n    /* \"#utility.yul\":5670:5675   */\n  dup3\n    /* \"#utility.yul\":5640:5679   */\n  tag_35\n  jump\t// in\ntag_111:\n    /* \"#utility.yul\":5613:5614   */\n  0x01\n    /* \"#utility.yul\":5606:5611   */\n  dup2\n    /* \"#utility.yul\":5602:5615   */\n  add\n    /* \"#utility.yul\":5593:5615   */\n  swap1\n  pop\n    /* \"#utility.yul\":5569:5689   */\n  jump(tag_108)\ntag_110:\n    /* \"#utility.yul\":5509:5695   */\n  pop\n  pop\n  jump\t// out\n    /* \"#utility.yul\":5701:6244   */\ntag_37:\n    /* \"#utility.yul\":5802:5804   */\n  0x1f\n    /* \"#utility.yul\":5797:5800   */\n  dup3\n    /* \"#utility.yul\":5794:5805   */\n  gt\n    /* \"#utility.yul\":5791:6237   */\n  iszero\n  tag_113\n  jumpi\n    /* \"#utility.yul\":5836:5874   */\n  tag_114\n    /* \"#utility.yul\":5868:5873   */\n  dup2\n    /* \"#utility.yul\":5836:5874   */\n  tag_25\n  jump\t// in\ntag_114:\n    /* \"#utility.yul\":5920:5949   */\n  tag_115\n    /* \"#utility.yul\":5938:5948   */\n  dup5\n    /* \"#utility.yul\":5920:5949   */\n  tag_26\n  jump\t// in\ntag_115:\n    /* \"#utility.yul\":5910:5918   */\n  dup2\n    /* \"#utility.yul\":5906:5950   */\n  add\n    /* \"#utility.yul\":6103:6105   */\n  0x20\n    /* \"#utility.yul\":6091:6101   */\n  dup6\n    /* \"#utility.yul\":6088:6106   */\n  lt\n    /* \"#utility.yul\":6085:6134   */\n  iszero\n  tag_116\n  jumpi\n    /* \"#utility.yul\":6124:6132   */\n  dup2\n    /* \"#utility.yul\":6109:6132   */\n  swap1\n  pop\n    /* \"#utility.yul\":6085:6134   */\ntag_116:\n    /* \"#utility.yul\":6147:6227   */\n  tag_117\n    /* \"#utility.yul\":6203:6225   */\n  tag_118\n    /* \"#utility.yul\":6221:6224   */\n  dup6\n    /* \"#utility.yul\":6203:6225   */\n  tag_26\n  jump\t// in\ntag_118:\n    /* \"#utility.yul\":6193:6201   */\n  dup4\n    /* \"#utility.yul\":6189:6226   */\n  add\n    /* \"#utility.yul\":6176:6187   */\n  dup3\n    /* \"#utility.yul\":6147:6227   */\n  tag_36\n  jump\t// in\ntag_117:\n    /* \"#utility.yul\":5806:6237   */\n  pop\n  pop\n    /* \"#utility.yul\":5791:6237   */\ntag_113:\n    /* \"#utility.yul\":5701:6244   */\n  pop\n  pop\n  pop\n  jump\t// out\n    /* \"#utility.yul\":6250:6367   */\ntag_38:\n    /* \"#utility.yul\":6304:6312   */\n  0x00\n    /* \"#utility.yul\":6354:6359   */\n  dup3\n    /* \"#utility.yul\":6348:6352   */\n  dup3\n    /* \"#utility.yul\":6344:6360   */\n  shr\n    /* \"#utility.yul\":6323:6360   */\n  swap1\n  pop\n    /* \"#utility.yul\":6250:6367   */\n  swap3\n  swap2\n  pop\n  pop\n  jump\t// out\n    /* \"#utility.yul\":6373:6542   */\ntag_39:\n    /* \"#utility.yul\":6417:6423   */\n  0x00\n    /* \"#utility.yul\":6450:6501   */\n  tag_121\n    /* \"#utility.yul\":6498:6499   */\n  0x00\n    /* \"#utility.yul\":6494:6500   */\n  not\n    /* \"#utility.yul\":6486:6491   */\n  dup5\n    /* \"#utility.yul\":6483:6484   */\n  0x08\n    /* \"#utility.yul\":6479:6492   */\n  mul\n    /* \"#utility.yul\":6450:6501   */\n  tag_38\n  jump\t// in\ntag_121:\n    /* \"#utility.yul\":6446:6502   */\n  not\n    /* \"#utility.yul\":6531:6535   */\n  dup1\n    /* \"#utility.yul\":6525:6529   */\n  dup4\n    /* \"#utility.yul\":6521:6536   */\n  and\n    /* \"#utility.yul\":6511:6536   */\n  swap2\n  pop\n    /* \"#utility.yul\":6424:6542   */\n  pop\n    /* \"#utility.yul\":6373:6542   */\n  swap3\n  swap2\n  pop\n  pop\n  jump\t// out\n    /* \"#utility.yul\":6547:6842   */\ntag_40:\n    /* \"#utility.yul\":6623:6627   */\n  0x00\n    /* \"#utility.yul\":6769:6798   */\n  tag_123\n    /* \"#utility.yul\":6794:6797   */\n  dup4\n    /* \"#utility.yul\":6788:6792   */\n  dup4\n    /* \"#utility.yul\":6769:6798   */\n  tag_39\n  jump\t// in\ntag_123:\n    /* \"#utility.yul\":6761:6798   */\n  swap2\n  pop\n    /* \"#utility.yul\":6831:6834   */\n  dup3\n    /* \"#utility.yul\":6828:6829   */\n  0x02\n    /* \"#utility.yul\":6824:6835   */\n  mul\n    /* \"#utility.yul\":6818:6822   */\n  dup3\n    /* \"#utility.yul\":6815:6836   */\n  or\n    /* \"#utility.yul\":6807:6836   */\n  swap1\n  pop\n    /* \"#utility.yul\":6547:6842   */\n  swap3\n  swap2\n  pop\n  pop\n  jump\t// out\n    /* \"#utility.yul\":6847:8242   */\ntag_7:\n    /* \"#utility.yul\":6964:7001   */\n  tag_125\n    /* \"#utility.yul\":6997:7000   */\n  dup3\n    /* \"#utility.yul\":6964:7001   */\n  tag_22\n  jump\t// in\ntag_125:\n    /* \"#utility.yul\":7066:7084   */\n  0xffffffffffffffff\n    /* \"#utility.yul\":7058:7064   */\n  dup2\n    /* \"#utility.yul\":7055:7085   */\n  gt\n    /* \"#utility.yul\":7052:7108   */\n  iszero\n  tag_126\n  jumpi\n    /* \"#utility.yul\":7088:7106   */\n  tag_127\n  tag_15\n  jump\t// in\ntag_127:\n    /* \"#utility.yul\":7052:7108   */\ntag_126:\n    /* \"#utility.yul\":7132:7170   */\n  tag_128\n    /* \"#utility.yul\":7164:7168   */\n  dup3\n    /* \"#utility.yul\":7158:7169   */\n  sload\n    /* \"#utility.yul\":7132:7170   */\n  tag_24\n  jump\t// in\ntag_128:\n    /* \"#utility.yul\":7217:7284   */\n  tag_129\n    /* \"#utility.yul\":7277:7283   */\n  dup3\n    /* \"#utility.yul\":7269:7275   */\n  dup3\n    /* \"#utility.yul\":7263:7267   */\n  dup6\n    /* \"#utility.yul\":7217:7284   */\n  tag_37\n  jump\t// in\ntag_129:\n    /* \"#utility.yul\":7311:7312   */\n  0x00\n    /* \"#utility.yul\":7335:7339   */\n  0x20\n    /* \"#utility.yul\":7322:7339   */\n  swap1\n  pop\n    /* \"#utility.yul\":7367:7369   */\n  0x1f\n    /* \"#utility.yul\":7359:7365   */\n  dup4\n    /* \"#utility.yul\":7356:7370   */\n  gt\n    /* \"#utility.yul\":7384:7385   */\n  0x01\n    /* \"#utility.yul\":7379:7997   */\n  dup2\n  eq\n  tag_131\n  jumpi\n    /* \"#utility.yul\":8041:8042   */\n  0x00\n    /* \"#utility.yul\":8058:8064   */\n  dup5\n    /* \"#utility.yul\":8055:8132   */\n  iszero\n  tag_132\n  jumpi\n    /* \"#utility.yul\":8107:8116   */\n  dup3\n    /* \"#utility.yul\":8102:8105   */\n  dup8\n    /* \"#utility.yul\":8098:8117   */\n  add\n    /* \"#utility.yul\":8092:8118   */\n  mload\n    /* \"#utility.yul\":8083:8118   */\n  swap1\n  pop\n    /* \"#utility.yul\":8055:8132   */\ntag_132:\n    /* \"#utility.yul\":8158:8225   */\n  tag_133\n    /* \"#utility.yul\":8218:8224   */\n  dup6\n    /* \"#utility.yul\":8211:8216   */\n  dup3\n    /* \"#utility.yul\":8158:8225   */\n  tag_40\n  jump\t// in\ntag_133:\n    /* \"#utility.yul\":8152:8156   */\n  dup7\n    /* \"#utility.yul\":8145:8226   */\n  sstore\n    /* \"#utility.yul\":8014:8236   */\n  pop\n    /* \"#utility.yul\":7349:8236   */\n  jump(tag_130)\n    /* \"#utility.yul\":7379:7997   */\ntag_131:\n    /* \"#utility.yul\":7431:7435   */\n  0x1f\n    /* \"#utility.yul\":7427:7436   */\n  not\n    /* \"#utility.yul\":7419:7425   */\n  dup5\n    /* \"#utility.yul\":7415:7437   */\n  and\n    /* \"#utility.yul\":7465:7502   */\n  tag_134\n    /* \"#utility.yul\":7497:7501   */\n  dup7\n    /* \"#utility.yul\":7465:7502   */\n  tag_25\n  jump\t// in\ntag_134:\n    /* \"#utility.yul\":7524:7525   */\n  0x00\n    /* \"#utility.yul\":7538:7746   */\ntag_135:\n    /* \"#utility.yul\":7552:7559   */\n  dup3\n    /* \"#utility.yul\":7549:7550   */\n  dup2\n    /* \"#utility.yul\":7546:7560   */\n  lt\n    /* \"#utility.yul\":7538:7746   */\n  iszero\n  tag_137\n  jumpi\n    /* \"#utility.yul\":7631:7640   */\n  dup5\n    /* \"#utility.yul\":7626:7629   */\n  dup10\n    /* \"#utility.yul\":7622:7641   */\n  add\n    /* \"#utility.yul\":7616:7642   */\n  mload\n    /* \"#utility.yul\":7608:7614   */\n  dup3\n    /* \"#utility.yul\":7601:7643   */\n  sstore\n    /* \"#utility.yul\":7682:7683   */\n  0x01\n    /* \"#utility.yul\":7674:7680   */\n  dup3\n    /* \"#utility.yul\":7670:7684   */\n  add\n    /* \"#utility.yul\":7660:7684   */\n  swap2\n  pop\n    /* \"#utility.yul\":7729:7731   */\n  0x20\n    /* \"#utility.yul\":7718:7727   */\n  dup6\n    /* \"#utility.yul\":7714:7732   */\n  add\n    /* \"#utility.yul\":7701:7732   */\n  swap5\n  pop\n    /* \"#utility.yul\":7575:7579   */\n  0x20\n    /* \"#utility.yul\":7572:7573   */\n  dup2\n    /* \"#utility.yul\":7568:7580   */\n  add\n    /* \"#utility.yul\":7563:7580   */\n  swap1\n  pop\n    /* \"#utility.yul\":7538:7746   */\n  jump(tag_135)\ntag_137:\n    /* \"#utility.yul\":7774:7780   */\n  dup7\n    /* \"#utility.yul\":7765:7772   */\n  dup4\n    /* \"#utility.yul\":7762:7781   */\n  lt\n    /* \"#utility.yul\":7759:7938   */\n  iszero\n  tag_138\n  jumpi\n    /* \"#utility.yul\":7832:7841   */\n  dup5\n    /* \"#utility.yul\":7827:7830   */\n  dup10\n    /* \"#utility.yul\":7823:7842   */\n  add\n    /* \"#utility.yul\":7817:7843   */\n  mload\n    /* \"#utility.yul\":7875:7923   */\n  tag_139\n    /* \"#utility.yul\":7917:7921   */\n  0x1f\n    /* \"#utility.yul\":7909:7915   */\n  dup10\n    /* \"#utility.yul\":7905:7922   */\n  and\n    /* \"#utility.yul\":7894:7903   */\n  dup3\n    /* \"#utility.yul\":7875:7923   */\n  tag_39\n  jump\t// in\ntag_139:\n    /* \"#utility.yul\":7867:7873   */\n  dup4\n    /* \"#utility.yul\":7860:7924   */\n  sstore\n    /* \"#utility.yul\":7782:7938   */\n  pop\n    /* \"#utility.yul\":7759:7938   */\ntag_138:\n    /* \"#utility.yul\":7984:7985   */\n  0x01\n    /* \"#utility.yul\":7980:7981   */\n  0x02\n    /* \"#utility.yul\":7972:7978   */\n  dup9\n    /* \"#utility.yul\":7968:7982   */\n  mul\n    /* \"#utility.yul\":7964:7986   */\n  add\n    /* \"#utility.yul\":7958:7962   */\n  dup9\n    /* \"#utility.yul\":7951:7987   */\n  sstore\n    /* \"#utility.yul\":7386:7997   */\n  pop\n  pop\n  pop\n    /* \"#utility.yul\":7349:8236   */\ntag_130:\n  pop\n    /* \"#utility.yul\":6939:8242   */\n  pop\n  pop\n  pop\n    /* \"#utility.yul\":6847:8242   */\n  pop\n  pop\n  jump\t// out\n    /* \"Voting.sol\":62:1727  contract Voting {... */\ntag_8:\n  dataSize(sub_0)\n  dup1\n  dataOffset(sub_0)\n  0x00\n  codecopy\n  0x00\n  return\nstop\n\nsub_0: assembly {\n        /* \"Voting.sol\":62:1727  contract Voting {... */\n      mstore(0x40, 0x80)\n      callvalue\n      dup1\n      iszero\n      tag_1\n      jumpi\n      0x00\n      dup1\n      revert\n    tag_1:\n      pop\n      jumpi(tag_2, lt(calldatasize, 0x04))\n      shr(0xe0, calldataload(0x00))\n      dup1\n      0x33ec9316\n      gt\n      tag_10\n      jumpi\n      dup1\n      0x33ec9316\n      eq\n      tag_6\n      jumpi\n      dup1\n      0x462e91ec\n      eq\n      tag_7\n      jumpi\n      dup1\n      0xa3ec138d\n      eq\n      tag_8\n      jumpi\n      dup1\n      0xdfbf53ae\n      eq\n      tag_9\n      jumpi\n      jump(tag_2)\n    tag_10:\n      dup1\n      0x0121b93f\n      eq\n      tag_3\n      jumpi\n      dup1\n      0x06a49fce\n      eq\n      tag_4\n      jumpi\n      dup1\n      0x06fdde03\n      eq\n      tag_5\n      jumpi\n    tag_2:\n      0x00\n      dup1\n      revert\n        /* \"Voting.sol\":917:1226  function vote(uint id) public {... */\n    tag_3:\n      tag_11\n      0x04\n      dup1\n      calldatasize\n      sub\n      dup2\n      add\n      swap1\n      tag_12\n      swap2\n      swap1\n      tag_13\n      jump\t// in\n    tag_12:\n      tag_14\n      jump\t// in\n    tag_11:\n      stop\n        /* \"Voting.sol\":811:911  function getCandidates() public view returns (Candidate[] memory) {... */\n    tag_4:\n      tag_15\n      tag_16\n      jump\t// in\n    tag_15:\n      mload(0x40)\n      tag_17\n      swap2\n      swap1\n      tag_18\n      jump\t// in\n    tag_17:\n      mload(0x40)\n      dup1\n      swap2\n      sub\n      swap1\n      return\n        /* \"Voting.sol\":273:291  string public name */\n    tag_5:\n      tag_19\n      tag_20\n      jump\t// in\n    tag_19:\n      mload(0x40)\n      tag_21\n      swap2\n      swap1\n      tag_22\n      jump\t// in\n    tag_21:\n      mload(0x40)\n      dup1\n      swap2\n      sub\n      swap1\n      return\n        /* \"Voting.sol\":238:267  uint public candidatesCounter */\n    tag_6:\n      tag_23\n      tag_24\n      jump\t// in\n    tag_23:\n      mload(0x40)\n      tag_25\n      swap2\n      swap1\n      tag_26\n      jump\t// in\n    tag_25:\n      mload(0x40)\n      dup1\n      swap2\n      sub\n      swap1\n      return\n        /* \"Voting.sol\":518:805  function addCandidate(string memory candidateName) public {... */\n    tag_7:\n      tag_27\n      0x04\n      dup1\n      calldatasize\n      sub\n      dup2\n      add\n      swap1\n      tag_28\n      swap2\n      swap1\n      tag_29\n      jump\t// in\n    tag_28:\n      tag_30\n      jump\t// in\n    tag_27:\n      stop\n        /* \"Voting.sol\":334:373  mapping(address => Voter) public voters */\n    tag_8:\n      tag_31\n      0x04\n      dup1\n      calldatasize\n      sub\n      dup2\n      add\n      swap1\n      tag_32\n      swap2\n      swap1\n      tag_33\n      jump\t// in\n    tag_32:\n      tag_34\n      jump\t// in\n    tag_31:\n      mload(0x40)\n      tag_35\n      swap2\n      swap1\n      tag_36\n      jump\t// in\n    tag_35:\n      mload(0x40)\n      dup1\n      swap2\n      sub\n      swap1\n      return\n        /* \"Voting.sol\":1232:1628  function winner() public onlyOwner view returns (Candidate memory) {... */\n    tag_9:\n      tag_37\n      tag_38\n      jump\t// in\n    tag_37:\n      mload(0x40)\n      tag_39\n      swap2\n      swap1\n      tag_40\n      jump\t// in\n    tag_39:\n      mload(0x40)\n      dup1\n      swap2\n      sub\n      swap1\n      return\n        /* \"Voting.sol\":917:1226  function vote(uint id) public {... */\n    tag_14:\n        /* \"Voting.sol\":966:972  voters */\n      0x04\n        /* \"Voting.sol\":966:984  voters[msg.sender] */\n      0x00\n        /* \"Voting.sol\":973:983  msg.sender */\n      caller\n        /* \"Voting.sol\":966:984  voters[msg.sender] */\n      0xffffffffffffffffffffffffffffffffffffffff\n      and\n      0xffffffffffffffffffffffffffffffffffffffff\n      and\n      dup2\n      mstore\n      0x20\n      add\n      swap1\n      dup2\n      mstore\n      0x20\n      add\n      0x00\n      keccak256\n        /* \"Voting.sol\":966:990  voters[msg.sender].voted */\n      0x00\n      add\n      0x00\n      swap1\n      sload\n      swap1\n      0x0100\n      exp\n      swap1\n      div\n      0xff\n      and\n        /* \"Voting.sol\":965:990  !voters[msg.sender].voted */\n      iszero\n        /* \"Voting.sol\":957:1020  require(!voters[msg.sender].voted, 'This person already voted') */\n      tag_42\n      jumpi\n      mload(0x40)\n      0x08c379a000000000000000000000000000000000000000000000000000000000\n      dup2\n      mstore\n      0x04\n      add\n      tag_43\n      swap1\n      tag_44\n      jump\t// in\n    tag_43:\n      mload(0x40)\n      dup1\n      swap2\n      sub\n      swap1\n      revert\n    tag_42:\n        /* \"Voting.sol\":1036:1042  uint i */\n      0x00\n        /* \"Voting.sol\":1031:1179  for (uint i=0; i< candidates.length; i++) {... */\n    tag_45:\n        /* \"Voting.sol\":1049:1059  candidates */\n      0x03\n        /* \"Voting.sol\":1049:1066  candidates.length */\n      dup1\n      sload\n      swap1\n      pop\n        /* \"Voting.sol\":1046:1047  i */\n      dup2\n        /* \"Voting.sol\":1046:1066  i< candidates.length */\n      lt\n        /* \"Voting.sol\":1031:1179  for (uint i=0; i< candidates.length; i++) {... */\n      iszero\n      tag_46\n      jumpi\n        /* \"Voting.sol\":1097:1107  candidates */\n      0x03\n        /* \"Voting.sol\":1108:1109  i */\n      dup2\n        /* \"Voting.sol\":1097:1110  candidates[i] */\n      dup2\n      sload\n      dup2\n      lt\n      tag_48\n      jumpi\n      tag_49\n      tag_50\n      jump\t// in\n    tag_49:\n    tag_48:\n      swap1\n      0x00\n      mstore\n      keccak256(0x00, 0x20)\n      swap1\n      0x03\n      mul\n      add\n        /* \"Voting.sol\":1097:1113  candidates[i].id */\n      0x00\n      add\n      sload\n        /* \"Voting.sol\":1091:1093  id */\n      dup3\n        /* \"Voting.sol\":1091:1113  id == candidates[i].id */\n      sub\n        /* \"Voting.sol\":1087:1169  if (id == candidates[i].id) {... */\n      tag_52\n      jumpi\n        /* \"Voting.sol\":1133:1143  candidates */\n      0x03\n        /* \"Voting.sol\":1144:1145  i */\n      dup2\n        /* \"Voting.sol\":1133:1146  candidates[i] */\n      dup2\n      sload\n      dup2\n      lt\n      tag_53\n      jumpi\n      tag_54\n      tag_50\n      jump\t// in\n    tag_54:\n    tag_53:\n      swap1\n      0x00\n      mstore\n      keccak256(0x00, 0x20)\n      swap1\n      0x03\n      mul\n      add\n        /* \"Voting.sol\":1133:1152  candidates[i].votes */\n      0x02\n      add\n      0x00\n        /* \"Voting.sol\":1133:1154  candidates[i].votes++ */\n      dup2\n      sload\n      dup1\n      swap3\n      swap2\n      swap1\n      tag_56\n      swap1\n      tag_57\n      jump\t// in\n    tag_56:\n      swap2\n      swap1\n      pop\n      sstore\n      pop\n        /* \"Voting.sol\":1087:1169  if (id == candidates[i].id) {... */\n    tag_52:\n        /* \"Voting.sol\":1068:1071  i++ */\n      dup1\n      dup1\n      tag_58\n      swap1\n      tag_57\n      jump\t// in\n    tag_58:\n      swap2\n      pop\n      pop\n        /* \"Voting.sol\":1031:1179  for (uint i=0; i< candidates.length; i++) {... */\n      jump(tag_45)\n    tag_46:\n      pop\n        /* \"Voting.sol\":1215:1219  true */\n      0x01\n        /* \"Voting.sol\":1188:1194  voters */\n      0x04\n        /* \"Voting.sol\":1188:1206  voters[msg.sender] */\n      0x00\n        /* \"Voting.sol\":1195:1205  msg.sender */\n      caller\n        /* \"Voting.sol\":1188:1206  voters[msg.sender] */\n      0xffffffffffffffffffffffffffffffffffffffff\n      and\n      0xffffffffffffffffffffffffffffffffffffffff\n      and\n      dup2\n      mstore\n      0x20\n      add\n      swap1\n      dup2\n      mstore\n      0x20\n      add\n      0x00\n      keccak256\n        /* \"Voting.sol\":1188:1212  voters[msg.sender].voted */\n      0x00\n      add\n      0x00\n        /* \"Voting.sol\":1188:1219  voters[msg.sender].voted = true */\n      0x0100\n      exp\n      dup2\n      sload\n      dup2\n      0xff\n      mul\n      not\n      and\n      swap1\n      dup4\n      iszero\n      iszero\n      mul\n      or\n      swap1\n      sstore\n      pop\n        /* \"Voting.sol\":917:1226  function vote(uint id) public {... */\n      pop\n      jump\t// out\n        /* \"Voting.sol\":811:911  function getCandidates() public view returns (Candidate[] memory) {... */\n    tag_16:\n        /* \"Voting.sol\":857:875  Candidate[] memory */\n      0x60\n        /* \"Voting.sol\":894:904  candidates */\n      0x03\n        /* \"Voting.sol\":887:904  return candidates */\n      dup1\n      sload\n      dup1\n      0x20\n      mul\n      0x20\n      add\n      mload(0x40)\n      swap1\n      dup2\n      add\n      0x40\n      mstore\n      dup1\n      swap3\n      swap2\n      swap1\n      dup2\n      dup2\n      mstore\n      0x20\n      add\n      0x00\n      swap1\n    tag_60:\n      dup3\n      dup3\n      lt\n      iszero\n      tag_61\n      jumpi\n      dup4\n      dup3\n      swap1\n      0x00\n      mstore\n      keccak256(0x00, 0x20)\n      swap1\n      0x03\n      mul\n      add\n      mload(0x40)\n      dup1\n      0x60\n      add\n      0x40\n      mstore\n      swap1\n      dup2\n      0x00\n      dup3\n      add\n      sload\n      dup2\n      mstore\n      0x20\n      add\n      0x01\n      dup3\n      add\n      dup1\n      sload\n      tag_63\n      swap1\n      tag_64\n      jump\t// in\n    tag_63:\n      dup1\n      0x1f\n      add\n      0x20\n      dup1\n      swap2\n      div\n      mul\n      0x20\n      add\n      mload(0x40)\n      swap1\n      dup2\n      add\n      0x40\n      mstore\n      dup1\n      swap3\n      swap2\n      swap1\n      dup2\n      dup2\n      mstore\n      0x20\n      add\n      dup3\n      dup1\n      sload\n      tag_65\n      swap1\n      tag_64\n      jump\t// in\n    tag_65:\n      dup1\n      iszero\n      tag_66\n      jumpi\n      dup1\n      0x1f\n      lt\n      tag_67\n      jumpi\n      0x0100\n      dup1\n      dup4\n      sload\n      div\n      mul\n      dup4\n      mstore\n      swap2\n      0x20\n      add\n      swap2\n      jump(tag_66)\n    tag_67:\n      dup3\n      add\n      swap2\n      swap1\n      0x00\n      mstore\n      keccak256(0x00, 0x20)\n      swap1\n    tag_68:\n      dup2\n      sload\n      dup2\n      mstore\n      swap1\n      0x01\n      add\n      swap1\n      0x20\n      add\n      dup1\n      dup4\n      gt\n      tag_68\n      jumpi\n      dup3\n      swap1\n      sub\n      0x1f\n      and\n      dup3\n      add\n      swap2\n    tag_66:\n      pop\n      pop\n      pop\n      pop\n      pop\n      dup2\n      mstore\n      0x20\n      add\n      0x02\n      dup3\n      add\n      sload\n      dup2\n      mstore\n      pop\n      pop\n      dup2\n      mstore\n      0x20\n      add\n      swap1\n      0x01\n      add\n      swap1\n      jump(tag_60)\n    tag_61:\n      pop\n      pop\n      pop\n      pop\n      swap1\n      pop\n        /* \"Voting.sol\":811:911  function getCandidates() public view returns (Candidate[] memory) {... */\n      swap1\n      jump\t// out\n        /* \"Voting.sol\":273:291  string public name */\n    tag_20:\n      0x02\n      dup1\n      sload\n      tag_69\n      swap1\n      tag_64\n      jump\t// in\n    tag_69:\n      dup1\n      0x1f\n      add\n      0x20\n      dup1\n      swap2\n      div\n      mul\n      0x20\n      add\n      mload(0x40)\n      swap1\n      dup2\n      add\n      0x40\n      mstore\n      dup1\n      swap3\n      swap2\n      swap1\n      dup2\n      dup2\n      mstore\n      0x20\n      add\n      dup3\n      dup1\n      sload\n      tag_70\n      swap1\n      tag_64\n      jump\t// in\n    tag_70:\n      dup1\n      iszero\n      tag_71\n      jumpi\n      dup1\n      0x1f\n      lt\n      tag_72\n      jumpi\n      0x0100\n      dup1\n      dup4\n      sload\n      div\n      mul\n      dup4\n      mstore\n      swap2\n      0x20\n      add\n      swap2\n      jump(tag_71)\n    tag_72:\n      dup3\n      add\n      swap2\n      swap1\n      0x00\n      mstore\n      keccak256(0x00, 0x20)\n      swap1\n    tag_73:\n      dup2\n      sload\n      dup2\n      mstore\n      swap1\n      0x01\n      add\n      swap1\n      0x20\n      add\n      dup1\n      dup4\n      gt\n      tag_73\n      jumpi\n      dup3\n      swap1\n      sub\n      0x1f\n      and\n      dup3\n      add\n      swap2\n    tag_71:\n      pop\n      pop\n      pop\n      pop\n      pop\n      dup2\n      jump\t// out\n        /* \"Voting.sol\":238:267  uint public candidatesCounter */\n    tag_24:\n      sload(0x01)\n      dup2\n      jump\t// out\n        /* \"Voting.sol\":518:805  function addCandidate(string memory candidateName) public {... */\n    tag_30:\n        /* \"Voting.sol\":586:615  Candidate memory newCandidate */\n      0x00\n        /* \"Voting.sol\":618:729  Candidate({... */\n      mload(0x40)\n      dup1\n      0x60\n      add\n      0x40\n      mstore\n      dup1\n        /* \"Voting.sol\":646:663  candidatesCounter */\n      sload(0x01)\n        /* \"Voting.sol\":618:729  Candidate({... */\n      dup2\n      mstore\n      0x20\n      add\n        /* \"Voting.sol\":683:696  candidateName */\n      dup4\n        /* \"Voting.sol\":618:729  Candidate({... */\n      dup2\n      mstore\n      0x20\n      add\n        /* \"Voting.sol\":717:718  0 */\n      0x00\n        /* \"Voting.sol\":618:729  Candidate({... */\n      dup2\n      mstore\n      pop\n        /* \"Voting.sol\":586:729  Candidate memory newCandidate = Candidate({... */\n      swap1\n      pop\n        /* \"Voting.sol\":740:750  candidates */\n      0x03\n        /* \"Voting.sol\":756:768  newCandidate */\n      dup2\n        /* \"Voting.sol\":740:769  candidates.push(newCandidate) */\n      swap1\n      dup1\n      0x01\n      dup2\n      sload\n      add\n      dup1\n      dup3\n      sstore\n      dup1\n      swap2\n      pop\n      pop\n      0x01\n      swap1\n      sub\n      swap1\n      0x00\n      mstore\n      keccak256(0x00, 0x20)\n      swap1\n      0x03\n      mul\n      add\n      0x00\n      swap1\n      swap2\n      swap1\n      swap2\n      swap1\n      swap2\n      pop\n      0x00\n      dup3\n      add\n      mload\n      dup2\n      0x00\n      add\n      sstore\n      0x20\n      dup3\n      add\n      mload\n      dup2\n      0x01\n      add\n      swap1\n      dup2\n      tag_76\n      swap2\n      swap1\n      tag_77\n      jump\t// in\n    tag_76:\n      pop\n      0x40\n      dup3\n      add\n      mload\n      dup2\n      0x02\n      add\n      sstore\n      pop\n      pop\n        /* \"Voting.sol\":779:796  candidatesCounter */\n      0x01\n      0x00\n        /* \"Voting.sol\":779:798  candidatesCounter++ */\n      dup2\n      sload\n      dup1\n      swap3\n      swap2\n      swap1\n      tag_78\n      swap1\n      tag_57\n      jump\t// in\n    tag_78:\n      swap2\n      swap1\n      pop\n      sstore\n      pop\n        /* \"Voting.sol\":576:805  {... */\n      pop\n        /* \"Voting.sol\":518:805  function addCandidate(string memory candidateName) public {... */\n      pop\n      jump\t// out\n        /* \"Voting.sol\":334:373  mapping(address => Voter) public voters */\n    tag_34:\n      mstore(0x20, 0x04)\n      dup1\n      0x00\n      mstore\n      keccak256(0x00, 0x40)\n      0x00\n      swap2\n      pop\n      swap1\n      pop\n      dup1\n      0x00\n      add\n      0x00\n      swap1\n      sload\n      swap1\n      0x0100\n      exp\n      swap1\n      div\n      0xff\n      and\n      swap1\n      pop\n      dup2\n      jump\t// out\n        /* \"Voting.sol\":1232:1628  function winner() public onlyOwner view returns (Candidate memory) {... */\n    tag_38:\n        /* \"Voting.sol\":1281:1297  Candidate memory */\n      tag_79\n      tag_80\n      jump\t// in\n    tag_79:\n        /* \"Voting.sol\":1683:1693  msg.sender */\n      caller\n        /* \"Voting.sol\":1674:1693  owner == msg.sender */\n      0xffffffffffffffffffffffffffffffffffffffff\n      and\n        /* \"Voting.sol\":1674:1679  owner */\n      0x00\n      dup1\n      sload\n      swap1\n      0x0100\n      exp\n      swap1\n      div\n      0xffffffffffffffffffffffffffffffffffffffff\n      and\n        /* \"Voting.sol\":1674:1693  owner == msg.sender */\n      0xffffffffffffffffffffffffffffffffffffffff\n      and\n      eq\n        /* \"Voting.sol\":1666:1707  require(owner == msg.sender, \"Not owner\") */\n      tag_82\n      jumpi\n      mload(0x40)\n      0x08c379a000000000000000000000000000000000000000000000000000000000\n      dup2\n      mstore\n      0x04\n      add\n      tag_83\n      swap1\n      tag_84\n      jump\t// in\n    tag_83:\n      mload(0x40)\n      dup1\n      swap2\n      sub\n      swap1\n      revert\n    tag_82:\n        /* \"Voting.sol\":1309:1332  Candidate memory winner */\n      0x00\n        /* \"Voting.sol\":1335:1345  candidates */\n      0x03\n        /* \"Voting.sol\":1346:1347  0 */\n      0x00\n        /* \"Voting.sol\":1335:1348  candidates[0] */\n      dup2\n      sload\n      dup2\n      lt\n      tag_86\n      jumpi\n      tag_87\n      tag_50\n      jump\t// in\n    tag_87:\n    tag_86:\n      swap1\n      0x00\n      mstore\n      keccak256(0x00, 0x20)\n      swap1\n      0x03\n      mul\n      add\n        /* \"Voting.sol\":1309:1348  Candidate memory winner = candidates[0] */\n      mload(0x40)\n      dup1\n      0x60\n      add\n      0x40\n      mstore\n      swap1\n      dup2\n      0x00\n      dup3\n      add\n      sload\n      dup2\n      mstore\n      0x20\n      add\n      0x01\n      dup3\n      add\n      dup1\n      sload\n      tag_89\n      swap1\n      tag_64\n      jump\t// in\n    tag_89:\n      dup1\n      0x1f\n      add\n      0x20\n      dup1\n      swap2\n      div\n      mul\n      0x20\n      add\n      mload(0x40)\n      swap1\n      dup2\n      add\n      0x40\n      mstore\n      dup1\n      swap3\n      swap2\n      swap1\n      dup2\n      dup2\n      mstore\n      0x20\n      add\n      dup3\n      dup1\n      sload\n      tag_90\n      swap1\n      tag_64\n      jump\t// in\n    tag_90:\n      dup1\n      iszero\n      tag_91\n      jumpi\n      dup1\n      0x1f\n      lt\n      tag_92\n      jumpi\n      0x0100\n      dup1\n      dup4\n      sload\n      div\n      mul\n      dup4\n      mstore\n      swap2\n      0x20\n      add\n      swap2\n      jump(tag_91)\n    tag_92:\n      dup3\n      add\n      swap2\n      swap1\n      0x00\n      mstore\n      keccak256(0x00, 0x20)\n      swap1\n    tag_93:\n      dup2\n      sload\n      dup2\n      mstore\n      swap1\n      0x01\n      add\n      swap1\n      0x20\n      add\n      dup1\n      dup4\n      gt\n      tag_93\n      jumpi\n      dup3\n      swap1\n      sub\n      0x1f\n      and\n      dup3\n      add\n      swap2\n    tag_91:\n      pop\n      pop\n      pop\n      pop\n      pop\n      dup2\n      mstore\n      0x20\n      add\n      0x02\n      dup3\n      add\n      sload\n      dup2\n      mstore\n      pop\n      pop\n      swap1\n      pop\n        /* \"Voting.sol\":1358:1382  uint256 candidatesLength */\n      0x00\n        /* \"Voting.sol\":1385:1395  candidates */\n      0x03\n        /* \"Voting.sol\":1385:1402  candidates.length */\n      dup1\n      sload\n      swap1\n      pop\n        /* \"Voting.sol\":1358:1402  uint256 candidatesLength = candidates.length */\n      swap1\n      pop\n        /* \"Voting.sol\":1417:1426  uint256 i */\n      0x00\n        /* \"Voting.sol\":1427:1428  1 */\n      0x01\n        /* \"Voting.sol\":1417:1428  uint256 i=1 */\n      swap1\n      pop\n        /* \"Voting.sol\":1412:1598  for (uint256 i=1; i < candidatesLength;) {... */\n    tag_94:\n        /* \"Voting.sol\":1434:1450  candidatesLength */\n      dup2\n        /* \"Voting.sol\":1430:1431  i */\n      dup2\n        /* \"Voting.sol\":1430:1450  i < candidatesLength */\n      lt\n        /* \"Voting.sol\":1412:1598  for (uint256 i=1; i < candidatesLength;) {... */\n      iszero\n      tag_95\n      jumpi\n        /* \"Voting.sol\":1486:1496  candidates */\n      0x03\n        /* \"Voting.sol\":1497:1498  i */\n      dup2\n        /* \"Voting.sol\":1486:1499  candidates[i] */\n      dup2\n      sload\n      dup2\n      lt\n      tag_97\n      jumpi\n      tag_98\n      tag_50\n      jump\t// in\n    tag_98:\n    tag_97:\n      swap1\n      0x00\n      mstore\n      keccak256(0x00, 0x20)\n      swap1\n      0x03\n      mul\n      add\n        /* \"Voting.sol\":1486:1505  candidates[i].votes */\n      0x02\n      add\n      sload\n        /* \"Voting.sol\":1471:1477  winner */\n      dup4\n        /* \"Voting.sol\":1471:1483  winner.votes */\n      0x40\n      add\n      mload\n        /* \"Voting.sol\":1471:1505  winner.votes < candidates[i].votes */\n      lt\n        /* \"Voting.sol\":1467:1562  if (winner.votes < candidates[i].votes) {... */\n      iszero\n      tag_100\n      jumpi\n        /* \"Voting.sol\":1534:1544  candidates */\n      0x03\n        /* \"Voting.sol\":1545:1546  i */\n      dup2\n        /* \"Voting.sol\":1534:1547  candidates[i] */\n      dup2\n      sload\n      dup2\n      lt\n      tag_101\n      jumpi\n      tag_102\n      tag_50\n      jump\t// in\n    tag_102:\n    tag_101:\n      swap1\n      0x00\n      mstore\n      keccak256(0x00, 0x20)\n      swap1\n      0x03\n      mul\n      add\n        /* \"Voting.sol\":1525:1547  winner = candidates[i] */\n      mload(0x40)\n      dup1\n      0x60\n      add\n      0x40\n      mstore\n      swap1\n      dup2\n      0x00\n      dup3\n      add\n      sload\n      dup2\n      mstore\n      0x20\n      add\n      0x01\n      dup3\n      add\n      dup1\n      sload\n      tag_104\n      swap1\n      tag_64\n      jump\t// in\n    tag_104:\n      dup1\n      0x1f\n      add\n      0x20\n      dup1\n      swap2\n      div\n      mul\n      0x20\n      add\n      mload(0x40)\n      swap1\n      dup2\n      add\n      0x40\n      mstore\n      dup1\n      swap3\n      swap2\n      swap1\n      dup2\n      dup2\n      mstore\n      0x20\n      add\n      dup3\n      dup1\n      sload\n      tag_105\n      swap1\n      tag_64\n      jump\t// in\n    tag_105:\n      dup1\n      iszero\n      tag_106\n      jumpi\n      dup1\n      0x1f\n      lt\n      tag_107\n      jumpi\n      0x0100\n      dup1\n      dup4\n      sload\n      div\n      mul\n      dup4\n      mstore\n      swap2\n      0x20\n      add\n      swap2\n      jump(tag_106)\n    tag_107:\n      dup3\n      add\n      swap2\n      swap1\n      0x00\n      mstore\n      keccak256(0x00, 0x20)\n      swap1\n    tag_108:\n      dup2\n      sload\n      dup2\n      mstore\n      swap1\n      0x01\n      add\n      swap1\n      0x20\n      add\n      dup1\n      dup4\n      gt\n      tag_108\n      jumpi\n      dup3\n      swap1\n      sub\n      0x1f\n      and\n      dup3\n      add\n      swap2\n    tag_106:\n      pop\n      pop\n      pop\n      pop\n      pop\n      dup2\n      mstore\n      0x20\n      add\n      0x02\n      dup3\n      add\n      sload\n      dup2\n      mstore\n      pop\n      pop\n      swap3\n      pop\n        /* \"Voting.sol\":1467:1562  if (winner.votes < candidates[i].votes) {... */\n    tag_100:\n        /* \"Voting.sol\":1582:1585  i++ */\n      dup1\n      dup1\n      0x01\n      add\n      swap2\n      pop\n      pop\n        /* \"Voting.sol\":1412:1598  for (uint256 i=1; i < candidatesLength;) {... */\n      jump(tag_94)\n    tag_95:\n      pop\n        /* \"Voting.sol\":1615:1621  winner */\n      dup2\n        /* \"Voting.sol\":1608:1621  return winner */\n      swap3\n      pop\n      pop\n      pop\n        /* \"Voting.sol\":1232:1628  function winner() public onlyOwner view returns (Candidate memory) {... */\n      swap1\n      jump\t// out\n    tag_80:\n      mload(0x40)\n      dup1\n      0x60\n      add\n      0x40\n      mstore\n      dup1\n      0x00\n      dup2\n      mstore\n      0x20\n      add\n      0x60\n      dup2\n      mstore\n      0x20\n      add\n      0x00\n      dup2\n      mstore\n      pop\n      swap1\n      jump\t// out\n        /* \"#utility.yul\":7:82   */\n    tag_109:\n        /* \"#utility.yul\":40:46   */\n      0x00\n        /* \"#utility.yul\":73:75   */\n      0x40\n        /* \"#utility.yul\":67:76   */\n      mload\n        /* \"#utility.yul\":57:76   */\n      swap1\n      pop\n        /* \"#utility.yul\":7:82   */\n      swap1\n      jump\t// out\n        /* \"#utility.yul\":88:205   */\n    tag_110:\n        /* \"#utility.yul\":197:198   */\n      0x00\n        /* \"#utility.yul\":194:195   */\n      dup1\n        /* \"#utility.yul\":187:199   */\n      revert\n        /* \"#utility.yul\":211:328   */\n    tag_111:\n        /* \"#utility.yul\":320:321   */\n      0x00\n        /* \"#utility.yul\":317:318   */\n      dup1\n        /* \"#utility.yul\":310:322   */\n      revert\n        /* \"#utility.yul\":334:411   */\n    tag_112:\n        /* \"#utility.yul\":371:378   */\n      0x00\n        /* \"#utility.yul\":400:405   */\n      dup2\n        /* \"#utility.yul\":389:405   */\n      swap1\n      pop\n        /* \"#utility.yul\":334:411   */\n      swap2\n      swap1\n      pop\n      jump\t// out\n        /* \"#utility.yul\":417:539   */\n    tag_113:\n        /* \"#utility.yul\":490:514   */\n      tag_174\n        /* \"#utility.yul\":508:513   */\n      dup2\n        /* \"#utility.yul\":490:514   */\n      tag_112\n      jump\t// in\n    tag_174:\n        /* \"#utility.yul\":483:488   */\n      dup2\n        /* \"#utility.yul\":480:515   */\n      eq\n        /* \"#utility.yul\":470:533   */\n      tag_175\n      jumpi\n        /* \"#utility.yul\":529:530   */\n      0x00\n        /* \"#utility.yul\":526:527   */\n      dup1\n        /* \"#utility.yul\":519:531   */\n      revert\n        /* \"#utility.yul\":470:533   */\n    tag_175:\n        /* \"#utility.yul\":417:539   */\n      pop\n      jump\t// out\n        /* \"#utility.yul\":545:684   */\n    tag_114:\n        /* \"#utility.yul\":591:596   */\n      0x00\n        /* \"#utility.yul\":629:635   */\n      dup2\n        /* \"#utility.yul\":616:636   */\n      calldataload\n        /* \"#utility.yul\":607:636   */\n      swap1\n      pop\n        /* \"#utility.yul\":645:678   */\n      tag_177\n        /* \"#utility.yul\":672:677   */\n      dup2\n        /* \"#utility.yul\":645:678   */\n      tag_113\n      jump\t// in\n    tag_177:\n        /* \"#utility.yul\":545:684   */\n      swap3\n      swap2\n      pop\n      pop\n      jump\t// out\n        /* \"#utility.yul\":690:1019   */\n    tag_13:\n        /* \"#utility.yul\":749:755   */\n      0x00\n        /* \"#utility.yul\":798:800   */\n      0x20\n        /* \"#utility.yul\":786:795   */\n      dup3\n        /* \"#utility.yul\":777:784   */\n      dup5\n        /* \"#utility.yul\":773:796   */\n      sub\n        /* \"#utility.yul\":769:801   */\n      slt\n        /* \"#utility.yul\":766:885   */\n      iszero\n      tag_179\n      jumpi\n        /* \"#utility.yul\":804:883   */\n      tag_180\n      tag_110\n      jump\t// in\n    tag_180:\n        /* \"#utility.yul\":766:885   */\n    tag_179:\n        /* \"#utility.yul\":924:925   */\n      0x00\n        /* \"#utility.yul\":949:1002   */\n      tag_181\n        /* \"#utility.yul\":994:1001   */\n      dup5\n        /* \"#utility.yul\":985:991   */\n      dup3\n        /* \"#utility.yul\":974:983   */\n      dup6\n        /* \"#utility.yul\":970:992   */\n      add\n        /* \"#utility.yul\":949:1002   */\n      tag_114\n      jump\t// in\n    tag_181:\n        /* \"#utility.yul\":939:1002   */\n      swap2\n      pop\n        /* \"#utility.yul\":895:1012   */\n      pop\n        /* \"#utility.yul\":690:1019   */\n      swap3\n      swap2\n      pop\n      pop\n      jump\t// out\n        /* \"#utility.yul\":1025:1163   */\n    tag_115:\n        /* \"#utility.yul\":1116:1122   */\n      0x00\n        /* \"#utility.yul\":1150:1155   */\n      dup2\n        /* \"#utility.yul\":1144:1156   */\n      mload\n        /* \"#utility.yul\":1134:1156   */\n      swap1\n      pop\n        /* \"#utility.yul\":1025:1163   */\n      swap2\n      swap1\n      pop\n      jump\t// out\n        /* \"#utility.yul\":1169:1377   */\n    tag_116:\n        /* \"#utility.yul\":1292:1303   */\n      0x00\n        /* \"#utility.yul\":1326:1332   */\n      dup3\n        /* \"#utility.yul\":1321:1324   */\n      dup3\n        /* \"#utility.yul\":1314:1333   */\n      mstore\n        /* \"#utility.yul\":1366:1370   */\n      0x20\n        /* \"#utility.yul\":1361:1364   */\n      dup3\n        /* \"#utility.yul\":1357:1371   */\n      add\n        /* \"#utility.yul\":1342:1371   */\n      swap1\n      pop\n        /* \"#utility.yul\":1169:1377   */\n      swap3\n      swap2\n      pop\n      pop\n      jump\t// out\n        /* \"#utility.yul\":1383:1539   */\n    tag_117:\n        /* \"#utility.yul\":1474:1478   */\n      0x00\n        /* \"#utility.yul\":1497:1500   */\n      dup2\n        /* \"#utility.yul\":1489:1500   */\n      swap1\n      pop\n        /* \"#utility.yul\":1527:1531   */\n      0x20\n        /* \"#utility.yul\":1522:1525   */\n      dup3\n        /* \"#utility.yul\":1518:1532   */\n      add\n        /* \"#utility.yul\":1510:1532   */\n      swap1\n      pop\n        /* \"#utility.yul\":1383:1539   */\n      swap2\n      swap1\n      pop\n      jump\t// out\n        /* \"#utility.yul\":1545:1653   */\n    tag_118:\n        /* \"#utility.yul\":1622:1646   */\n      tag_186\n        /* \"#utility.yul\":1640:1645   */\n      dup2\n        /* \"#utility.yul\":1622:1646   */\n      tag_112\n      jump\t// in\n    tag_186:\n        /* \"#utility.yul\":1617:1620   */\n      dup3\n        /* \"#utility.yul\":1610:1647   */\n      mstore\n        /* \"#utility.yul\":1545:1653   */\n      pop\n      pop\n      jump\t// out\n        /* \"#utility.yul\":1659:1758   */\n    tag_119:\n        /* \"#utility.yul\":1711:1717   */\n      0x00\n        /* \"#utility.yul\":1745:1750   */\n      dup2\n        /* \"#utility.yul\":1739:1751   */\n      mload\n        /* \"#utility.yul\":1729:1751   */\n      swap1\n      pop\n        /* \"#utility.yul\":1659:1758   */\n      swap2\n      swap1\n      pop\n      jump\t// out\n        /* \"#utility.yul\":1764:1923   */\n    tag_120:\n        /* \"#utility.yul\":1838:1849   */\n      0x00\n        /* \"#utility.yul\":1872:1878   */\n      dup3\n        /* \"#utility.yul\":1867:1870   */\n      dup3\n        /* \"#utility.yul\":1860:1879   */\n      mstore\n        /* \"#utility.yul\":1912:1916   */\n      0x20\n        /* \"#utility.yul\":1907:1910   */\n      dup3\n        /* \"#utility.yul\":1903:1917   */\n      add\n        /* \"#utility.yul\":1888:1917   */\n      swap1\n      pop\n        /* \"#utility.yul\":1764:1923   */\n      swap3\n      swap2\n      pop\n      pop\n      jump\t// out\n        /* \"#utility.yul\":1929:2175   */\n    tag_121:\n        /* \"#utility.yul\":2010:2011   */\n      0x00\n        /* \"#utility.yul\":2020:2133   */\n    tag_190:\n        /* \"#utility.yul\":2034:2040   */\n      dup4\n        /* \"#utility.yul\":2031:2032   */\n      dup2\n        /* \"#utility.yul\":2028:2041   */\n      lt\n        /* \"#utility.yul\":2020:2133   */\n      iszero\n      tag_192\n      jumpi\n        /* \"#utility.yul\":2119:2120   */\n      dup1\n        /* \"#utility.yul\":2114:2117   */\n      dup3\n        /* \"#utility.yul\":2110:2121   */\n      add\n        /* \"#utility.yul\":2104:2122   */\n      mload\n        /* \"#utility.yul\":2100:2101   */\n      dup2\n        /* \"#utility.yul\":2095:2098   */\n      dup5\n        /* \"#utility.yul\":2091:2102   */\n      add\n        /* \"#utility.yul\":2084:2123   */\n      mstore\n        /* \"#utility.yul\":2056:2058   */\n      0x20\n        /* \"#utility.yul\":2053:2054   */\n      dup2\n        /* \"#utility.yul\":2049:2059   */\n      add\n        /* \"#utility.yul\":2044:2059   */\n      swap1\n      pop\n        /* \"#utility.yul\":2020:2133   */\n      jump(tag_190)\n    tag_192:\n        /* \"#utility.yul\":2167:2168   */\n      0x00\n        /* \"#utility.yul\":2158:2164   */\n      dup5\n        /* \"#utility.yul\":2153:2156   */\n      dup5\n        /* \"#utility.yul\":2149:2165   */\n      add\n        /* \"#utility.yul\":2142:2169   */\n      mstore\n        /* \"#utility.yul\":1991:2175   */\n      pop\n        /* \"#utility.yul\":1929:2175   */\n      pop\n      pop\n      pop\n      jump\t// out\n        /* \"#utility.yul\":2181:2283   */\n    tag_122:\n        /* \"#utility.yul\":2222:2228   */\n      0x00\n        /* \"#utility.yul\":2273:2275   */\n      0x1f\n        /* \"#utility.yul\":2269:2276   */\n      not\n        /* \"#utility.yul\":2264:2266   */\n      0x1f\n        /* \"#utility.yul\":2257:2262   */\n      dup4\n        /* \"#utility.yul\":2253:2267   */\n      add\n        /* \"#utility.yul\":2249:2277   */\n      and\n        /* \"#utility.yul\":2239:2277   */\n      swap1\n      pop\n        /* \"#utility.yul\":2181:2283   */\n      swap2\n      swap1\n      pop\n      jump\t// out\n        /* \"#utility.yul\":2289:2646   */\n    tag_123:\n        /* \"#utility.yul\":2367:2370   */\n      0x00\n        /* \"#utility.yul\":2395:2434   */\n      tag_195\n        /* \"#utility.yul\":2428:2433   */\n      dup3\n        /* \"#utility.yul\":2395:2434   */\n      tag_119\n      jump\t// in\n    tag_195:\n        /* \"#utility.yul\":2450:2511   */\n      tag_196\n        /* \"#utility.yul\":2504:2510   */\n      dup2\n        /* \"#utility.yul\":2499:2502   */\n      dup6\n        /* \"#utility.yul\":2450:2511   */\n      tag_120\n      jump\t// in\n    tag_196:\n        /* \"#utility.yul\":2443:2511   */\n      swap4\n      pop\n        /* \"#utility.yul\":2520:2585   */\n      tag_197\n        /* \"#utility.yul\":2578:2584   */\n      dup2\n        /* \"#utility.yul\":2573:2576   */\n      dup6\n        /* \"#utility.yul\":2566:2570   */\n      0x20\n        /* \"#utility.yul\":2559:2564   */\n      dup7\n        /* \"#utility.yul\":2555:2571   */\n      add\n        /* \"#utility.yul\":2520:2585   */\n      tag_121\n      jump\t// in\n    tag_197:\n        /* \"#utility.yul\":2610:2639   */\n      tag_198\n        /* \"#utility.yul\":2632:2638   */\n      dup2\n        /* \"#utility.yul\":2610:2639   */\n      tag_122\n      jump\t// in\n    tag_198:\n        /* \"#utility.yul\":2605:2608   */\n      dup5\n        /* \"#utility.yul\":2601:2640   */\n      add\n        /* \"#utility.yul\":2594:2640   */\n      swap2\n      pop\n        /* \"#utility.yul\":2371:2646   */\n      pop\n        /* \"#utility.yul\":2289:2646   */\n      swap3\n      swap2\n      pop\n      pop\n      jump\t// out\n        /* \"#utility.yul\":2710:3477   */\n    tag_124:\n        /* \"#utility.yul\":2817:2820   */\n      0x00\n        /* \"#utility.yul\":2853:2857   */\n      0x60\n        /* \"#utility.yul\":2848:2851   */\n      dup4\n        /* \"#utility.yul\":2844:2858   */\n      add\n        /* \"#utility.yul\":2938:2942   */\n      0x00\n        /* \"#utility.yul\":2931:2936   */\n      dup4\n        /* \"#utility.yul\":2927:2943   */\n      add\n        /* \"#utility.yul\":2921:2944   */\n      mload\n        /* \"#utility.yul\":2957:3020   */\n      tag_200\n        /* \"#utility.yul\":3014:3018   */\n      0x00\n        /* \"#utility.yul\":3009:3012   */\n      dup7\n        /* \"#utility.yul\":3005:3019   */\n      add\n        /* \"#utility.yul\":2991:3003   */\n      dup3\n        /* \"#utility.yul\":2957:3020   */\n      tag_118\n      jump\t// in\n    tag_200:\n        /* \"#utility.yul\":2868:3030   */\n      pop\n        /* \"#utility.yul\":3112:3116   */\n      0x20\n        /* \"#utility.yul\":3105:3110   */\n      dup4\n        /* \"#utility.yul\":3101:3117   */\n      add\n        /* \"#utility.yul\":3095:3118   */\n      mload\n        /* \"#utility.yul\":3165:3168   */\n      dup5\n        /* \"#utility.yul\":3159:3163   */\n      dup3\n        /* \"#utility.yul\":3155:3169   */\n      sub\n        /* \"#utility.yul\":3148:3152   */\n      0x20\n        /* \"#utility.yul\":3143:3146   */\n      dup7\n        /* \"#utility.yul\":3139:3153   */\n      add\n        /* \"#utility.yul\":3132:3170   */\n      mstore\n        /* \"#utility.yul\":3191:3264   */\n      tag_201\n        /* \"#utility.yul\":3259:3263   */\n      dup3\n        /* \"#utility.yul\":3245:3257   */\n      dup3\n        /* \"#utility.yul\":3191:3264   */\n      tag_123\n      jump\t// in\n    tag_201:\n        /* \"#utility.yul\":3183:3264   */\n      swap2\n      pop\n        /* \"#utility.yul\":3040:3275   */\n      pop\n        /* \"#utility.yul\":3358:3362   */\n      0x40\n        /* \"#utility.yul\":3351:3356   */\n      dup4\n        /* \"#utility.yul\":3347:3363   */\n      add\n        /* \"#utility.yul\":3341:3364   */\n      mload\n        /* \"#utility.yul\":3377:3440   */\n      tag_202\n        /* \"#utility.yul\":3434:3438   */\n      0x40\n        /* \"#utility.yul\":3429:3432   */\n      dup7\n        /* \"#utility.yul\":3425:3439   */\n      add\n        /* \"#utility.yul\":3411:3423   */\n      dup3\n        /* \"#utility.yul\":3377:3440   */\n      tag_118\n      jump\t// in\n    tag_202:\n        /* \"#utility.yul\":3285:3450   */\n      pop\n        /* \"#utility.yul\":3467:3471   */\n      dup1\n        /* \"#utility.yul\":3460:3471   */\n      swap2\n      pop\n        /* \"#utility.yul\":2822:3477   */\n      pop\n        /* \"#utility.yul\":2710:3477   */\n      swap3\n      swap2\n      pop\n      pop\n      jump\t// out\n        /* \"#utility.yul\":3483:3735   */\n    tag_125:\n        /* \"#utility.yul\":3600:3610   */\n      0x00\n        /* \"#utility.yul\":3635:3729   */\n      tag_204\n        /* \"#utility.yul\":3725:3728   */\n      dup4\n        /* \"#utility.yul\":3717:3723   */\n      dup4\n        /* \"#utility.yul\":3635:3729   */\n      tag_124\n      jump\t// in\n    tag_204:\n        /* \"#utility.yul\":3621:3729   */\n      swap1\n      pop\n        /* \"#utility.yul\":3483:3735   */\n      swap3\n      swap2\n      pop\n      pop\n      jump\t// out\n        /* \"#utility.yul\":3741:3878   */\n    tag_126:\n        /* \"#utility.yul\":3835:3839   */\n      0x00\n        /* \"#utility.yul\":3867:3871   */\n      0x20\n        /* \"#utility.yul\":3862:3865   */\n      dup3\n        /* \"#utility.yul\":3858:3872   */\n      add\n        /* \"#utility.yul\":3850:3872   */\n      swap1\n      pop\n        /* \"#utility.yul\":3741:3878   */\n      swap2\n      swap1\n      pop\n      jump\t// out\n        /* \"#utility.yul\":3946:5049   */\n    tag_127:\n        /* \"#utility.yul\":4113:4116   */\n      0x00\n        /* \"#utility.yul\":4142:4220   */\n      tag_207\n        /* \"#utility.yul\":4214:4219   */\n      dup3\n        /* \"#utility.yul\":4142:4220   */\n      tag_115\n      jump\t// in\n    tag_207:\n        /* \"#utility.yul\":4236:4346   */\n      tag_208\n        /* \"#utility.yul\":4339:4345   */\n      dup2\n        /* \"#utility.yul\":4334:4337   */\n      dup6\n        /* \"#utility.yul\":4236:4346   */\n      tag_116\n      jump\t// in\n    tag_208:\n        /* \"#utility.yul\":4229:4346   */\n      swap4\n      pop\n        /* \"#utility.yul\":4372:4375   */\n      dup4\n        /* \"#utility.yul\":4417:4421   */\n      0x20\n        /* \"#utility.yul\":4409:4415   */\n      dup3\n        /* \"#utility.yul\":4405:4422   */\n      mul\n        /* \"#utility.yul\":4400:4403   */\n      dup6\n        /* \"#utility.yul\":4396:4423   */\n      add\n        /* \"#utility.yul\":4447:4527   */\n      tag_209\n        /* \"#utility.yul\":4521:4526   */\n      dup6\n        /* \"#utility.yul\":4447:4527   */\n      tag_117\n      jump\t// in\n    tag_209:\n        /* \"#utility.yul\":4550:4557   */\n      dup1\n        /* \"#utility.yul\":4581:4582   */\n      0x00\n        /* \"#utility.yul\":4566:5004   */\n    tag_210:\n        /* \"#utility.yul\":4591:4597   */\n      dup6\n        /* \"#utility.yul\":4588:4589   */\n      dup2\n        /* \"#utility.yul\":4585:4598   */\n      lt\n        /* \"#utility.yul\":4566:5004   */\n      iszero\n      tag_212\n      jumpi\n        /* \"#utility.yul\":4662:4671   */\n      dup5\n        /* \"#utility.yul\":4656:4660   */\n      dup5\n        /* \"#utility.yul\":4652:4672   */\n      sub\n        /* \"#utility.yul\":4647:4650   */\n      dup10\n        /* \"#utility.yul\":4640:4673   */\n      mstore\n        /* \"#utility.yul\":4713:4719   */\n      dup2\n        /* \"#utility.yul\":4707:4720   */\n      mload\n        /* \"#utility.yul\":4741:4853   */\n      tag_213\n        /* \"#utility.yul\":4848:4852   */\n      dup6\n        /* \"#utility.yul\":4833:4846   */\n      dup3\n        /* \"#utility.yul\":4741:4853   */\n      tag_125\n      jump\t// in\n    tag_213:\n        /* \"#utility.yul\":4733:4853   */\n      swap5\n      pop\n        /* \"#utility.yul\":4876:4960   */\n      tag_214\n        /* \"#utility.yul\":4953:4959   */\n      dup4\n        /* \"#utility.yul\":4876:4960   */\n      tag_126\n      jump\t// in\n    tag_214:\n        /* \"#utility.yul\":4866:4960   */\n      swap3\n      pop\n        /* \"#utility.yul\":4989:4993   */\n      0x20\n        /* \"#utility.yul\":4984:4987   */\n      dup11\n        /* \"#utility.yul\":4980:4994   */\n      add\n        /* \"#utility.yul\":4973:4994   */\n      swap10\n      pop\n        /* \"#utility.yul\":4626:5004   */\n      pop\n        /* \"#utility.yul\":4613:4614   */\n      0x01\n        /* \"#utility.yul\":4610:4611   */\n      dup2\n        /* \"#utility.yul\":4606:4615   */\n      add\n        /* \"#utility.yul\":4601:4615   */\n      swap1\n      pop\n        /* \"#utility.yul\":4566:5004   */\n      jump(tag_210)\n    tag_212:\n        /* \"#utility.yul\":4570:4584   */\n      pop\n        /* \"#utility.yul\":5020:5024   */\n      dup3\n        /* \"#utility.yul\":5013:5024   */\n      swap8\n      pop\n        /* \"#utility.yul\":5040:5043   */\n      dup8\n        /* \"#utility.yul\":5033:5043   */\n      swap6\n      pop\n        /* \"#utility.yul\":4118:5049   */\n      pop\n      pop\n      pop\n      pop\n      pop\n        /* \"#utility.yul\":3946:5049   */\n      swap3\n      swap2\n      pop\n      pop\n      jump\t// out\n        /* \"#utility.yul\":5055:5524   */\n    tag_18:\n        /* \"#utility.yul\":5246:5250   */\n      0x00\n        /* \"#utility.yul\":5284:5286   */\n      0x20\n        /* \"#utility.yul\":5273:5282   */\n      dup3\n        /* \"#utility.yul\":5269:5287   */\n      add\n        /* \"#utility.yul\":5261:5287   */\n      swap1\n      pop\n        /* \"#utility.yul\":5333:5342   */\n      dup2\n        /* \"#utility.yul\":5327:5331   */\n      dup2\n        /* \"#utility.yul\":5323:5343   */\n      sub\n        /* \"#utility.yul\":5319:5320   */\n      0x00\n        /* \"#utility.yul\":5308:5317   */\n      dup4\n        /* \"#utility.yul\":5304:5321   */\n      add\n        /* \"#utility.yul\":5297:5344   */\n      mstore\n        /* \"#utility.yul\":5361:5517   */\n      tag_216\n        /* \"#utility.yul\":5512:5516   */\n      dup2\n        /* \"#utility.yul\":5503:5509   */\n      dup5\n        /* \"#utility.yul\":5361:5517   */\n      tag_127\n      jump\t// in\n    tag_216:\n        /* \"#utility.yul\":5353:5517   */\n      swap1\n      pop\n        /* \"#utility.yul\":5055:5524   */\n      swap3\n      swap2\n      pop\n      pop\n      jump\t// out\n        /* \"#utility.yul\":5530:5699   */\n    tag_128:\n        /* \"#utility.yul\":5614:5625   */\n      0x00\n        /* \"#utility.yul\":5648:5654   */\n      dup3\n        /* \"#utility.yul\":5643:5646   */\n      dup3\n        /* \"#utility.yul\":5636:5655   */\n      mstore\n        /* \"#utility.yul\":5688:5692   */\n      0x20\n        /* \"#utility.yul\":5683:5686   */\n      dup3\n        /* \"#utility.yul\":5679:5693   */\n      add\n        /* \"#utility.yul\":5664:5693   */\n      swap1\n      pop\n        /* \"#utility.yul\":5530:5699   */\n      swap3\n      swap2\n      pop\n      pop\n      jump\t// out\n        /* \"#utility.yul\":5705:6082   */\n    tag_129:\n        /* \"#utility.yul\":5793:5796   */\n      0x00\n        /* \"#utility.yul\":5821:5860   */\n      tag_219\n        /* \"#utility.yul\":5854:5859   */\n      dup3\n        /* \"#utility.yul\":5821:5860   */\n      tag_119\n      jump\t// in\n    tag_219:\n        /* \"#utility.yul\":5876:5947   */\n      tag_220\n        /* \"#utility.yul\":5940:5946   */\n      dup2\n        /* \"#utility.yul\":5935:5938   */\n      dup6\n        /* \"#utility.yul\":5876:5947   */\n      tag_128\n      jump\t// in\n    tag_220:\n        /* \"#utility.yul\":5869:5947   */\n      swap4\n      pop\n        /* \"#utility.yul\":5956:6021   */\n      tag_221\n        /* \"#utility.yul\":6014:6020   */\n      dup2\n        /* \"#utility.yul\":6009:6012   */\n      dup6\n        /* \"#utility.yul\":6002:6006   */\n      0x20\n        /* \"#utility.yul\":5995:6000   */\n      dup7\n        /* \"#utility.yul\":5991:6007   */\n      add\n        /* \"#utility.yul\":5956:6021   */\n      tag_121\n      jump\t// in\n    tag_221:\n        /* \"#utility.yul\":6046:6075   */\n      tag_222\n        /* \"#utility.yul\":6068:6074   */\n      dup2\n        /* \"#utility.yul\":6046:6075   */\n      tag_122\n      jump\t// in\n    tag_222:\n        /* \"#utility.yul\":6041:6044   */\n      dup5\n        /* \"#utility.yul\":6037:6076   */\n      add\n        /* \"#utility.yul\":6030:6076   */\n      swap2\n      pop\n        /* \"#utility.yul\":5797:6082   */\n      pop\n        /* \"#utility.yul\":5705:6082   */\n      swap3\n      swap2\n      pop\n      pop\n      jump\t// out\n        /* \"#utility.yul\":6088:6401   */\n    tag_22:\n        /* \"#utility.yul\":6201:6205   */\n      0x00\n        /* \"#utility.yul\":6239:6241   */\n      0x20\n        /* \"#utility.yul\":6228:6237   */\n      dup3\n        /* \"#utility.yul\":6224:6242   */\n      add\n        /* \"#utility.yul\":6216:6242   */\n      swap1\n      pop\n        /* \"#utility.yul\":6288:6297   */\n      dup2\n        /* \"#utility.yul\":6282:6286   */\n      dup2\n        /* \"#utility.yul\":6278:6298   */\n      sub\n        /* \"#utility.yul\":6274:6275   */\n      0x00\n        /* \"#utility.yul\":6263:6272   */\n      dup4\n        /* \"#utility.yul\":6259:6276   */\n      add\n        /* \"#utility.yul\":6252:6299   */\n      mstore\n        /* \"#utility.yul\":6316:6394   */\n      tag_224\n        /* \"#utility.yul\":6389:6393   */\n      dup2\n        /* \"#utility.yul\":6380:6386   */\n      dup5\n        /* \"#utility.yul\":6316:6394   */\n      tag_129\n      jump\t// in\n    tag_224:\n        /* \"#utility.yul\":6308:6394   */\n      swap1\n      pop\n        /* \"#utility.yul\":6088:6401   */\n      swap3\n      swap2\n      pop\n      pop\n      jump\t// out\n        /* \"#utility.yul\":6407:6525   */\n    tag_130:\n        /* \"#utility.yul\":6494:6518   */\n      tag_226\n        /* \"#utility.yul\":6512:6517   */\n      dup2\n        /* \"#utility.yul\":6494:6518   */\n      tag_112\n      jump\t// in\n    tag_226:\n        /* \"#utility.yul\":6489:6492   */\n      dup3\n        /* \"#utility.yul\":6482:6519   */\n      mstore\n        /* \"#utility.yul\":6407:6525   */\n      pop\n      pop\n      jump\t// out\n        /* \"#utility.yul\":6531:6753   */\n    tag_26:\n        /* \"#utility.yul\":6624:6628   */\n      0x00\n        /* \"#utility.yul\":6662:6664   */\n      0x20\n        /* \"#utility.yul\":6651:6660   */\n      dup3\n        /* \"#utility.yul\":6647:6665   */\n      add\n        /* \"#utility.yul\":6639:6665   */\n      swap1\n      pop\n        /* \"#utility.yul\":6675:6746   */\n      tag_228\n        /* \"#utility.yul\":6743:6744   */\n      0x00\n        /* \"#utility.yul\":6732:6741   */\n      dup4\n        /* \"#utility.yul\":6728:6745   */\n      add\n        /* \"#utility.yul\":6719:6725   */\n      dup5\n        /* \"#utility.yul\":6675:6746   */\n      tag_130\n      jump\t// in\n    tag_228:\n        /* \"#utility.yul\":6531:6753   */\n      swap3\n      swap2\n      pop\n      pop\n      jump\t// out\n        /* \"#utility.yul\":6759:6876   */\n    tag_131:\n        /* \"#utility.yul\":6868:6869   */\n      0x00\n        /* \"#utility.yul\":6865:6866   */\n      dup1\n        /* \"#utility.yul\":6858:6870   */\n      revert\n        /* \"#utility.yul\":6882:6999   */\n    tag_132:\n        /* \"#utility.yul\":6991:6992   */\n      0x00\n        /* \"#utility.yul\":6988:6989   */\n      dup1\n        /* \"#utility.yul\":6981:6993   */\n      revert\n        /* \"#utility.yul\":7005:7185   */\n    tag_133:\n        /* \"#utility.yul\":7053:7130   */\n      0x4e487b7100000000000000000000000000000000000000000000000000000000\n        /* \"#utility.yul\":7050:7051   */\n      0x00\n        /* \"#utility.yul\":7043:7131   */\n      mstore\n        /* \"#utility.yul\":7150:7154   */\n      0x41\n        /* \"#utility.yul\":7147:7148   */\n      0x04\n        /* \"#utility.yul\":7140:7155   */\n      mstore\n        /* \"#utility.yul\":7174:7178   */\n      0x24\n        /* \"#utility.yul\":7171:7172   */\n      0x00\n        /* \"#utility.yul\":7164:7179   */\n      revert\n        /* \"#utility.yul\":7191:7472   */\n    tag_134:\n        /* \"#utility.yul\":7274:7301   */\n      tag_233\n        /* \"#utility.yul\":7296:7300   */\n      dup3\n        /* \"#utility.yul\":7274:7301   */\n      tag_122\n      jump\t// in\n    tag_233:\n        /* \"#utility.yul\":7266:7272   */\n      dup2\n        /* \"#utility.yul\":7262:7302   */\n      add\n        /* \"#utility.yul\":7404:7410   */\n      dup2\n        /* \"#utility.yul\":7392:7402   */\n      dup2\n        /* \"#utility.yul\":7389:7411   */\n      lt\n        /* \"#utility.yul\":7368:7386   */\n      0xffffffffffffffff\n        /* \"#utility.yul\":7356:7366   */\n      dup3\n        /* \"#utility.yul\":7353:7387   */\n      gt\n        /* \"#utility.yul\":7350:7412   */\n      or\n        /* \"#utility.yul\":7347:7435   */\n      iszero\n      tag_234\n      jumpi\n        /* \"#utility.yul\":7415:7433   */\n      tag_235\n      tag_133\n      jump\t// in\n    tag_235:\n        /* \"#utility.yul\":7347:7435   */\n    tag_234:\n        /* \"#utility.yul\":7455:7465   */\n      dup1\n        /* \"#utility.yul\":7451:7453   */\n      0x40\n        /* \"#utility.yul\":7444:7466   */\n      mstore\n        /* \"#utility.yul\":7234:7472   */\n      pop\n        /* \"#utility.yul\":7191:7472   */\n      pop\n      pop\n      jump\t// out\n        /* \"#utility.yul\":7478:7607   */\n    tag_135:\n        /* \"#utility.yul\":7512:7518   */\n      0x00\n        /* \"#utility.yul\":7539:7559   */\n      tag_237\n      tag_109\n      jump\t// in\n    tag_237:\n        /* \"#utility.yul\":7529:7559   */\n      swap1\n      pop\n        /* \"#utility.yul\":7568:7601   */\n      tag_238\n        /* \"#utility.yul\":7596:7600   */\n      dup3\n        /* \"#utility.yul\":7588:7594   */\n      dup3\n        /* \"#utility.yul\":7568:7601   */\n      tag_134\n      jump\t// in\n    tag_238:\n        /* \"#utility.yul\":7478:7607   */\n      swap2\n      swap1\n      pop\n      jump\t// out\n        /* \"#utility.yul\":7613:7921   */\n    tag_136:\n        /* \"#utility.yul\":7675:7679   */\n      0x00\n        /* \"#utility.yul\":7765:7783   */\n      0xffffffffffffffff\n        /* \"#utility.yul\":7757:7763   */\n      dup3\n        /* \"#utility.yul\":7754:7784   */\n      gt\n        /* \"#utility.yul\":7751:7807   */\n      iszero\n      tag_240\n      jumpi\n        /* \"#utility.yul\":7787:7805   */\n      tag_241\n      tag_133\n      jump\t// in\n    tag_241:\n        /* \"#utility.yul\":7751:7807   */\n    tag_240:\n        /* \"#utility.yul\":7825:7854   */\n      tag_242\n        /* \"#utility.yul\":7847:7853   */\n      dup3\n        /* \"#utility.yul\":7825:7854   */\n      tag_122\n      jump\t// in\n    tag_242:\n        /* \"#utility.yul\":7817:7854   */\n      swap1\n      pop\n        /* \"#utility.yul\":7909:7913   */\n      0x20\n        /* \"#utility.yul\":7903:7907   */\n      dup2\n        /* \"#utility.yul\":7899:7914   */\n      add\n        /* \"#utility.yul\":7891:7914   */\n      swap1\n      pop\n        /* \"#utility.yul\":7613:7921   */\n      swap2\n      swap1\n      pop\n      jump\t// out\n        /* \"#utility.yul\":7927:8073   */\n    tag_137:\n        /* \"#utility.yul\":8024:8030   */\n      dup3\n        /* \"#utility.yul\":8019:8022   */\n      dup2\n        /* \"#utility.yul\":8014:8017   */\n      dup4\n        /* \"#utility.yul\":8001:8031   */\n      calldatacopy\n        /* \"#utility.yul\":8065:8066   */\n      0x00\n        /* \"#utility.yul\":8056:8062   */\n      dup4\n        /* \"#utility.yul\":8051:8054   */\n      dup4\n        /* \"#utility.yul\":8047:8063   */\n      add\n        /* \"#utility.yul\":8040:8067   */\n      mstore\n        /* \"#utility.yul\":7927:8073   */\n      pop\n      pop\n      pop\n      jump\t// out\n        /* \"#utility.yul\":8079:8504   */\n    tag_138:\n        /* \"#utility.yul\":8157:8162   */\n      0x00\n        /* \"#utility.yul\":8182:8248   */\n      tag_245\n        /* \"#utility.yul\":8198:8247   */\n      tag_246\n        /* \"#utility.yul\":8240:8246   */\n      dup5\n        /* \"#utility.yul\":8198:8247   */\n      tag_136\n      jump\t// in\n    tag_246:\n        /* \"#utility.yul\":8182:8248   */\n      tag_135\n      jump\t// in\n    tag_245:\n        /* \"#utility.yul\":8173:8248   */\n      swap1\n      pop\n        /* \"#utility.yul\":8271:8277   */\n      dup3\n        /* \"#utility.yul\":8264:8269   */\n      dup2\n        /* \"#utility.yul\":8257:8278   */\n      mstore\n        /* \"#utility.yul\":8309:8313   */\n      0x20\n        /* \"#utility.yul\":8302:8307   */\n      dup2\n        /* \"#utility.yul\":8298:8314   */\n      add\n        /* \"#utility.yul\":8347:8350   */\n      dup5\n        /* \"#utility.yul\":8338:8344   */\n      dup5\n        /* \"#utility.yul\":8333:8336   */\n      dup5\n        /* \"#utility.yul\":8329:8345   */\n      add\n        /* \"#utility.yul\":8326:8351   */\n      gt\n        /* \"#utility.yul\":8323:8435   */\n      iszero\n      tag_247\n      jumpi\n        /* \"#utility.yul\":8354:8433   */\n      tag_248\n      tag_132\n      jump\t// in\n    tag_248:\n        /* \"#utility.yul\":8323:8435   */\n    tag_247:\n        /* \"#utility.yul\":8444:8498   */\n      tag_249\n        /* \"#utility.yul\":8491:8497   */\n      dup5\n        /* \"#utility.yul\":8486:8489   */\n      dup3\n        /* \"#utility.yul\":8481:8484   */\n      dup6\n        /* \"#utility.yul\":8444:8498   */\n      tag_137\n      jump\t// in\n    tag_249:\n        /* \"#utility.yul\":8163:8504   */\n      pop\n        /* \"#utility.yul\":8079:8504   */\n      swap4\n      swap3\n      pop\n      pop\n      pop\n      jump\t// out\n        /* \"#utility.yul\":8524:8864   */\n    tag_139:\n        /* \"#utility.yul\":8580:8585   */\n      0x00\n        /* \"#utility.yul\":8629:8632   */\n      dup3\n        /* \"#utility.yul\":8622:8626   */\n      0x1f\n        /* \"#utility.yul\":8614:8620   */\n      dup4\n        /* \"#utility.yul\":8610:8627   */\n      add\n        /* \"#utility.yul\":8606:8633   */\n      slt\n        /* \"#utility.yul\":8596:8718   */\n      tag_251\n      jumpi\n        /* \"#utility.yul\":8637:8716   */\n      tag_252\n      tag_131\n      jump\t// in\n    tag_252:\n        /* \"#utility.yul\":8596:8718   */\n    tag_251:\n        /* \"#utility.yul\":8754:8760   */\n      dup2\n        /* \"#utility.yul\":8741:8761   */\n      calldataload\n        /* \"#utility.yul\":8779:8858   */\n      tag_253\n        /* \"#utility.yul\":8854:8857   */\n      dup5\n        /* \"#utility.yul\":8846:8852   */\n      dup3\n        /* \"#utility.yul\":8839:8843   */\n      0x20\n        /* \"#utility.yul\":8831:8837   */\n      dup7\n        /* \"#utility.yul\":8827:8844   */\n      add\n        /* \"#utility.yul\":8779:8858   */\n      tag_138\n      jump\t// in\n    tag_253:\n        /* \"#utility.yul\":8770:8858   */\n      swap2\n      pop\n        /* \"#utility.yul\":8586:8864   */\n      pop\n        /* \"#utility.yul\":8524:8864   */\n      swap3\n      swap2\n      pop\n      pop\n      jump\t// out\n        /* \"#utility.yul\":8870:9379   */\n    tag_29:\n        /* \"#utility.yul\":8939:8945   */\n      0x00\n        /* \"#utility.yul\":8988:8990   */\n      0x20\n        /* \"#utility.yul\":8976:8985   */\n      dup3\n        /* \"#utility.yul\":8967:8974   */\n      dup5\n        /* \"#utility.yul\":8963:8986   */\n      sub\n        /* \"#utility.yul\":8959:8991   */\n      slt\n        /* \"#utility.yul\":8956:9075   */\n      iszero\n      tag_255\n      jumpi\n        /* \"#utility.yul\":8994:9073   */\n      tag_256\n      tag_110\n      jump\t// in\n    tag_256:\n        /* \"#utility.yul\":8956:9075   */\n    tag_255:\n        /* \"#utility.yul\":9142:9143   */\n      0x00\n        /* \"#utility.yul\":9131:9140   */\n      dup3\n        /* \"#utility.yul\":9127:9144   */\n      add\n        /* \"#utility.yul\":9114:9145   */\n      calldataload\n        /* \"#utility.yul\":9172:9190   */\n      0xffffffffffffffff\n        /* \"#utility.yul\":9164:9170   */\n      dup2\n        /* \"#utility.yul\":9161:9191   */\n      gt\n        /* \"#utility.yul\":9158:9275   */\n      iszero\n      tag_257\n      jumpi\n        /* \"#utility.yul\":9194:9273   */\n      tag_258\n      tag_111\n      jump\t// in\n    tag_258:\n        /* \"#utility.yul\":9158:9275   */\n    tag_257:\n        /* \"#utility.yul\":9299:9362   */\n      tag_259\n        /* \"#utility.yul\":9354:9361   */\n      dup5\n        /* \"#utility.yul\":9345:9351   */\n      dup3\n        /* \"#utility.yul\":9334:9343   */\n      dup6\n        /* \"#utility.yul\":9330:9352   */\n      add\n        /* \"#utility.yul\":9299:9362   */\n      tag_139\n      jump\t// in\n    tag_259:\n        /* \"#utility.yul\":9289:9362   */\n      swap2\n      pop\n        /* \"#utility.yul\":9085:9372   */\n      pop\n        /* \"#utility.yul\":8870:9379   */\n      swap3\n      swap2\n      pop\n      pop\n      jump\t// out\n        /* \"#utility.yul\":9385:9511   */\n    tag_140:\n        /* \"#utility.yul\":9422:9429   */\n      0x00\n        /* \"#utility.yul\":9462:9504   */\n      0xffffffffffffffffffffffffffffffffffffffff\n        /* \"#utility.yul\":9455:9460   */\n      dup3\n        /* \"#utility.yul\":9451:9505   */\n      and\n        /* \"#utility.yul\":9440:9505   */\n      swap1\n      pop\n        /* \"#utility.yul\":9385:9511   */\n      swap2\n      swap1\n      pop\n      jump\t// out\n        /* \"#utility.yul\":9517:9613   */\n    tag_141:\n        /* \"#utility.yul\":9554:9561   */\n      0x00\n        /* \"#utility.yul\":9583:9607   */\n      tag_262\n        /* \"#utility.yul\":9601:9606   */\n      dup3\n        /* \"#utility.yul\":9583:9607   */\n      tag_140\n      jump\t// in\n    tag_262:\n        /* \"#utility.yul\":9572:9607   */\n      swap1\n      pop\n        /* \"#utility.yul\":9517:9613   */\n      swap2\n      swap1\n      pop\n      jump\t// out\n        /* \"#utility.yul\":9619:9741   */\n    tag_142:\n        /* \"#utility.yul\":9692:9716   */\n      tag_264\n        /* \"#utility.yul\":9710:9715   */\n      dup2\n        /* \"#utility.yul\":9692:9716   */\n      tag_141\n      jump\t// in\n    tag_264:\n        /* \"#utility.yul\":9685:9690   */\n      dup2\n        /* \"#utility.yul\":9682:9717   */\n      eq\n        /* \"#utility.yul\":9672:9735   */\n      tag_265\n      jumpi\n        /* \"#utility.yul\":9731:9732   */\n      0x00\n        /* \"#utility.yul\":9728:9729   */\n      dup1\n        /* \"#utility.yul\":9721:9733   */\n      revert\n        /* \"#utility.yul\":9672:9735   */\n    tag_265:\n        /* \"#utility.yul\":9619:9741   */\n      pop\n      jump\t// out\n        /* \"#utility.yul\":9747:9886   */\n    tag_143:\n        /* \"#utility.yul\":9793:9798   */\n      0x00\n        /* \"#utility.yul\":9831:9837   */\n      dup2\n        /* \"#utility.yul\":9818:9838   */\n      calldataload\n        /* \"#utility.yul\":9809:9838   */\n      swap1\n      pop\n        /* \"#utility.yul\":9847:9880   */\n      tag_267\n        /* \"#utility.yul\":9874:9879   */\n      dup2\n        /* \"#utility.yul\":9847:9880   */\n      tag_142\n      jump\t// in\n    tag_267:\n        /* \"#utility.yul\":9747:9886   */\n      swap3\n      swap2\n      pop\n      pop\n      jump\t// out\n        /* \"#utility.yul\":9892:10221   */\n    tag_33:\n        /* \"#utility.yul\":9951:9957   */\n      0x00\n        /* \"#utility.yul\":10000:10002   */\n      0x20\n        /* \"#utility.yul\":9988:9997   */\n      dup3\n        /* \"#utility.yul\":9979:9986   */\n      dup5\n        /* \"#utility.yul\":9975:9998   */\n      sub\n        /* \"#utility.yul\":9971:10003   */\n      slt\n        /* \"#utility.yul\":9968:10087   */\n      iszero\n      tag_269\n      jumpi\n        /* \"#utility.yul\":10006:10085   */\n      tag_270\n      tag_110\n      jump\t// in\n    tag_270:\n        /* \"#utility.yul\":9968:10087   */\n    tag_269:\n        /* \"#utility.yul\":10126:10127   */\n      0x00\n        /* \"#utility.yul\":10151:10204   */\n      tag_271\n        /* \"#utility.yul\":10196:10203   */\n      dup5\n        /* \"#utility.yul\":10187:10193   */\n      dup3\n        /* \"#utility.yul\":10176:10185   */\n      dup6\n        /* \"#utility.yul\":10172:10194   */\n      add\n        /* \"#utility.yul\":10151:10204   */\n      tag_143\n      jump\t// in\n    tag_271:\n        /* \"#utility.yul\":10141:10204   */\n      swap2\n      pop\n        /* \"#utility.yul\":10097:10214   */\n      pop\n        /* \"#utility.yul\":9892:10221   */\n      swap3\n      swap2\n      pop\n      pop\n      jump\t// out\n        /* \"#utility.yul\":10227:10317   */\n    tag_144:\n        /* \"#utility.yul\":10261:10268   */\n      0x00\n        /* \"#utility.yul\":10304:10309   */\n      dup2\n        /* \"#utility.yul\":10297:10310   */\n      iszero\n        /* \"#utility.yul\":10290:10311   */\n      iszero\n        /* \"#utility.yul\":10279:10311   */\n      swap1\n      pop\n        /* \"#utility.yul\":10227:10317   */\n      swap2\n      swap1\n      pop\n      jump\t// out\n        /* \"#utility.yul\":10323:10432   */\n    tag_145:\n        /* \"#utility.yul\":10404:10425   */\n      tag_274\n        /* \"#utility.yul\":10419:10424   */\n      dup2\n        /* \"#utility.yul\":10404:10425   */\n      tag_144\n      jump\t// in\n    tag_274:\n        /* \"#utility.yul\":10399:10402   */\n      dup3\n        /* \"#utility.yul\":10392:10426   */\n      mstore\n        /* \"#utility.yul\":10323:10432   */\n      pop\n      pop\n      jump\t// out\n        /* \"#utility.yul\":10438:10648   */\n    tag_36:\n        /* \"#utility.yul\":10525:10529   */\n      0x00\n        /* \"#utility.yul\":10563:10565   */\n      0x20\n        /* \"#utility.yul\":10552:10561   */\n      dup3\n        /* \"#utility.yul\":10548:10566   */\n      add\n        /* \"#utility.yul\":10540:10566   */\n      swap1\n      pop\n        /* \"#utility.yul\":10576:10641   */\n      tag_276\n        /* \"#utility.yul\":10638:10639   */\n      0x00\n        /* \"#utility.yul\":10627:10636   */\n      dup4\n        /* \"#utility.yul\":10623:10640   */\n      add\n        /* \"#utility.yul\":10614:10620   */\n      dup5\n        /* \"#utility.yul\":10576:10641   */\n      tag_145\n      jump\t// in\n    tag_276:\n        /* \"#utility.yul\":10438:10648   */\n      swap3\n      swap2\n      pop\n      pop\n      jump\t// out\n        /* \"#utility.yul\":10712:11489   */\n    tag_146:\n        /* \"#utility.yul\":10829:10832   */\n      0x00\n        /* \"#utility.yul\":10865:10869   */\n      0x60\n        /* \"#utility.yul\":10860:10863   */\n      dup4\n        /* \"#utility.yul\":10856:10870   */\n      add\n        /* \"#utility.yul\":10950:10954   */\n      0x00\n        /* \"#utility.yul\":10943:10948   */\n      dup4\n        /* \"#utility.yul\":10939:10955   */\n      add\n        /* \"#utility.yul\":10933:10956   */\n      mload\n        /* \"#utility.yul\":10969:11032   */\n      tag_278\n        /* \"#utility.yul\":11026:11030   */\n      0x00\n        /* \"#utility.yul\":11021:11024   */\n      dup7\n        /* \"#utility.yul\":11017:11031   */\n      add\n        /* \"#utility.yul\":11003:11015   */\n      dup3\n        /* \"#utility.yul\":10969:11032   */\n      tag_118\n      jump\t// in\n    tag_278:\n        /* \"#utility.yul\":10880:11042   */\n      pop\n        /* \"#utility.yul\":11124:11128   */\n      0x20\n        /* \"#utility.yul\":11117:11122   */\n      dup4\n        /* \"#utility.yul\":11113:11129   */\n      add\n        /* \"#utility.yul\":11107:11130   */\n      mload\n        /* \"#utility.yul\":11177:11180   */\n      dup5\n        /* \"#utility.yul\":11171:11175   */\n      dup3\n        /* \"#utility.yul\":11167:11181   */\n      sub\n        /* \"#utility.yul\":11160:11164   */\n      0x20\n        /* \"#utility.yul\":11155:11158   */\n      dup7\n        /* \"#utility.yul\":11151:11165   */\n      add\n        /* \"#utility.yul\":11144:11182   */\n      mstore\n        /* \"#utility.yul\":11203:11276   */\n      tag_279\n        /* \"#utility.yul\":11271:11275   */\n      dup3\n        /* \"#utility.yul\":11257:11269   */\n      dup3\n        /* \"#utility.yul\":11203:11276   */\n      tag_123\n      jump\t// in\n    tag_279:\n        /* \"#utility.yul\":11195:11276   */\n      swap2\n      pop\n        /* \"#utility.yul\":11052:11287   */\n      pop\n        /* \"#utility.yul\":11370:11374   */\n      0x40\n        /* \"#utility.yul\":11363:11368   */\n      dup4\n        /* \"#utility.yul\":11359:11375   */\n      add\n        /* \"#utility.yul\":11353:11376   */\n      mload\n        /* \"#utility.yul\":11389:11452   */\n      tag_280\n        /* \"#utility.yul\":11446:11450   */\n      0x40\n        /* \"#utility.yul\":11441:11444   */\n      dup7\n        /* \"#utility.yul\":11437:11451   */\n      add\n        /* \"#utility.yul\":11423:11435   */\n      dup3\n        /* \"#utility.yul\":11389:11452   */\n      tag_118\n      jump\t// in\n    tag_280:\n        /* \"#utility.yul\":11297:11462   */\n      pop\n        /* \"#utility.yul\":11479:11483   */\n      dup1\n        /* \"#utility.yul\":11472:11483   */\n      swap2\n      pop\n        /* \"#utility.yul\":10834:11489   */\n      pop\n        /* \"#utility.yul\":10712:11489   */\n      swap3\n      swap2\n      pop\n      pop\n      jump\t// out\n        /* \"#utility.yul\":11495:11864   */\n    tag_40:\n        /* \"#utility.yul\":11636:11640   */\n      0x00\n        /* \"#utility.yul\":11674:11676   */\n      0x20\n        /* \"#utility.yul\":11663:11672   */\n      dup3\n        /* \"#utility.yul\":11659:11677   */\n      add\n        /* \"#utility.yul\":11651:11677   */\n      swap1\n      pop\n        /* \"#utility.yul\":11723:11732   */\n      dup2\n        /* \"#utility.yul\":11717:11721   */\n      dup2\n        /* \"#utility.yul\":11713:11733   */\n      sub\n        /* \"#utility.yul\":11709:11710   */\n      0x00\n        /* \"#utility.yul\":11698:11707   */\n      dup4\n        /* \"#utility.yul\":11694:11711   */\n      add\n        /* \"#utility.yul\":11687:11734   */\n      mstore\n        /* \"#utility.yul\":11751:11857   */\n      tag_282\n        /* \"#utility.yul\":11852:11856   */\n      dup2\n        /* \"#utility.yul\":11843:11849   */\n      dup5\n        /* \"#utility.yul\":11751:11857   */\n      tag_146\n      jump\t// in\n    tag_282:\n        /* \"#utility.yul\":11743:11857   */\n      swap1\n      pop\n        /* \"#utility.yul\":11495:11864   */\n      swap3\n      swap2\n      pop\n      pop\n      jump\t// out\n        /* \"#utility.yul\":11870:12045   */\n    tag_147:\n        /* \"#utility.yul\":12010:12037   */\n      0x5468697320706572736f6e20616c726561647920766f74656400000000000000\n        /* \"#utility.yul\":12006:12007   */\n      0x00\n        /* \"#utility.yul\":11998:12004   */\n      dup3\n        /* \"#utility.yul\":11994:12008   */\n      add\n        /* \"#utility.yul\":11987:12038   */\n      mstore\n        /* \"#utility.yul\":11870:12045   */\n      pop\n      jump\t// out\n        /* \"#utility.yul\":12051:12417   */\n    tag_148:\n        /* \"#utility.yul\":12193:12196   */\n      0x00\n        /* \"#utility.yul\":12214:12281   */\n      tag_285\n        /* \"#utility.yul\":12278:12280   */\n      0x19\n        /* \"#utility.yul\":12273:12276   */\n      dup4\n        /* \"#utility.yul\":12214:12281   */\n      tag_128\n      jump\t// in\n    tag_285:\n        /* \"#utility.yul\":12207:12281   */\n      swap2\n      pop\n        /* \"#utility.yul\":12290:12383   */\n      tag_286\n        /* \"#utility.yul\":12379:12382   */\n      dup3\n        /* \"#utility.yul\":12290:12383   */\n      tag_147\n      jump\t// in\n    tag_286:\n        /* \"#utility.yul\":12408:12410   */\n      0x20\n        /* \"#utility.yul\":12403:12406   */\n      dup3\n        /* \"#utility.yul\":12399:12411   */\n      add\n        /* \"#utility.yul\":12392:12411   */\n      swap1\n      pop\n        /* \"#utility.yul\":12051:12417   */\n      swap2\n      swap1\n      pop\n      jump\t// out\n        /* \"#utility.yul\":12423:12842   */\n    tag_44:\n        /* \"#utility.yul\":12589:12593   */\n      0x00\n        /* \"#utility.yul\":12627:12629   */\n      0x20\n        /* \"#utility.yul\":12616:12625   */\n      dup3\n        /* \"#utility.yul\":12612:12630   */\n      add\n        /* \"#utility.yul\":12604:12630   */\n      swap1\n      pop\n        /* \"#utility.yul\":12676:12685   */\n      dup2\n        /* \"#utility.yul\":12670:12674   */\n      dup2\n        /* \"#utility.yul\":12666:12686   */\n      sub\n        /* \"#utility.yul\":12662:12663   */\n      0x00\n        /* \"#utility.yul\":12651:12660   */\n      dup4\n        /* \"#utility.yul\":12647:12664   */\n      add\n        /* \"#utility.yul\":12640:12687   */\n      mstore\n        /* \"#utility.yul\":12704:12835   */\n      tag_288\n        /* \"#utility.yul\":12830:12834   */\n      dup2\n        /* \"#utility.yul\":12704:12835   */\n      tag_148\n      jump\t// in\n    tag_288:\n        /* \"#utility.yul\":12696:12835   */\n      swap1\n      pop\n        /* \"#utility.yul\":12423:12842   */\n      swap2\n      swap1\n      pop\n      jump\t// out\n        /* \"#utility.yul\":12848:13028   */\n    tag_50:\n        /* \"#utility.yul\":12896:12973   */\n      0x4e487b7100000000000000000000000000000000000000000000000000000000\n        /* \"#utility.yul\":12893:12894   */\n      0x00\n        /* \"#utility.yul\":12886:12974   */\n      mstore\n        /* \"#utility.yul\":12993:12997   */\n      0x32\n        /* \"#utility.yul\":12990:12991   */\n      0x04\n        /* \"#utility.yul\":12983:12998   */\n      mstore\n        /* \"#utility.yul\":13017:13021   */\n      0x24\n        /* \"#utility.yul\":13014:13015   */\n      0x00\n        /* \"#utility.yul\":13007:13022   */\n      revert\n        /* \"#utility.yul\":13034:13214   */\n    tag_149:\n        /* \"#utility.yul\":13082:13159   */\n      0x4e487b7100000000000000000000000000000000000000000000000000000000\n        /* \"#utility.yul\":13079:13080   */\n      0x00\n        /* \"#utility.yul\":13072:13160   */\n      mstore\n        /* \"#utility.yul\":13179:13183   */\n      0x11\n        /* \"#utility.yul\":13176:13177   */\n      0x04\n        /* \"#utility.yul\":13169:13184   */\n      mstore\n        /* \"#utility.yul\":13203:13207   */\n      0x24\n        /* \"#utility.yul\":13200:13201   */\n      0x00\n        /* \"#utility.yul\":13193:13208   */\n      revert\n        /* \"#utility.yul\":13220:13453   */\n    tag_57:\n        /* \"#utility.yul\":13259:13262   */\n      0x00\n        /* \"#utility.yul\":13282:13306   */\n      tag_292\n        /* \"#utility.yul\":13300:13305   */\n      dup3\n        /* \"#utility.yul\":13282:13306   */\n      tag_112\n      jump\t// in\n    tag_292:\n        /* \"#utility.yul\":13273:13306   */\n      swap2\n      pop\n        /* \"#utility.yul\":13328:13394   */\n      0xffffffffffffffffffffffffffffffffffffffffffffffffffffffffffffffff\n        /* \"#utility.yul\":13321:13326   */\n      dup3\n        /* \"#utility.yul\":13318:13395   */\n      sub\n        /* \"#utility.yul\":13315:13418   */\n      tag_293\n      jumpi\n        /* \"#utility.yul\":13398:13416   */\n      tag_294\n      tag_149\n      jump\t// in\n    tag_294:\n        /* \"#utility.yul\":13315:13418   */\n    tag_293:\n        /* \"#utility.yul\":13445:13446   */\n      0x01\n        /* \"#utility.yul\":13438:13443   */\n      dup3\n        /* \"#utility.yul\":13434:13447   */\n      add\n        /* \"#utility.yul\":13427:13447   */\n      swap1\n      pop\n        /* \"#utility.yul\":13220:13453   */\n      swap2\n      swap1\n      pop\n      jump\t// out\n        /* \"#utility.yul\":13459:13639   */\n    tag_150:\n        /* \"#utility.yul\":13507:13584   */\n      0x4e487b7100000000000000000000000000000000000000000000000000000000\n        /* \"#utility.yul\":13504:13505   */\n      0x00\n        /* \"#utility.yul\":13497:13585   */\n      mstore\n        /* \"#utility.yul\":13604:13608   */\n      0x22\n        /* \"#utility.yul\":13601:13602   */\n      0x04\n        /* \"#utility.yul\":13594:13609   */\n      mstore\n        /* \"#utility.yul\":13628:13632   */\n      0x24\n        /* \"#utility.yul\":13625:13626   */\n      0x00\n        /* \"#utility.yul\":13618:13633   */\n      revert\n        /* \"#utility.yul\":13645:13965   */\n    tag_64:\n        /* \"#utility.yul\":13689:13695   */\n      0x00\n        /* \"#utility.yul\":13726:13727   */\n      0x02\n        /* \"#utility.yul\":13720:13724   */\n      dup3\n        /* \"#utility.yul\":13716:13728   */\n      div\n        /* \"#utility.yul\":13706:13728   */\n      swap1\n      pop\n        /* \"#utility.yul\":13773:13774   */\n      0x01\n        /* \"#utility.yul\":13767:13771   */\n      dup3\n        /* \"#utility.yul\":13763:13775   */\n      and\n        /* \"#utility.yul\":13794:13812   */\n      dup1\n        /* \"#utility.yul\":13784:13865   */\n      tag_297\n      jumpi\n        /* \"#utility.yul\":13850:13854   */\n      0x7f\n        /* \"#utility.yul\":13842:13848   */\n      dup3\n        /* \"#utility.yul\":13838:13855   */\n      and\n        /* \"#utility.yul\":13828:13855   */\n      swap2\n      pop\n        /* \"#utility.yul\":13784:13865   */\n    tag_297:\n        /* \"#utility.yul\":13912:13914   */\n      0x20\n        /* \"#utility.yul\":13904:13910   */\n      dup3\n        /* \"#utility.yul\":13901:13915   */\n      lt\n        /* \"#utility.yul\":13881:13899   */\n      dup2\n        /* \"#utility.yul\":13878:13916   */\n      sub\n        /* \"#utility.yul\":13875:13959   */\n      tag_298\n      jumpi\n        /* \"#utility.yul\":13931:13949   */\n      tag_299\n      tag_150\n      jump\t// in\n    tag_299:\n        /* \"#utility.yul\":13875:13959   */\n    tag_298:\n        /* \"#utility.yul\":13696:13965   */\n      pop\n        /* \"#utility.yul\":13645:13965   */\n      swap2\n      swap1\n      pop\n      jump\t// out\n        /* \"#utility.yul\":13971:14112   */\n    tag_151:\n        /* \"#utility.yul\":14020:14024   */\n      0x00\n        /* \"#utility.yul\":14043:14046   */\n      dup2\n        /* \"#utility.yul\":14035:14046   */\n      swap1\n      pop\n        /* \"#utility.yul\":14066:14069   */\n      dup2\n        /* \"#utility.yul\":14063:14064   */\n      0x00\n        /* \"#utility.yul\":14056:14070   */\n      mstore\n        /* \"#utility.yul\":14100:14104   */\n      0x20\n        /* \"#utility.yul\":14097:14098   */\n      0x00\n        /* \"#utility.yul\":14087:14105   */\n      keccak256\n        /* \"#utility.yul\":14079:14105   */\n      swap1\n      pop\n        /* \"#utility.yul\":13971:14112   */\n      swap2\n      swap1\n      pop\n      jump\t// out\n        /* \"#utility.yul\":14118:14211   */\n    tag_152:\n        /* \"#utility.yul\":14155:14161   */\n      0x00\n        /* \"#utility.yul\":14202:14204   */\n      0x20\n        /* \"#utility.yul\":14197:14199   */\n      0x1f\n        /* \"#utility.yul\":14190:14195   */\n      dup4\n        /* \"#utility.yul\":14186:14200   */\n      add\n        /* \"#utility.yul\":14182:14205   */\n      div\n        /* \"#utility.yul\":14172:14205   */\n      swap1\n      pop\n        /* \"#utility.yul\":14118:14211   */\n      swap2\n      swap1\n      pop\n      jump\t// out\n        /* \"#utility.yul\":14217:14324   */\n    tag_153:\n        /* \"#utility.yul\":14261:14269   */\n      0x00\n        /* \"#utility.yul\":14311:14316   */\n      dup3\n        /* \"#utility.yul\":14305:14309   */\n      dup3\n        /* \"#utility.yul\":14301:14317   */\n      shl\n        /* \"#utility.yul\":14280:14317   */\n      swap1\n      pop\n        /* \"#utility.yul\":14217:14324   */\n      swap3\n      swap2\n      pop\n      pop\n      jump\t// out\n        /* \"#utility.yul\":14330:14723   */\n    tag_154:\n        /* \"#utility.yul\":14399:14405   */\n      0x00\n        /* \"#utility.yul\":14449:14450   */\n      0x08\n        /* \"#utility.yul\":14437:14447   */\n      dup4\n        /* \"#utility.yul\":14433:14451   */\n      mul\n        /* \"#utility.yul\":14472:14569   */\n      tag_304\n        /* \"#utility.yul\":14502:14568   */\n      0xffffffffffffffffffffffffffffffffffffffffffffffffffffffffffffffff\n        /* \"#utility.yul\":14491:14500   */\n      dup3\n        /* \"#utility.yul\":14472:14569   */\n      tag_153\n      jump\t// in\n    tag_304:\n        /* \"#utility.yul\":14590:14629   */\n      tag_305\n        /* \"#utility.yul\":14620:14628   */\n      dup7\n        /* \"#utility.yul\":14609:14618   */\n      dup4\n        /* \"#utility.yul\":14590:14629   */\n      tag_153\n      jump\t// in\n    tag_305:\n        /* \"#utility.yul\":14578:14629   */\n      swap6\n      pop\n        /* \"#utility.yul\":14662:14666   */\n      dup1\n        /* \"#utility.yul\":14658:14667   */\n      not\n        /* \"#utility.yul\":14651:14656   */\n      dup5\n        /* \"#utility.yul\":14647:14668   */\n      and\n        /* \"#utility.yul\":14638:14668   */\n      swap4\n      pop\n        /* \"#utility.yul\":14711:14715   */\n      dup1\n        /* \"#utility.yul\":14701:14709   */\n      dup7\n        /* \"#utility.yul\":14697:14716   */\n      and\n        /* \"#utility.yul\":14690:14695   */\n      dup5\n        /* \"#utility.yul\":14687:14717   */\n      or\n        /* \"#utility.yul\":14677:14717   */\n      swap3\n      pop\n        /* \"#utility.yul\":14406:14723   */\n      pop\n      pop\n        /* \"#utility.yul\":14330:14723   */\n      swap4\n      swap3\n      pop\n      pop\n      pop\n      jump\t// out\n        /* \"#utility.yul\":14729:14789   */\n    tag_155:\n        /* \"#utility.yul\":14757:14760   */\n      0x00\n        /* \"#utility.yul\":14778:14783   */\n      dup2\n        /* \"#utility.yul\":14771:14783   */\n      swap1\n      pop\n        /* \"#utility.yul\":14729:14789   */\n      swap2\n      swap1\n      pop\n      jump\t// out\n        /* \"#utility.yul\":14795:14937   */\n    tag_156:\n        /* \"#utility.yul\":14845:14854   */\n      0x00\n        /* \"#utility.yul\":14878:14931   */\n      tag_308\n        /* \"#utility.yul\":14896:14930   */\n      tag_309\n        /* \"#utility.yul\":14905:14929   */\n      tag_310\n        /* \"#utility.yul\":14923:14928   */\n      dup5\n        /* \"#utility.yul\":14905:14929   */\n      tag_112\n      jump\t// in\n    tag_310:\n        /* \"#utility.yul\":14896:14930   */\n      tag_155\n      jump\t// in\n    tag_309:\n        /* \"#utility.yul\":14878:14931   */\n      tag_112\n      jump\t// in\n    tag_308:\n        /* \"#utility.yul\":14865:14931   */\n      swap1\n      pop\n        /* \"#utility.yul\":14795:14937   */\n      swap2\n      swap1\n      pop\n      jump\t// out\n        /* \"#utility.yul\":14943:15018   */\n    tag_157:\n        /* \"#utility.yul\":14986:14989   */\n      0x00\n        /* \"#utility.yul\":15007:15012   */\n      dup2\n        /* \"#utility.yul\":15000:15012   */\n      swap1\n      pop\n        /* \"#utility.yul\":14943:15018   */\n      swap2\n      swap1\n      pop\n      jump\t// out\n        /* \"#utility.yul\":15024:15293   */\n    tag_158:\n        /* \"#utility.yul\":15134:15173   */\n      tag_313\n        /* \"#utility.yul\":15165:15172   */\n      dup4\n        /* \"#utility.yul\":15134:15173   */\n      tag_156\n      jump\t// in\n    tag_313:\n        /* \"#utility.yul\":15195:15286   */\n      tag_314\n        /* \"#utility.yul\":15244:15285   */\n      tag_315\n        /* \"#utility.yul\":15268:15284   */\n      dup3\n        /* \"#utility.yul\":15244:15285   */\n      tag_157\n      jump\t// in\n    tag_315:\n        /* \"#utility.yul\":15236:15242   */\n      dup5\n        /* \"#utility.yul\":15229:15233   */\n      dup5\n        /* \"#utility.yul\":15223:15234   */\n      sload\n        /* \"#utility.yul\":15195:15286   */\n      tag_154\n      jump\t// in\n    tag_314:\n        /* \"#utility.yul\":15189:15193   */\n      dup3\n        /* \"#utility.yul\":15182:15287   */\n      sstore\n        /* \"#utility.yul\":15100:15293   */\n      pop\n        /* \"#utility.yul\":15024:15293   */\n      pop\n      pop\n      pop\n      jump\t// out\n        /* \"#utility.yul\":15299:15372   */\n    tag_159:\n        /* \"#utility.yul\":15344:15347   */\n      0x00\n        /* \"#utility.yul\":15299:15372   */\n      swap1\n      jump\t// out\n        /* \"#utility.yul\":15378:15567   */\n    tag_160:\n        /* \"#utility.yul\":15455:15487   */\n      tag_318\n      tag_159\n      jump\t// in\n    tag_318:\n        /* \"#utility.yul\":15496:15561   */\n      tag_319\n        /* \"#utility.yul\":15554:15560   */\n      dup2\n        /* \"#utility.yul\":15546:15552   */\n      dup5\n        /* \"#utility.yul\":15540:15544   */\n      dup5\n        /* \"#utility.yul\":15496:15561   */\n      tag_158\n      jump\t// in\n    tag_319:\n        /* \"#utility.yul\":15431:15567   */\n      pop\n        /* \"#utility.yul\":15378:15567   */\n      pop\n      pop\n      jump\t// out\n        /* \"#utility.yul\":15573:15759   */\n    tag_161:\n        /* \"#utility.yul\":15633:15753   */\n    tag_321:\n        /* \"#utility.yul\":15650:15653   */\n      dup2\n        /* \"#utility.yul\":15643:15648   */\n      dup2\n        /* \"#utility.yul\":15640:15654   */\n      lt\n        /* \"#utility.yul\":15633:15753   */\n      iszero\n      tag_323\n      jumpi\n        /* \"#utility.yul\":15704:15743   */\n      tag_324\n        /* \"#utility.yul\":15741:15742   */\n      0x00\n        /* \"#utility.yul\":15734:15739   */\n      dup3\n        /* \"#utility.yul\":15704:15743   */\n      tag_160\n      jump\t// in\n    tag_324:\n        /* \"#utility.yul\":15677:15678   */\n      0x01\n        /* \"#utility.yul\":15670:15675   */\n      dup2\n        /* \"#utility.yul\":15666:15679   */\n      add\n        /* \"#utility.yul\":15657:15679   */\n      swap1\n      pop\n        /* \"#utility.yul\":15633:15753   */\n      jump(tag_321)\n    tag_323:\n        /* \"#utility.yul\":15573:15759   */\n      pop\n      pop\n      jump\t// out\n        /* \"#utility.yul\":15765:16308   */\n    tag_162:\n        /* \"#utility.yul\":15866:15868   */\n      0x1f\n        /* \"#utility.yul\":15861:15864   */\n      dup3\n        /* \"#utility.yul\":15858:15869   */\n      gt\n        /* \"#utility.yul\":15855:16301   */\n      iszero\n      tag_326\n      jumpi\n        /* \"#utility.yul\":15900:15938   */\n      tag_327\n        /* \"#utility.yul\":15932:15937   */\n      dup2\n        /* \"#utility.yul\":15900:15938   */\n      tag_151\n      jump\t// in\n    tag_327:\n        /* \"#utility.yul\":15984:16013   */\n      tag_328\n        /* \"#utility.yul\":16002:16012   */\n      dup5\n        /* \"#utility.yul\":15984:16013   */\n      tag_152\n      jump\t// in\n    tag_328:\n        /* \"#utility.yul\":15974:15982   */\n      dup2\n        /* \"#utility.yul\":15970:16014   */\n      add\n        /* \"#utility.yul\":16167:16169   */\n      0x20\n        /* \"#utility.yul\":16155:16165   */\n      dup6\n        /* \"#utility.yul\":16152:16170   */\n      lt\n        /* \"#utility.yul\":16149:16198   */\n      iszero\n      tag_329\n      jumpi\n        /* \"#utility.yul\":16188:16196   */\n      dup2\n        /* \"#utility.yul\":16173:16196   */\n      swap1\n      pop\n        /* \"#utility.yul\":16149:16198   */\n    tag_329:\n        /* \"#utility.yul\":16211:16291   */\n      tag_330\n        /* \"#utility.yul\":16267:16289   */\n      tag_331\n        /* \"#utility.yul\":16285:16288   */\n      dup6\n        /* \"#utility.yul\":16267:16289   */\n      tag_152\n      jump\t// in\n    tag_331:\n        /* \"#utility.yul\":16257:16265   */\n      dup4\n        /* \"#utility.yul\":16253:16290   */\n      add\n        /* \"#utility.yul\":16240:16251   */\n      dup3\n        /* \"#utility.yul\":16211:16291   */\n      tag_161\n      jump\t// in\n    tag_330:\n        /* \"#utility.yul\":15870:16301   */\n      pop\n      pop\n        /* \"#utility.yul\":15855:16301   */\n    tag_326:\n        /* \"#utility.yul\":15765:16308   */\n      pop\n      pop\n      pop\n      jump\t// out\n        /* \"#utility.yul\":16314:16431   */\n    tag_163:\n        /* \"#utility.yul\":16368:16376   */\n      0x00\n        /* \"#utility.yul\":16418:16423   */\n      dup3\n        /* \"#utility.yul\":16412:16416   */\n      dup3\n        /* \"#utility.yul\":16408:16424   */\n      shr\n        /* \"#utility.yul\":16387:16424   */\n      swap1\n      pop\n        /* \"#utility.yul\":16314:16431   */\n      swap3\n      swap2\n      pop\n      pop\n      jump\t// out\n        /* \"#utility.yul\":16437:16606   */\n    tag_164:\n        /* \"#utility.yul\":16481:16487   */\n      0x00\n        /* \"#utility.yul\":16514:16565   */\n      tag_334\n        /* \"#utility.yul\":16562:16563   */\n      0x00\n        /* \"#utility.yul\":16558:16564   */\n      not\n        /* \"#utility.yul\":16550:16555   */\n      dup5\n        /* \"#utility.yul\":16547:16548   */\n      0x08\n        /* \"#utility.yul\":16543:16556   */\n      mul\n        /* \"#utility.yul\":16514:16565   */\n      tag_163\n      jump\t// in\n    tag_334:\n        /* \"#utility.yul\":16510:16566   */\n      not\n        /* \"#utility.yul\":16595:16599   */\n      dup1\n        /* \"#utility.yul\":16589:16593   */\n      dup4\n        /* \"#utility.yul\":16585:16600   */\n      and\n        /* \"#utility.yul\":16575:16600   */\n      swap2\n      pop\n        /* \"#utility.yul\":16488:16606   */\n      pop\n        /* \"#utility.yul\":16437:16606   */\n      swap3\n      swap2\n      pop\n      pop\n      jump\t// out\n        /* \"#utility.yul\":16611:16906   */\n    tag_165:\n        /* \"#utility.yul\":16687:16691   */\n      0x00\n        /* \"#utility.yul\":16833:16862   */\n      tag_336\n        /* \"#utility.yul\":16858:16861   */\n      dup4\n        /* \"#utility.yul\":16852:16856   */\n      dup4\n        /* \"#utility.yul\":16833:16862   */\n      tag_164\n      jump\t// in\n    tag_336:\n        /* \"#utility.yul\":16825:16862   */\n      swap2\n      pop\n        /* \"#utility.yul\":16895:16898   */\n      dup3\n        /* \"#utility.yul\":16892:16893   */\n      0x02\n        /* \"#utility.yul\":16888:16899   */\n      mul\n        /* \"#utility.yul\":16882:16886   */\n      dup3\n        /* \"#utility.yul\":16879:16900   */\n      or\n        /* \"#utility.yul\":16871:16900   */\n      swap1\n      pop\n        /* \"#utility.yul\":16611:16906   */\n      swap3\n      swap2\n      pop\n      pop\n      jump\t// out\n        /* \"#utility.yul\":16911:18306   */\n    tag_77:\n        /* \"#utility.yul\":17028:17065   */\n      tag_338\n        /* \"#utility.yul\":17061:17064   */\n      dup3\n        /* \"#utility.yul\":17028:17065   */\n      tag_119\n      jump\t// in\n    tag_338:\n        /* \"#utility.yul\":17130:17148   */\n      0xffffffffffffffff\n        /* \"#utility.yul\":17122:17128   */\n      dup2\n        /* \"#utility.yul\":17119:17149   */\n      gt\n        /* \"#utility.yul\":17116:17172   */\n      iszero\n      tag_339\n      jumpi\n        /* \"#utility.yul\":17152:17170   */\n      tag_340\n      tag_133\n      jump\t// in\n    tag_340:\n        /* \"#utility.yul\":17116:17172   */\n    tag_339:\n        /* \"#utility.yul\":17196:17234   */\n      tag_341\n        /* \"#utility.yul\":17228:17232   */\n      dup3\n        /* \"#utility.yul\":17222:17233   */\n      sload\n        /* \"#utility.yul\":17196:17234   */\n      tag_64\n      jump\t// in\n    tag_341:\n        /* \"#utility.yul\":17281:17348   */\n      tag_342\n        /* \"#utility.yul\":17341:17347   */\n      dup3\n        /* \"#utility.yul\":17333:17339   */\n      dup3\n        /* \"#utility.yul\":17327:17331   */\n      dup6\n        /* \"#utility.yul\":17281:17348   */\n      tag_162\n      jump\t// in\n    tag_342:\n        /* \"#utility.yul\":17375:17376   */\n      0x00\n        /* \"#utility.yul\":17399:17403   */\n      0x20\n        /* \"#utility.yul\":17386:17403   */\n      swap1\n      pop\n        /* \"#utility.yul\":17431:17433   */\n      0x1f\n        /* \"#utility.yul\":17423:17429   */\n      dup4\n        /* \"#utility.yul\":17420:17434   */\n      gt\n        /* \"#utility.yul\":17448:17449   */\n      0x01\n        /* \"#utility.yul\":17443:18061   */\n      dup2\n      eq\n      tag_344\n      jumpi\n        /* \"#utility.yul\":18105:18106   */\n      0x00\n        /* \"#utility.yul\":18122:18128   */\n      dup5\n        /* \"#utility.yul\":18119:18196   */\n      iszero\n      tag_345\n      jumpi\n        /* \"#utility.yul\":18171:18180   */\n      dup3\n        /* \"#utility.yul\":18166:18169   */\n      dup8\n        /* \"#utility.yul\":18162:18181   */\n      add\n        /* \"#utility.yul\":18156:18182   */\n      mload\n        /* \"#utility.yul\":18147:18182   */\n      swap1\n      pop\n        /* \"#utility.yul\":18119:18196   */\n    tag_345:\n        /* \"#utility.yul\":18222:18289   */\n      tag_346\n        /* \"#utility.yul\":18282:18288   */\n      dup6\n        /* \"#utility.yul\":18275:18280   */\n      dup3\n        /* \"#utility.yul\":18222:18289   */\n      tag_165\n      jump\t// in\n    tag_346:\n        /* \"#utility.yul\":18216:18220   */\n      dup7\n        /* \"#utility.yul\":18209:18290   */\n      sstore\n        /* \"#utility.yul\":18078:18300   */\n      pop\n        /* \"#utility.yul\":17413:18300   */\n      jump(tag_343)\n        /* \"#utility.yul\":17443:18061   */\n    tag_344:\n        /* \"#utility.yul\":17495:17499   */\n      0x1f\n        /* \"#utility.yul\":17491:17500   */\n      not\n        /* \"#utility.yul\":17483:17489   */\n      dup5\n        /* \"#utility.yul\":17479:17501   */\n      and\n        /* \"#utility.yul\":17529:17566   */\n      tag_347\n        /* \"#utility.yul\":17561:17565   */\n      dup7\n        /* \"#utility.yul\":17529:17566   */\n      tag_151\n      jump\t// in\n    tag_347:\n        /* \"#utility.yul\":17588:17589   */\n      0x00\n        /* \"#utility.yul\":17602:17810   */\n    tag_348:\n        /* \"#utility.yul\":17616:17623   */\n      dup3\n        /* \"#utility.yul\":17613:17614   */\n      dup2\n        /* \"#utility.yul\":17610:17624   */\n      lt\n        /* \"#utility.yul\":17602:17810   */\n      iszero\n      tag_350\n      jumpi\n        /* \"#utility.yul\":17695:17704   */\n      dup5\n        /* \"#utility.yul\":17690:17693   */\n      dup10\n        /* \"#utility.yul\":17686:17705   */\n      add\n        /* \"#utility.yul\":17680:17706   */\n      mload\n        /* \"#utility.yul\":17672:17678   */\n      dup3\n        /* \"#utility.yul\":17665:17707   */\n      sstore\n        /* \"#utility.yul\":17746:17747   */\n      0x01\n        /* \"#utility.yul\":17738:17744   */\n      dup3\n        /* \"#utility.yul\":17734:17748   */\n      add\n        /* \"#utility.yul\":17724:17748   */\n      swap2\n      pop\n        /* \"#utility.yul\":17793:17795   */\n      0x20\n        /* \"#utility.yul\":17782:17791   */\n      dup6\n        /* \"#utility.yul\":17778:17796   */\n      add\n        /* \"#utility.yul\":17765:17796   */\n      swap5\n      pop\n        /* \"#utility.yul\":17639:17643   */\n      0x20\n        /* \"#utility.yul\":17636:17637   */\n      dup2\n        /* \"#utility.yul\":17632:17644   */\n      add\n        /* \"#utility.yul\":17627:17644   */\n      swap1\n      pop\n        /* \"#utility.yul\":17602:17810   */\n      jump(tag_348)\n    tag_350:\n        /* \"#utility.yul\":17838:17844   */\n      dup7\n        /* \"#utility.yul\":17829:17836   */\n      dup4\n        /* \"#utility.yul\":17826:17845   */\n      lt\n        /* \"#utility.yul\":17823:18002   */\n      iszero\n      tag_351\n      jumpi\n        /* \"#utility.yul\":17896:17905   */\n      dup5\n        /* \"#utility.yul\":17891:17894   */\n      dup10\n        /* \"#utility.yul\":17887:17906   */\n      add\n        /* \"#utility.yul\":17881:17907   */\n      mload\n        /* \"#utility.yul\":17939:17987   */\n      tag_352\n        /* \"#utility.yul\":17981:17985   */\n      0x1f\n        /* \"#utility.yul\":17973:17979   */\n      dup10\n        /* \"#utility.yul\":17969:17986   */\n      and\n        /* \"#utility.yul\":17958:17967   */\n      dup3\n        /* \"#utility.yul\":17939:17987   */\n      tag_164\n      jump\t// in\n    tag_352:\n        /* \"#utility.yul\":17931:17937   */\n      dup4\n        /* \"#utility.yul\":17924:17988   */\n      sstore\n        /* \"#utility.yul\":17846:18002   */\n      pop\n        /* \"#utility.yul\":17823:18002   */\n    tag_351:\n        /* \"#utility.yul\":18048:18049   */\n      0x01\n        /* \"#utility.yul\":18044:18045   */\n      0x02\n        /* \"#utility.yul\":18036:18042   */\n      dup9\n        /* \"#utility.yul\":18032:18046   */\n      mul\n        /* \"#utility.yul\":18028:18050   */\n      add\n        /* \"#utility.yul\":18022:18026   */\n      dup9\n        /* \"#utility.yul\":18015:18051   */\n      sstore\n        /* \"#utility.yul\":17450:18061   */\n      pop\n      pop\n      pop\n        /* \"#utility.yul\":17413:18300   */\n    tag_343:\n      pop\n        /* \"#utility.yul\":17003:18306   */\n      pop\n      pop\n      pop\n        /* \"#utility.yul\":16911:18306   */\n      pop\n      pop\n      jump\t// out\n        /* \"#utility.yul\":18312:18471   */\n    tag_166:\n        /* \"#utility.yul\":18452:18463   */\n      0x4e6f74206f776e65720000000000000000000000000000000000000000000000\n        /* \"#utility.yul\":18448:18449   */\n      0x00\n        /* \"#utility.yul\":18440:18446   */\n      dup3\n        /* \"#utility.yul\":18436:18450   */\n      add\n        /* \"#utility.yul\":18429:18464   */\n      mstore\n        /* \"#utility.yul\":18312:18471   */\n      pop\n      jump\t// out\n        /* \"#utility.yul\":18477:18842   */\n    tag_167:\n        /* \"#utility.yul\":18619:18622   */\n      0x00\n        /* \"#utility.yul\":18640:18706   */\n      tag_355\n        /* \"#utility.yul\":18704:18705   */\n      0x09\n        /* \"#utility.yul\":18699:18702   */\n      dup4\n        /* \"#utility.yul\":18640:18706   */\n      tag_128\n      jump\t// in\n    tag_355:\n        /* \"#utility.yul\":18633:18706   */\n      swap2\n      pop\n        /* \"#utility.yul\":18715:18808   */\n      tag_356\n        /* \"#utility.yul\":18804:18807   */\n      dup3\n        /* \"#utility.yul\":18715:18808   */\n      tag_166\n      jump\t// in\n    tag_356:\n        /* \"#utility.yul\":18833:18835   */\n      0x20\n        /* \"#utility.yul\":18828:18831   */\n      dup3\n        /* \"#utility.yul\":18824:18836   */\n      add\n        /* \"#utility.yul\":18817:18836   */\n      swap1\n      pop\n        /* \"#utility.yul\":18477:18842   */\n      swap2\n      swap1\n      pop\n      jump\t// out\n        /* \"#utility.yul\":18848:19267   */\n    tag_84:\n        /* \"#utility.yul\":19014:19018   */\n      0x00\n        /* \"#utility.yul\":19052:19054   */\n      0x20\n        /* \"#utility.yul\":19041:19050   */\n      dup3\n        /* \"#utility.yul\":19037:19055   */\n      add\n        /* \"#utility.yul\":19029:19055   */\n      swap1\n      pop\n        /* \"#utility.yul\":19101:19110   */\n      dup2\n        /* \"#utility.yul\":19095:19099   */\n      dup2\n        /* \"#utility.yul\":19091:19111   */\n      sub\n        /* \"#utility.yul\":19087:19088   */\n      0x00\n        /* \"#utility.yul\":19076:19085   */\n      dup4\n        /* \"#utility.yul\":19072:19089   */\n      add\n        /* \"#utility.yul\":19065:19112   */\n      mstore\n        /* \"#utility.yul\":19129:19260   */\n      tag_358\n        /* \"#utility.yul\":19255:19259   */\n      dup2\n        /* \"#utility.yul\":19129:19260   */\n      tag_167\n      jump\t// in\n    tag_358:\n        /* \"#utility.yul\":19121:19260   */\n      swap1\n      pop\n        /* \"#utility.yul\":18848:19267   */\n      swap2\n      swap1\n      pop\n      jump\t// out\n\n    auxdata: 0xa2646970667358221220931a7d756f7b1fb9aa093c856c72351761a02b9dba0b126b34f65eefc97f990e64736f6c63430008140033\n}\n","bytecode":{"linkReferences":{},"object":"608060405234801562000010575f80fd5b506040516200171b3803806200171b83398181016040528101906200003691906200021a565b8060029081620000479190620004a0565b505f600181905550335f806101000a81548173ffffffffffffffffffffffffffffffffffffffff021916908373ffffffffffffffffffffffffffffffffffffffff1602179055505062000584565b5f604051905090565b5f80fd5b5f80fd5b5f80fd5b5f80fd5b5f601f19601f8301169050919050565b7f4e487b71000000000000000000000000000000000000000000000000000000005f52604160045260245ffd5b620000f682620000ae565b810181811067ffffffffffffffff82111715620001185762000117620000be565b5b80604052505050565b5f6200012c62000095565b90506200013a8282620000eb565b919050565b5f67ffffffffffffffff8211156200015c576200015b620000be565b5b6200016782620000ae565b9050602081019050919050565b5f5b838110156200019357808201518184015260208101905062000176565b5f8484015250505050565b5f620001b4620001ae846200013f565b62000121565b905082815260208101848484011115620001d357620001d2620000aa565b5b620001e084828562000174565b509392505050565b5f82601f830112620001ff57620001fe620000a6565b5b8151620002118482602086016200019e565b91505092915050565b5f602082840312156200023257620002316200009e565b5b5f82015167ffffffffffffffff811115620002525762000251620000a2565b5b6200026084828501620001e8565b91505092915050565b5f81519050919050565b7f4e487b71000000000000000000000000000000000000000000000000000000005f52602260045260245ffd5b5f6002820490506001821680620002b857607f821691505b602082108103620002ce57620002cd62000273565b5b50919050565b5f819050815f5260205f209050919050565b5f6020601f8301049050919050565b5f82821b905092915050565b5f60088302620003327fffffffffffffffffffffffffffffffffffffffffffffffffffffffffffffffff82620002f5565b6200033e8683620002f5565b95508019841693508086168417925050509392505050565b5f819050919050565b5f819050919050565b5f62000388620003826200037c8462000356565b6200035f565b62000356565b9050919050565b5f819050919050565b620003a38362000368565b620003bb620003b2826200038f565b84845462000301565b825550505050565b5f90565b620003d1620003c3565b620003de81848462000398565b505050565b5b818110156200040557620003f95f82620003c7565b600181019050620003e4565b5050565b601f82111562000454576200041e81620002d4565b6200042984620002e6565b8101602085101562000439578190505b620004516200044885620002e6565b830182620003e3565b50505b505050565b5f82821c905092915050565b5f620004765f198460080262000459565b1980831691505092915050565b5f62000490838362000465565b9150826002028217905092915050565b620004ab8262000269565b67ffffffffffffffff811115620004c757620004c6620000be565b5b620004d38254620002a0565b620004e082828562000409565b5f60209050601f83116001811462000516575f841562000501578287015190505b6200050d858262000483565b8655506200057c565b601f1984166200052686620002d4565b5f5b828110156200054f5784890151825560018201915060208501945060208101905062000528565b868310156200056f57848901516200056b601f89168262000465565b8355505b6001600288020188555050505b505050505050565b61118980620005925f395ff3fe608060405234801561000f575f80fd5b506004361061007b575f3560e01c806333ec93161161005957806333ec9316146100d7578063462e91ec146100f5578063a3ec138d14610111578063dfbf53ae146101415761007b565b80630121b93f1461007f57806306a49fce1461009b57806306fdde03146100b9575b5f80fd5b61009960048036038101906100949190610805565b61015f565b005b6100a36102ca565b6040516100b091906109d1565b60405180910390f35b6100c16103c9565b6040516100ce9190610a39565b60405180910390f35b6100df610455565b6040516100ec9190610a68565b60405180910390f35b61010f600480360381019061010a9190610bad565b61045b565b005b61012b60048036038101906101269190610c4e565b6104e9565b6040516101389190610c93565b60405180910390f35b61014961050f565b6040516101569190610cf9565b60405180910390f35b60045f3373ffffffffffffffffffffffffffffffffffffffff1673ffffffffffffffffffffffffffffffffffffffff1681526020019081526020015f205f015f9054906101000a900460ff16156101eb576040517f08c379a00000000000000000000000000000000000000000000000000000000081526004016101e290610d63565b60405180910390fd5b5f5b60038054905081101561026f576003818154811061020e5761020d610d81565b5b905f5260205f2090600302015f0154820361025c576003818154811061023757610236610d81565b5b905f5260205f2090600302016002015f81548092919061025690610ddb565b91905055505b808061026790610ddb565b9150506101ed565b50600160045f3373ffffffffffffffffffffffffffffffffffffffff1673ffffffffffffffffffffffffffffffffffffffff1681526020019081526020015f205f015f6101000a81548160ff02191690831515021790555050565b60606003805480602002602001604051908101604052809291908181526020015f905b828210156103c0578382905f5260205f2090600302016040518060600160405290815f820154815260200160018201805461032790610e4f565b80601f016020809104026020016040519081016040528092919081815260200182805461035390610e4f565b801561039e5780601f106103755761010080835404028352916020019161039e565b820191905f5260205f20905b81548152906001019060200180831161038157829003601f168201915b50505050508152602001600282015481525050815260200190600101906102ed565b50505050905090565b600280546103d690610e4f565b80601f016020809104026020016040519081016040528092919081815260200182805461040290610e4f565b801561044d5780601f106104245761010080835404028352916020019161044d565b820191905f5260205f20905b81548152906001019060200180831161043057829003601f168201915b505050505081565b60015481565b5f604051806060016040528060015481526020018381526020015f8152509050600381908060018154018082558091505060019003905f5260205f2090600302015f909190919091505f820151815f015560208201518160010190816104c1919061101c565b5060408201518160020155505060015f8154809291906104e090610ddb565b91905055505050565b6004602052805f5260405f205f91509050805f015f9054906101000a900460ff16905081565b6105176107a2565b3373ffffffffffffffffffffffffffffffffffffffff165f8054906101000a900473ffffffffffffffffffffffffffffffffffffffff1673ffffffffffffffffffffffffffffffffffffffff16146105a4576040517f08c379a000000000000000000000000000000000000000000000000000000000815260040161059b90611135565b60405180910390fd5b5f60035f815481106105b9576105b8610d81565b5b905f5260205f2090600302016040518060600160405290815f82015481526020016001820180546105e990610e4f565b80601f016020809104026020016040519081016040528092919081815260200182805461061590610e4f565b80156106605780601f1061063757610100808354040283529160200191610660565b820191905f5260205f20905b81548152906001019060200180831161064357829003601f168201915b5050505050815260200160028201548152505090505f60038054905090505f600190505b8181101561079957600381815481106106a05761069f610d81565b5b905f5260205f209060030201600201548360400151101561078c57600381815481106106cf576106ce610d81565b5b905f5260205f2090600302016040518060600160405290815f82015481526020016001820180546106ff90610e4f565b80601f016020809104026020016040519081016040528092919081815260200182805461072b90610e4f565b80156107765780601f1061074d57610100808354040283529160200191610776565b820191905f5260205f20905b81548152906001019060200180831161075957829003601f168201915b5050505050815260200160028201548152505092505b8080600101915050610684565b50819250505090565b60405180606001604052805f8152602001606081526020015f81525090565b5f604051905090565b5f80fd5b5f80fd5b5f819050919050565b6107e4816107d2565b81146107ee575f80fd5b50565b5f813590506107ff816107db565b92915050565b5f6020828403121561081a576108196107ca565b5b5f610827848285016107f1565b91505092915050565b5f81519050919050565b5f82825260208201905092915050565b5f819050602082019050919050565b610862816107d2565b82525050565b5f81519050919050565b5f82825260208201905092915050565b5f5b8381101561089f578082015181840152602081019050610884565b5f8484015250505050565b5f601f19601f8301169050919050565b5f6108c482610868565b6108ce8185610872565b93506108de818560208601610882565b6108e7816108aa565b840191505092915050565b5f606083015f8301516109075f860182610859565b506020830151848203602086015261091f82826108ba565b91505060408301516109346040860182610859565b508091505092915050565b5f61094a83836108f2565b905092915050565b5f602082019050919050565b5f61096882610830565b610972818561083a565b9350836020820285016109848561084a565b805f5b858110156109bf57848403895281516109a0858261093f565b94506109ab83610952565b925060208a01995050600181019050610987565b50829750879550505050505092915050565b5f6020820190508181035f8301526109e9818461095e565b905092915050565b5f82825260208201905092915050565b5f610a0b82610868565b610a1581856109f1565b9350610a25818560208601610882565b610a2e816108aa565b840191505092915050565b5f6020820190508181035f830152610a518184610a01565b905092915050565b610a62816107d2565b82525050565b5f602082019050610a7b5f830184610a59565b92915050565b5f80fd5b5f80fd5b7f4e487b71000000000000000000000000000000000000000000000000000000005f52604160045260245ffd5b610abf826108aa565b810181811067ffffffffffffffff82111715610ade57610add610a89565b5b80604052505050565b5f610af06107c1565b9050610afc8282610ab6565b919050565b5f67ffffffffffffffff821115610b1b57610b1a610a89565b5b610b24826108aa565b9050602081019050919050565b828183375f83830152505050565b5f610b51610b4c84610b01565b610ae7565b905082815260208101848484011115610b6d57610b6c610a85565b5b610b78848285610b31565b509392505050565b5f82601f830112610b9457610b93610a81565b5b8135610ba4848260208601610b3f565b91505092915050565b5f60208284031215610bc257610bc16107ca565b5b5f82013567ffffffffffffffff811115610bdf57610bde6107ce565b5b610beb84828501610b80565b91505092915050565b5f73ffffffffffffffffffffffffffffffffffffffff82169050919050565b5f610c1d82610bf4565b9050919050565b610c2d81610c13565b8114610c37575f80fd5b50565b5f81359050610c4881610c24565b92915050565b5f60208284031215610c6357610c626107ca565b5b5f610c7084828501610c3a565b91505092915050565b5f8115159050919050565b610c8d81610c79565b82525050565b5f602082019050610ca65f830184610c84565b92915050565b5f606083015f830151610cc15f860182610859565b5060208301518482036020860152610cd982826108ba565b9150506040830151610cee6040860182610859565b508091505092915050565b5f6020820190508181035f830152610d118184610cac565b905092915050565b7f5468697320706572736f6e20616c726561647920766f746564000000000000005f82015250565b5f610d4d6019836109f1565b9150610d5882610d19565b602082019050919050565b5f6020820190508181035f830152610d7a81610d41565b9050919050565b7f4e487b71000000000000000000000000000000000000000000000000000000005f52603260045260245ffd5b7f4e487b71000000000000000000000000000000000000000000000000000000005f52601160045260245ffd5b5f610de5826107d2565b91507fffffffffffffffffffffffffffffffffffffffffffffffffffffffffffffffff8203610e1757610e16610dae565b5b600182019050919050565b7f4e487b71000000000000000000000000000000000000000000000000000000005f52602260045260245ffd5b5f6002820490506001821680610e6657607f821691505b602082108103610e7957610e78610e22565b5b50919050565b5f819050815f5260205f209050919050565b5f6020601f8301049050919050565b5f82821b905092915050565b5f60088302610edb7fffffffffffffffffffffffffffffffffffffffffffffffffffffffffffffffff82610ea0565b610ee58683610ea0565b95508019841693508086168417925050509392505050565b5f819050919050565b5f610f20610f1b610f16846107d2565b610efd565b6107d2565b9050919050565b5f819050919050565b610f3983610f06565b610f4d610f4582610f27565b848454610eac565b825550505050565b5f90565b610f61610f55565b610f6c818484610f30565b505050565b5b81811015610f8f57610f845f82610f59565b600181019050610f72565b5050565b601f821115610fd457610fa581610e7f565b610fae84610e91565b81016020851015610fbd578190505b610fd1610fc985610e91565b830182610f71565b50505b505050565b5f82821c905092915050565b5f610ff45f1984600802610fd9565b1980831691505092915050565b5f61100c8383610fe5565b9150826002028217905092915050565b61102582610868565b67ffffffffffffffff81111561103e5761103d610a89565b5b6110488254610e4f565b611053828285610f93565b5f60209050601f831160018114611084575f8415611072578287015190505b61107c8582611001565b8655506110e3565b601f19841661109286610e7f565b5f5b828110156110b957848901518255600182019150602085019450602081019050611094565b868310156110d657848901516110d2601f891682610fe5565b8355505b6001600288020188555050505b505050505050565b7f4e6f74206f776e657200000000000000000000000000000000000000000000005f82015250565b5f61111f6009836109f1565b915061112a826110eb565b602082019050919050565b5f6020820190508181035f83015261114c81611113565b905091905056fea2646970667358221220931a7d756f7b1fb9aa093c856c72351761a02b9dba0b126b34f65eefc97f990e64736f6c63430008140033","opcodes":"PUSH1 0x80 PUSH1 0x40 MSTORE CALLVALUE DUP1 ISZERO PUSH3 0x10 JUMPI PUSH0 DUP1 REVERT JUMPDEST POP PUSH1 0x40 MLOAD PUSH3 0x171B CODESIZE SUB DUP1 PUSH3 0x171B DUP4 CODECOPY DUP2 DUP2 ADD PUSH1 0x40 MSTORE DUP2 ADD SWAP1 PUSH3 0x36 SWAP2 SWAP1 PUSH3 0x21A JUMP JUMPDEST DUP1 PUSH1 0x2 SWAP1 DUP2 PUSH3 0x47 SWAP2 SWAP1 PUSH3 0x4A0 JUMP JUMPDEST POP PUSH0 PUSH1 0x1 DUP2 SWAP1 SSTORE POP CALLER PUSH0 DUP1 PUSH2 0x100 EXP DUP2 SLOAD DUP2 PUSH20 0xFFFFFFFFFFFFFFFFFFFFFFFFFFFFFFFFFFFFFFFF MUL NOT AND SWAP1 DUP4 PUSH20 0xFFFFFFFFFFFFFFFFFFFFFFFFFFFFFFFFFFFFFFFF AND MUL OR SWAP1 SSTORE POP POP PUSH3 0x584 JUMP JUMPDEST PUSH0 PUSH1 0x40 MLOAD SWAP1 POP SWAP1 JUMP JUMPDEST PUSH0 DUP1 REVERT JUMPDEST PUSH0 DUP1 REVERT JUMPDEST PUSH0 DUP1 REVERT JUMPDEST PUSH0 DUP1 REVERT JUMPDEST PUSH0 PUSH1 0x1F NOT PUSH1 0x1F DUP4 ADD AND SWAP1 POP SWAP2 SWAP1 POP JUMP JUMPDEST PUSH32 0x4E487B7100000000000000000000000000000000000000000000000000000000 PUSH0 MSTORE PUSH1 0x41 PUSH1 0x4 MSTORE PUSH1 0x24 PUSH0 REVERT JUMPDEST PUSH3 0xF6 DUP3 PUSH3 0xAE JUMP JUMPDEST DUP2 ADD DUP2 DUP2 LT PUSH8 0xFFFFFFFFFFFFFFFF DUP3 GT OR ISZERO PUSH3 0x118 JUMPI PUSH3 0x117 PUSH3 0xBE JUMP JUMPDEST JUMPDEST DUP1 PUSH1 0x40 MSTORE POP POP POP JUMP JUMPDEST PUSH0 PUSH3 0x12C PUSH3 0x95 JUMP JUMPDEST SWAP1 POP PUSH3 0x13A DUP3 DUP3 PUSH3 0xEB JUMP JUMPDEST SWAP2 SWAP1 POP JUMP JUMPDEST PUSH0 PUSH8 0xFFFFFFFFFFFFFFFF DUP3 GT ISZERO PUSH3 0x15C JUMPI PUSH3 0x15B PUSH3 0xBE JUMP JUMPDEST JUMPDEST PUSH3 0x167 DUP3 PUSH3 0xAE JUMP JUMPDEST SWAP1 POP PUSH1 0x20 DUP2 ADD SWAP1 POP SWAP2 SWAP1 POP JUMP JUMPDEST PUSH0 JUMPDEST DUP4 DUP2 LT ISZERO PUSH3 0x193 JUMPI DUP1 DUP3 ADD MLOAD DUP2 DUP5 ADD MSTORE PUSH1 0x20 DUP2 ADD SWAP1 POP PUSH3 0x176 JUMP JUMPDEST PUSH0 DUP5 DUP5 ADD MSTORE POP POP POP POP JUMP JUMPDEST PUSH0 PUSH3 0x1B4 PUSH3 0x1AE DUP5 PUSH3 0x13F JUMP JUMPDEST PUSH3 0x121 JUMP JUMPDEST SWAP1 POP DUP3 DUP2 MSTORE PUSH1 0x20 DUP2 ADD DUP5 DUP5 DUP5 ADD GT ISZERO PUSH3 0x1D3 JUMPI PUSH3 0x1D2 PUSH3 0xAA JUMP JUMPDEST JUMPDEST PUSH3 0x1E0 DUP5 DUP3 DUP6 PUSH3 0x174 JUMP JUMPDEST POP SWAP4 SWAP3 POP POP POP JUMP JUMPDEST PUSH0 DUP3 PUSH1 0x1F DUP4 ADD SLT PUSH3 0x1FF JUMPI PUSH3 0x1FE PUSH3 0xA6 JUMP JUMPDEST JUMPDEST DUP2 MLOAD PUSH3 0x211 DUP5 DUP3 PUSH1 0x20 DUP7 ADD PUSH3 0x19E JUMP JUMPDEST SWAP2 POP POP SWAP3 SWAP2 POP POP JUMP JUMPDEST PUSH0 PUSH1 0x20 DUP3 DUP5 SUB SLT ISZERO PUSH3 0x232 JUMPI PUSH3 0x231 PUSH3 0x9E JUMP JUMPDEST JUMPDEST PUSH0 DUP3 ADD MLOAD PUSH8 0xFFFFFFFFFFFFFFFF DUP2 GT ISZERO PUSH3 0x252 JUMPI PUSH3 0x251 PUSH3 0xA2 JUMP JUMPDEST JUMPDEST PUSH3 0x260 DUP5 DUP3 DUP6 ADD PUSH3 0x1E8 JUMP JUMPDEST SWAP2 POP POP SWAP3 SWAP2 POP POP JUMP JUMPDEST PUSH0 DUP2 MLOAD SWAP1 POP SWAP2 SWAP1 POP JUMP JUMPDEST PUSH32 0x4E487B7100000000000000000000000000000000000000000000000000000000 PUSH0 MSTORE PUSH1 0x22 PUSH1 0x4 MSTORE PUSH1 0x24 PUSH0 REVERT JUMPDEST PUSH0 PUSH1 0x2 DUP3 DIV SWAP1 POP PUSH1 0x1 DUP3 AND DUP1 PUSH3 0x2B8 JUMPI PUSH1 0x7F DUP3 AND SWAP2 POP JUMPDEST PUSH1 0x20 DUP3 LT DUP2 SUB PUSH3 0x2CE JUMPI PUSH3 0x2CD PUSH3 0x273 JUMP JUMPDEST JUMPDEST POP SWAP2 SWAP1 POP JUMP JUMPDEST PUSH0 DUP2 SWAP1 POP DUP2 PUSH0 MSTORE PUSH1 0x20 PUSH0 KECCAK256 SWAP1 POP SWAP2 SWAP1 POP JUMP JUMPDEST PUSH0 PUSH1 0x20 PUSH1 0x1F DUP4 ADD DIV SWAP1 POP SWAP2 SWAP1 POP JUMP JUMPDEST PUSH0 DUP3 DUP3 SHL SWAP1 POP SWAP3 SWAP2 POP POP JUMP JUMPDEST PUSH0 PUSH1 0x8 DUP4 MUL PUSH3 0x332 PUSH32 0xFFFFFFFFFFFFFFFFFFFFFFFFFFFFFFFFFFFFFFFFFFFFFFFFFFFFFFFFFFFFFFFF DUP3 PUSH3 0x2F5 JUMP JUMPDEST PUSH3 0x33E DUP7 DUP4 PUSH3 0x2F5 JUMP JUMPDEST SWAP6 POP DUP1 NOT DUP5 AND SWAP4 POP DUP1 DUP7 AND DUP5 OR SWAP3 POP POP POP SWAP4 SWAP3 POP POP POP JUMP JUMPDEST PUSH0 DUP2 SWAP1 POP SWAP2 SWAP1 POP JUMP JUMPDEST PUSH0 DUP2 SWAP1 POP SWAP2 SWAP1 POP JUMP JUMPDEST PUSH0 PUSH3 0x388 PUSH3 0x382 PUSH3 0x37C DUP5 PUSH3 0x356 JUMP JUMPDEST PUSH3 0x35F JUMP JUMPDEST PUSH3 0x356 JUMP JUMPDEST SWAP1 POP SWAP2 SWAP1 POP JUMP JUMPDEST PUSH0 DUP2 SWAP1 POP SWAP2 SWAP1 POP JUMP JUMPDEST PUSH3 0x3A3 DUP4 PUSH3 0x368 JUMP JUMPDEST PUSH3 0x3BB PUSH3 0x3B2 DUP3 PUSH3 0x38F JUMP JUMPDEST DUP5 DUP5 SLOAD PUSH3 0x301 JUMP JUMPDEST DUP3 SSTORE POP POP POP POP JUMP JUMPDEST PUSH0 SWAP1 JUMP JUMPDEST PUSH3 0x3D1 PUSH3 0x3C3 JUMP JUMPDEST PUSH3 0x3DE DUP2 DUP5 DUP5 PUSH3 0x398 JUMP JUMPDEST POP POP POP JUMP JUMPDEST JUMPDEST DUP2 DUP2 LT ISZERO PUSH3 0x405 JUMPI PUSH3 0x3F9 PUSH0 DUP3 PUSH3 0x3C7 JUMP JUMPDEST PUSH1 0x1 DUP2 ADD SWAP1 POP PUSH3 0x3E4 JUMP JUMPDEST POP POP JUMP JUMPDEST PUSH1 0x1F DUP3 GT ISZERO PUSH3 0x454 JUMPI PUSH3 0x41E DUP2 PUSH3 0x2D4 JUMP JUMPDEST PUSH3 0x429 DUP5 PUSH3 0x2E6 JUMP JUMPDEST DUP2 ADD PUSH1 0x20 DUP6 LT ISZERO PUSH3 0x439 JUMPI DUP2 SWAP1 POP JUMPDEST PUSH3 0x451 PUSH3 0x448 DUP6 PUSH3 0x2E6 JUMP JUMPDEST DUP4 ADD DUP3 PUSH3 0x3E3 JUMP JUMPDEST POP POP JUMPDEST POP POP POP JUMP JUMPDEST PUSH0 DUP3 DUP3 SHR SWAP1 POP SWAP3 SWAP2 POP POP JUMP JUMPDEST PUSH0 PUSH3 0x476 PUSH0 NOT DUP5 PUSH1 0x8 MUL PUSH3 0x459 JUMP JUMPDEST NOT DUP1 DUP4 AND SWAP2 POP POP SWAP3 SWAP2 POP POP JUMP JUMPDEST PUSH0 PUSH3 0x490 DUP4 DUP4 PUSH3 0x465 JUMP JUMPDEST SWAP2 POP DUP3 PUSH1 0x2 MUL DUP3 OR SWAP1 POP SWAP3 SWAP2 POP POP JUMP JUMPDEST PUSH3 0x4AB DUP3 PUSH3 0x269 JUMP JUMPDEST PUSH8 0xFFFFFFFFFFFFFFFF DUP2 GT ISZERO PUSH3 0x4C7 JUMPI PUSH3 0x4C6 PUSH3 0xBE JUMP JUMPDEST JUMPDEST PUSH3 0x4D3 DUP3 SLOAD PUSH3 0x2A0 JUMP JUMPDEST PUSH3 0x4E0 DUP3 DUP3 DUP6 PUSH3 0x409 JUMP JUMPDEST PUSH0 PUSH1 0x20 SWAP1 POP PUSH1 0x1F DUP4 GT PUSH1 0x1 DUP2 EQ PUSH3 0x516 JUMPI PUSH0 DUP5 ISZERO PUSH3 0x501 JUMPI DUP3 DUP8 ADD MLOAD SWAP1 POP JUMPDEST PUSH3 0x50D DUP6 DUP3 PUSH3 0x483 JUMP JUMPDEST DUP7 SSTORE POP PUSH3 0x57C JUMP JUMPDEST PUSH1 0x1F NOT DUP5 AND PUSH3 0x526 DUP7 PUSH3 0x2D4 JUMP JUMPDEST PUSH0 JUMPDEST DUP3 DUP2 LT ISZERO PUSH3 0x54F JUMPI DUP5 DUP10 ADD MLOAD DUP3 SSTORE PUSH1 0x1 DUP3 ADD SWAP2 POP PUSH1 0x20 DUP6 ADD SWAP5 POP PUSH1 0x20 DUP2 ADD SWAP1 POP PUSH3 0x528 JUMP JUMPDEST DUP7 DUP4 LT ISZERO PUSH3 0x56F JUMPI DUP5 DUP10 ADD MLOAD PUSH3 0x56B PUSH1 0x1F DUP10 AND DUP3 PUSH3 0x465 JUMP JUMPDEST DUP4 SSTORE POP JUMPDEST PUSH1 0x1 PUSH1 0x2 DUP9 MUL ADD DUP9 SSTORE POP POP POP JUMPDEST POP POP POP POP POP POP JUMP JUMPDEST PUSH2 0x1189 DUP1 PUSH3 0x592 PUSH0 CODECOPY PUSH0 RETURN INVALID PUSH1 0x80 PUSH1 0x40 MSTORE CALLVALUE DUP1 ISZERO PUSH2 0xF JUMPI PUSH0 DUP1 REVERT JUMPDEST POP PUSH1 0x4 CALLDATASIZE LT PUSH2 0x7B JUMPI PUSH0 CALLDATALOAD PUSH1 0xE0 SHR DUP1 PUSH4 0x33EC9316 GT PUSH2 0x59 JUMPI DUP1 PUSH4 0x33EC9316 EQ PUSH2 0xD7 JUMPI DUP1 PUSH4 0x462E91EC EQ PUSH2 0xF5 JUMPI DUP1 PUSH4 0xA3EC138D EQ PUSH2 0x111 JUMPI DUP1 PUSH4 0xDFBF53AE EQ PUSH2 0x141 JUMPI PUSH2 0x7B JUMP JUMPDEST DUP1 PUSH4 0x121B93F EQ PUSH2 0x7F JUMPI DUP1 PUSH4 0x6A49FCE EQ PUSH2 0x9B JUMPI DUP1 PUSH4 0x6FDDE03 EQ PUSH2 0xB9 JUMPI JUMPDEST PUSH0 DUP1 REVERT JUMPDEST PUSH2 0x99 PUSH1 0x4 DUP1 CALLDATASIZE SUB DUP2 ADD SWAP1 PUSH2 0x94 SWAP2 SWAP1 PUSH2 0x805 JUMP JUMPDEST PUSH2 0x15F JUMP JUMPDEST STOP JUMPDEST PUSH2 0xA3 PUSH2 0x2CA JUMP JUMPDEST PUSH1 0x40 MLOAD PUSH2 0xB0 SWAP2 SWAP1 PUSH2 0x9D1 JUMP JUMPDEST PUSH1 0x40 MLOAD DUP1 SWAP2 SUB SWAP1 RETURN JUMPDEST PUSH2 0xC1 PUSH2 0x3C9 JUMP JUMPDEST PUSH1 0x40 MLOAD PUSH2 0xCE SWAP2 SWAP1 PUSH2 0xA39 JUMP JUMPDEST PUSH1 0x40 MLOAD DUP1 SWAP2 SUB SWAP1 RETURN JUMPDEST PUSH2 0xDF PUSH2 0x455 JUMP JUMPDEST PUSH1 0x40 MLOAD PUSH2 0xEC SWAP2 SWAP1 PUSH2 0xA68 JUMP JUMPDEST PUSH1 0x40 MLOAD DUP1 SWAP2 SUB SWAP1 RETURN JUMPDEST PUSH2 0x10F PUSH1 0x4 DUP1 CALLDATASIZE SUB DUP2 ADD SWAP1 PUSH2 0x10A SWAP2 SWAP1 PUSH2 0xBAD JUMP JUMPDEST PUSH2 0x45B JUMP JUMPDEST STOP JUMPDEST PUSH2 0x12B PUSH1 0x4 DUP1 CALLDATASIZE SUB DUP2 ADD SWAP1 PUSH2 0x126 SWAP2 SWAP1 PUSH2 0xC4E JUMP JUMPDEST PUSH2 0x4E9 JUMP JUMPDEST PUSH1 0x40 MLOAD PUSH2 0x138 SWAP2 SWAP1 PUSH2 0xC93 JUMP JUMPDEST PUSH1 0x40 MLOAD DUP1 SWAP2 SUB SWAP1 RETURN JUMPDEST PUSH2 0x149 PUSH2 0x50F JUMP JUMPDEST PUSH1 0x40 MLOAD PUSH2 0x156 SWAP2 SWAP1 PUSH2 0xCF9 JUMP JUMPDEST PUSH1 0x40 MLOAD DUP1 SWAP2 SUB SWAP1 RETURN JUMPDEST PUSH1 0x4 PUSH0 CALLER PUSH20 0xFFFFFFFFFFFFFFFFFFFFFFFFFFFFFFFFFFFFFFFF AND PUSH20 0xFFFFFFFFFFFFFFFFFFFFFFFFFFFFFFFFFFFFFFFF AND DUP2 MSTORE PUSH1 0x20 ADD SWAP1 DUP2 MSTORE PUSH1 0x20 ADD PUSH0 KECCAK256 PUSH0 ADD PUSH0 SWAP1 SLOAD SWAP1 PUSH2 0x100 EXP SWAP1 DIV PUSH1 0xFF AND ISZERO PUSH2 0x1EB JUMPI PUSH1 0x40 MLOAD PUSH32 0x8C379A000000000000000000000000000000000000000000000000000000000 DUP2 MSTORE PUSH1 0x4 ADD PUSH2 0x1E2 SWAP1 PUSH2 0xD63 JUMP JUMPDEST PUSH1 0x40 MLOAD DUP1 SWAP2 SUB SWAP1 REVERT JUMPDEST PUSH0 JUMPDEST PUSH1 0x3 DUP1 SLOAD SWAP1 POP DUP2 LT ISZERO PUSH2 0x26F JUMPI PUSH1 0x3 DUP2 DUP2 SLOAD DUP2 LT PUSH2 0x20E JUMPI PUSH2 0x20D PUSH2 0xD81 JUMP JUMPDEST JUMPDEST SWAP1 PUSH0 MSTORE PUSH1 0x20 PUSH0 KECCAK256 SWAP1 PUSH1 0x3 MUL ADD PUSH0 ADD SLOAD DUP3 SUB PUSH2 0x25C JUMPI PUSH1 0x3 DUP2 DUP2 SLOAD DUP2 LT PUSH2 0x237 JUMPI PUSH2 0x236 PUSH2 0xD81 JUMP JUMPDEST JUMPDEST SWAP1 PUSH0 MSTORE PUSH1 0x20 PUSH0 KECCAK256 SWAP1 PUSH1 0x3 MUL ADD PUSH1 0x2 ADD PUSH0 DUP2 SLOAD DUP1 SWAP3 SWAP2 SWAP1 PUSH2 0x256 SWAP1 PUSH2 0xDDB JUMP JUMPDEST SWAP2 SWAP1 POP SSTORE POP JUMPDEST DUP1 DUP1 PUSH2 0x267 SWAP1 PUSH2 0xDDB JUMP JUMPDEST SWAP2 POP POP PUSH2 0x1ED JUMP JUMPDEST POP PUSH1 0x1 PUSH1 0x4 PUSH0 CALLER PUSH20 0xFFFFFFFFFFFFFFFFFFFFFFFFFFFFFFFFFFFFFFFF AND PUSH20 0xFFFFFFFFFFFFFFFFFFFFFFFFFFFFFFFFFFFFFFFF AND DUP2 MSTORE PUSH1 0x20 ADD SWAP1 DUP2 MSTORE PUSH1 0x20 ADD PUSH0 KECCAK256 PUSH0 ADD PUSH0 PUSH2 0x100 EXP DUP2 SLOAD DUP2 PUSH1 0xFF MUL NOT AND SWAP1 DUP4 ISZERO ISZERO MUL OR SWAP1 SSTORE POP POP JUMP JUMPDEST PUSH1 0x60 PUSH1 0x3 DUP1 SLOAD DUP1 PUSH1 0x20 MUL PUSH1 0x20 ADD PUSH1 0x40 MLOAD SWAP1 DUP2 ADD PUSH1 0x40 MSTORE DUP1 SWAP3 SWAP2 SWAP1 DUP2 DUP2 MSTORE PUSH1 0x20 ADD PUSH0 SWAP1 JUMPDEST DUP3 DUP3 LT ISZERO PUSH2 0x3C0 JUMPI DUP4 DUP3 SWAP1 PUSH0 MSTORE PUSH1 0x20 PUSH0 KECCAK256 SWAP1 PUSH1 0x3 MUL ADD PUSH1 0x40 MLOAD DUP1 PUSH1 0x60 ADD PUSH1 0x40 MSTORE SWAP1 DUP2 PUSH0 DUP3 ADD SLOAD DUP2 MSTORE PUSH1 0x20 ADD PUSH1 0x1 DUP3 ADD DUP1 SLOAD PUSH2 0x327 SWAP1 PUSH2 0xE4F JUMP JUMPDEST DUP1 PUSH1 0x1F ADD PUSH1 0x20 DUP1 SWAP2 DIV MUL PUSH1 0x20 ADD PUSH1 0x40 MLOAD SWAP1 DUP2 ADD PUSH1 0x40 MSTORE DUP1 SWAP3 SWAP2 SWAP1 DUP2 DUP2 MSTORE PUSH1 0x20 ADD DUP3 DUP1 SLOAD PUSH2 0x353 SWAP1 PUSH2 0xE4F JUMP JUMPDEST DUP1 ISZERO PUSH2 0x39E JUMPI DUP1 PUSH1 0x1F LT PUSH2 0x375 JUMPI PUSH2 0x100 DUP1 DUP4 SLOAD DIV MUL DUP4 MSTORE SWAP2 PUSH1 0x20 ADD SWAP2 PUSH2 0x39E JUMP JUMPDEST DUP3 ADD SWAP2 SWAP1 PUSH0 MSTORE PUSH1 0x20 PUSH0 KECCAK256 SWAP1 JUMPDEST DUP2 SLOAD DUP2 MSTORE SWAP1 PUSH1 0x1 ADD SWAP1 PUSH1 0x20 ADD DUP1 DUP4 GT PUSH2 0x381 JUMPI DUP3 SWAP1 SUB PUSH1 0x1F AND DUP3 ADD SWAP2 JUMPDEST POP POP POP POP POP DUP2 MSTORE PUSH1 0x20 ADD PUSH1 0x2 DUP3 ADD SLOAD DUP2 MSTORE POP POP DUP2 MSTORE PUSH1 0x20 ADD SWAP1 PUSH1 0x1 ADD SWAP1 PUSH2 0x2ED JUMP JUMPDEST POP POP POP POP SWAP1 POP SWAP1 JUMP JUMPDEST PUSH1 0x2 DUP1 SLOAD PUSH2 0x3D6 SWAP1 PUSH2 0xE4F JUMP JUMPDEST DUP1 PUSH1 0x1F ADD PUSH1 0x20 DUP1 SWAP2 DIV MUL PUSH1 0x20 ADD PUSH1 0x40 MLOAD SWAP1 DUP2 ADD PUSH1 0x40 MSTORE DUP1 SWAP3 SWAP2 SWAP1 DUP2 DUP2 MSTORE PUSH1 0x20 ADD DUP3 DUP1 SLOAD PUSH2 0x402 SWAP1 PUSH2 0xE4F JUMP JUMPDEST DUP1 ISZERO PUSH2 0x44D JUMPI DUP1 PUSH1 0x1F LT PUSH2 0x424 JUMPI PUSH2 0x100 DUP1 DUP4 SLOAD DIV MUL DUP4 MSTORE SWAP2 PUSH1 0x20 ADD SWAP2 PUSH2 0x44D JUMP JUMPDEST DUP3 ADD SWAP2 SWAP1 PUSH0 MSTORE PUSH1 0x20 PUSH0 KECCAK256 SWAP1 JUMPDEST DUP2 SLOAD DUP2 MSTORE SWAP1 PUSH1 0x1 ADD SWAP1 PUSH1 0x20 ADD DUP1 DUP4 GT PUSH2 0x430 JUMPI DUP3 SWAP1 SUB PUSH1 0x1F AND DUP3 ADD SWAP2 JUMPDEST POP POP POP POP POP DUP2 JUMP JUMPDEST PUSH1 0x1 SLOAD DUP2 JUMP JUMPDEST PUSH0 PUSH1 0x40 MLOAD DUP1 PUSH1 0x60 ADD PUSH1 0x40 MSTORE DUP1 PUSH1 0x1 SLOAD DUP2 MSTORE PUSH1 0x20 ADD DUP4 DUP2 MSTORE PUSH1 0x20 ADD PUSH0 DUP2 MSTORE POP SWAP1 POP PUSH1 0x3 DUP2 SWAP1 DUP1 PUSH1 0x1 DUP2 SLOAD ADD DUP1 DUP3 SSTORE DUP1 SWAP2 POP POP PUSH1 0x1 SWAP1 SUB SWAP1 PUSH0 MSTORE PUSH1 0x20 PUSH0 KECCAK256 SWAP1 PUSH1 0x3 MUL ADD PUSH0 SWAP1 SWAP2 SWAP1 SWAP2 SWAP1 SWAP2 POP PUSH0 DUP3 ADD MLOAD DUP2 PUSH0 ADD SSTORE PUSH1 0x20 DUP3 ADD MLOAD DUP2 PUSH1 0x1 ADD SWAP1 DUP2 PUSH2 0x4C1 SWAP2 SWAP1 PUSH2 0x101C JUMP JUMPDEST POP PUSH1 0x40 DUP3 ADD MLOAD DUP2 PUSH1 0x2 ADD SSTORE POP POP PUSH1 0x1 PUSH0 DUP2 SLOAD DUP1 SWAP3 SWAP2 SWAP1 PUSH2 0x4E0 SWAP1 PUSH2 0xDDB JUMP JUMPDEST SWAP2 SWAP1 POP SSTORE POP POP POP JUMP JUMPDEST PUSH1 0x4 PUSH1 0x20 MSTORE DUP1 PUSH0 MSTORE PUSH1 0x40 PUSH0 KECCAK256 PUSH0 SWAP2 POP SWAP1 POP DUP1 PUSH0 ADD PUSH0 SWAP1 SLOAD SWAP1 PUSH2 0x100 EXP SWAP1 DIV PUSH1 0xFF AND SWAP1 POP DUP2 JUMP JUMPDEST PUSH2 0x517 PUSH2 0x7A2 JUMP JUMPDEST CALLER PUSH20 0xFFFFFFFFFFFFFFFFFFFFFFFFFFFFFFFFFFFFFFFF AND PUSH0 DUP1 SLOAD SWAP1 PUSH2 0x100 EXP SWAP1 DIV PUSH20 0xFFFFFFFFFFFFFFFFFFFFFFFFFFFFFFFFFFFFFFFF AND PUSH20 0xFFFFFFFFFFFFFFFFFFFFFFFFFFFFFFFFFFFFFFFF AND EQ PUSH2 0x5A4 JUMPI PUSH1 0x40 MLOAD PUSH32 0x8C379A000000000000000000000000000000000000000000000000000000000 DUP2 MSTORE PUSH1 0x4 ADD PUSH2 0x59B SWAP1 PUSH2 0x1135 JUMP JUMPDEST PUSH1 0x40 MLOAD DUP1 SWAP2 SUB SWAP1 REVERT JUMPDEST PUSH0 PUSH1 0x3 PUSH0 DUP2 SLOAD DUP2 LT PUSH2 0x5B9 JUMPI PUSH2 0x5B8 PUSH2 0xD81 JUMP JUMPDEST JUMPDEST SWAP1 PUSH0 MSTORE PUSH1 0x20 PUSH0 KECCAK256 SWAP1 PUSH1 0x3 MUL ADD PUSH1 0x40 MLOAD DUP1 PUSH1 0x60 ADD PUSH1 0x40 MSTORE SWAP1 DUP2 PUSH0 DUP3 ADD SLOAD DUP2 MSTORE PUSH1 0x20 ADD PUSH1 0x1 DUP3 ADD DUP1 SLOAD PUSH2 0x5E9 SWAP1 PUSH2 0xE4F JUMP JUMPDEST DUP1 PUSH1 0x1F ADD PUSH1 0x20 DUP1 SWAP2 DIV MUL PUSH1 0x20 ADD PUSH1 0x40 MLOAD SWAP1 DUP2 ADD PUSH1 0x40 MSTORE DUP1 SWAP3 SWAP2 SWAP1 DUP2 DUP2 MSTORE PUSH1 0x20 ADD DUP3 DUP1 SLOAD PUSH2 0x615 SWAP1 PUSH2 0xE4F JUMP JUMPDEST DUP1 ISZERO PUSH2 0x660 JUMPI DUP1 PUSH1 0x1F LT PUSH2 0x637 JUMPI PUSH2 0x100 DUP1 DUP4 SLOAD DIV MUL DUP4 MSTORE SWAP2 PUSH1 0x20 ADD SWAP2 PUSH2 0x660 JUMP JUMPDEST DUP3 ADD SWAP2 SWAP1 PUSH0 MSTORE PUSH1 0x20 PUSH0 KECCAK256 SWAP1 JUMPDEST DUP2 SLOAD DUP2 MSTORE SWAP1 PUSH1 0x1 ADD SWAP1 PUSH1 0x20 ADD DUP1 DUP4 GT PUSH2 0x643 JUMPI DUP3 SWAP1 SUB PUSH1 0x1F AND DUP3 ADD SWAP2 JUMPDEST POP POP POP POP POP DUP2 MSTORE PUSH1 0x20 ADD PUSH1 0x2 DUP3 ADD SLOAD DUP2 MSTORE POP POP SWAP1 POP PUSH0 PUSH1 0x3 DUP1 SLOAD SWAP1 POP SWAP1 POP PUSH0 PUSH1 0x1 SWAP1 POP JUMPDEST DUP2 DUP2 LT ISZERO PUSH2 0x799 JUMPI PUSH1 0x3 DUP2 DUP2 SLOAD DUP2 LT PUSH2 0x6A0 JUMPI PUSH2 0x69F PUSH2 0xD81 JUMP JUMPDEST JUMPDEST SWAP1 PUSH0 MSTORE PUSH1 0x20 PUSH0 KECCAK256 SWAP1 PUSH1 0x3 MUL ADD PUSH1 0x2 ADD SLOAD DUP4 PUSH1 0x40 ADD MLOAD LT ISZERO PUSH2 0x78C JUMPI PUSH1 0x3 DUP2 DUP2 SLOAD DUP2 LT PUSH2 0x6CF JUMPI PUSH2 0x6CE PUSH2 0xD81 JUMP JUMPDEST JUMPDEST SWAP1 PUSH0 MSTORE PUSH1 0x20 PUSH0 KECCAK256 SWAP1 PUSH1 0x3 MUL ADD PUSH1 0x40 MLOAD DUP1 PUSH1 0x60 ADD PUSH1 0x40 MSTORE SWAP1 DUP2 PUSH0 DUP3 ADD SLOAD DUP2 MSTORE PUSH1 0x20 ADD PUSH1 0x1 DUP3 ADD DUP1 SLOAD PUSH2 0x6FF SWAP1 PUSH2 0xE4F JUMP JUMPDEST DUP1 PUSH1 0x1F ADD PUSH1 0x20 DUP1 SWAP2 DIV MUL PUSH1 0x20 ADD PUSH1 0x40 MLOAD SWAP1 DUP2 ADD PUSH1 0x40 MSTORE DUP1 SWAP3 SWAP2 SWAP1 DUP2 DUP2 MSTORE PUSH1 0x20 ADD DUP3 DUP1 SLOAD PUSH2 0x72B SWAP1 PUSH2 0xE4F JUMP JUMPDEST DUP1 ISZERO PUSH2 0x776 JUMPI DUP1 PUSH1 0x1F LT PUSH2 0x74D JUMPI PUSH2 0x100 DUP1 DUP4 SLOAD DIV MUL DUP4 MSTORE SWAP2 PUSH1 0x20 ADD SWAP2 PUSH2 0x776 JUMP JUMPDEST DUP3 ADD SWAP2 SWAP1 PUSH0 MSTORE PUSH1 0x20 PUSH0 KECCAK256 SWAP1 JUMPDEST DUP2 SLOAD DUP2 MSTORE SWAP1 PUSH1 0x1 ADD SWAP1 PUSH1 0x20 ADD DUP1 DUP4 GT PUSH2 0x759 JUMPI DUP3 SWAP1 SUB PUSH1 0x1F AND DUP3 ADD SWAP2 JUMPDEST POP POP POP POP POP DUP2 MSTORE PUSH1 0x20 ADD PUSH1 0x2 DUP3 ADD SLOAD DUP2 MSTORE POP POP SWAP3 POP JUMPDEST DUP1 DUP1 PUSH1 0x1 ADD SWAP2 POP POP PUSH2 0x684 JUMP JUMPDEST POP DUP2 SWAP3 POP POP POP SWAP1 JUMP JUMPDEST PUSH1 0x40 MLOAD DUP1 PUSH1 0x60 ADD PUSH1 0x40 MSTORE DUP1 PUSH0 DUP2 MSTORE PUSH1 0x20 ADD PUSH1 0x60 DUP2 MSTORE PUSH1 0x20 ADD PUSH0 DUP2 MSTORE POP SWAP1 JUMP JUMPDEST PUSH0 PUSH1 0x40 MLOAD SWAP1 POP SWAP1 JUMP JUMPDEST PUSH0 DUP1 REVERT JUMPDEST PUSH0 DUP1 REVERT JUMPDEST PUSH0 DUP2 SWAP1 POP SWAP2 SWAP1 POP JUMP JUMPDEST PUSH2 0x7E4 DUP2 PUSH2 0x7D2 JUMP JUMPDEST DUP2 EQ PUSH2 0x7EE JUMPI PUSH0 DUP1 REVERT JUMPDEST POP JUMP JUMPDEST PUSH0 DUP2 CALLDATALOAD SWAP1 POP PUSH2 0x7FF DUP2 PUSH2 0x7DB JUMP JUMPDEST SWAP3 SWAP2 POP POP JUMP JUMPDEST PUSH0 PUSH1 0x20 DUP3 DUP5 SUB SLT ISZERO PUSH2 0x81A JUMPI PUSH2 0x819 PUSH2 0x7CA JUMP JUMPDEST JUMPDEST PUSH0 PUSH2 0x827 DUP5 DUP3 DUP6 ADD PUSH2 0x7F1 JUMP JUMPDEST SWAP2 POP POP SWAP3 SWAP2 POP POP JUMP JUMPDEST PUSH0 DUP2 MLOAD SWAP1 POP SWAP2 SWAP1 POP JUMP JUMPDEST PUSH0 DUP3 DUP3 MSTORE PUSH1 0x20 DUP3 ADD SWAP1 POP SWAP3 SWAP2 POP POP JUMP JUMPDEST PUSH0 DUP2 SWAP1 POP PUSH1 0x20 DUP3 ADD SWAP1 POP SWAP2 SWAP1 POP JUMP JUMPDEST PUSH2 0x862 DUP2 PUSH2 0x7D2 JUMP JUMPDEST DUP3 MSTORE POP POP JUMP JUMPDEST PUSH0 DUP2 MLOAD SWAP1 POP SWAP2 SWAP1 POP JUMP JUMPDEST PUSH0 DUP3 DUP3 MSTORE PUSH1 0x20 DUP3 ADD SWAP1 POP SWAP3 SWAP2 POP POP JUMP JUMPDEST PUSH0 JUMPDEST DUP4 DUP2 LT ISZERO PUSH2 0x89F JUMPI DUP1 DUP3 ADD MLOAD DUP2 DUP5 ADD MSTORE PUSH1 0x20 DUP2 ADD SWAP1 POP PUSH2 0x884 JUMP JUMPDEST PUSH0 DUP5 DUP5 ADD MSTORE POP POP POP POP JUMP JUMPDEST PUSH0 PUSH1 0x1F NOT PUSH1 0x1F DUP4 ADD AND SWAP1 POP SWAP2 SWAP1 POP JUMP JUMPDEST PUSH0 PUSH2 0x8C4 DUP3 PUSH2 0x868 JUMP JUMPDEST PUSH2 0x8CE DUP2 DUP6 PUSH2 0x872 JUMP JUMPDEST SWAP4 POP PUSH2 0x8DE DUP2 DUP6 PUSH1 0x20 DUP7 ADD PUSH2 0x882 JUMP JUMPDEST PUSH2 0x8E7 DUP2 PUSH2 0x8AA JUMP JUMPDEST DUP5 ADD SWAP2 POP POP SWAP3 SWAP2 POP POP JUMP JUMPDEST PUSH0 PUSH1 0x60 DUP4 ADD PUSH0 DUP4 ADD MLOAD PUSH2 0x907 PUSH0 DUP7 ADD DUP3 PUSH2 0x859 JUMP JUMPDEST POP PUSH1 0x20 DUP4 ADD MLOAD DUP5 DUP3 SUB PUSH1 0x20 DUP7 ADD MSTORE PUSH2 0x91F DUP3 DUP3 PUSH2 0x8BA JUMP JUMPDEST SWAP2 POP POP PUSH1 0x40 DUP4 ADD MLOAD PUSH2 0x934 PUSH1 0x40 DUP7 ADD DUP3 PUSH2 0x859 JUMP JUMPDEST POP DUP1 SWAP2 POP POP SWAP3 SWAP2 POP POP JUMP JUMPDEST PUSH0 PUSH2 0x94A DUP4 DUP4 PUSH2 0x8F2 JUMP JUMPDEST SWAP1 POP SWAP3 SWAP2 POP POP JUMP JUMPDEST PUSH0 PUSH1 0x20 DUP3 ADD SWAP1 POP SWAP2 SWAP1 POP JUMP JUMPDEST PUSH0 PUSH2 0x968 DUP3 PUSH2 0x830 JUMP JUMPDEST PUSH2 0x972 DUP2 DUP6 PUSH2 0x83A JUMP JUMPDEST SWAP4 POP DUP4 PUSH1 0x20 DUP3 MUL DUP6 ADD PUSH2 0x984 DUP6 PUSH2 0x84A JUMP JUMPDEST DUP1 PUSH0 JUMPDEST DUP6 DUP2 LT ISZERO PUSH2 0x9BF JUMPI DUP5 DUP5 SUB DUP10 MSTORE DUP2 MLOAD PUSH2 0x9A0 DUP6 DUP3 PUSH2 0x93F JUMP JUMPDEST SWAP5 POP PUSH2 0x9AB DUP4 PUSH2 0x952 JUMP JUMPDEST SWAP3 POP PUSH1 0x20 DUP11 ADD SWAP10 POP POP PUSH1 0x1 DUP2 ADD SWAP1 POP PUSH2 0x987 JUMP JUMPDEST POP DUP3 SWAP8 POP DUP8 SWAP6 POP POP POP POP POP POP SWAP3 SWAP2 POP POP JUMP JUMPDEST PUSH0 PUSH1 0x20 DUP3 ADD SWAP1 POP DUP2 DUP2 SUB PUSH0 DUP4 ADD MSTORE PUSH2 0x9E9 DUP2 DUP5 PUSH2 0x95E JUMP JUMPDEST SWAP1 POP SWAP3 SWAP2 POP POP JUMP JUMPDEST PUSH0 DUP3 DUP3 MSTORE PUSH1 0x20 DUP3 ADD SWAP1 POP SWAP3 SWAP2 POP POP JUMP JUMPDEST PUSH0 PUSH2 0xA0B DUP3 PUSH2 0x868 JUMP JUMPDEST PUSH2 0xA15 DUP2 DUP6 PUSH2 0x9F1 JUMP JUMPDEST SWAP4 POP PUSH2 0xA25 DUP2 DUP6 PUSH1 0x20 DUP7 ADD PUSH2 0x882 JUMP JUMPDEST PUSH2 0xA2E DUP2 PUSH2 0x8AA JUMP JUMPDEST DUP5 ADD SWAP2 POP POP SWAP3 SWAP2 POP POP JUMP JUMPDEST PUSH0 PUSH1 0x20 DUP3 ADD SWAP1 POP DUP2 DUP2 SUB PUSH0 DUP4 ADD MSTORE PUSH2 0xA51 DUP2 DUP5 PUSH2 0xA01 JUMP JUMPDEST SWAP1 POP SWAP3 SWAP2 POP POP JUMP JUMPDEST PUSH2 0xA62 DUP2 PUSH2 0x7D2 JUMP JUMPDEST DUP3 MSTORE POP POP JUMP JUMPDEST PUSH0 PUSH1 0x20 DUP3 ADD SWAP1 POP PUSH2 0xA7B PUSH0 DUP4 ADD DUP5 PUSH2 0xA59 JUMP JUMPDEST SWAP3 SWAP2 POP POP JUMP JUMPDEST PUSH0 DUP1 REVERT JUMPDEST PUSH0 DUP1 REVERT JUMPDEST PUSH32 0x4E487B7100000000000000000000000000000000000000000000000000000000 PUSH0 MSTORE PUSH1 0x41 PUSH1 0x4 MSTORE PUSH1 0x24 PUSH0 REVERT JUMPDEST PUSH2 0xABF DUP3 PUSH2 0x8AA JUMP JUMPDEST DUP2 ADD DUP2 DUP2 LT PUSH8 0xFFFFFFFFFFFFFFFF DUP3 GT OR ISZERO PUSH2 0xADE JUMPI PUSH2 0xADD PUSH2 0xA89 JUMP JUMPDEST JUMPDEST DUP1 PUSH1 0x40 MSTORE POP POP POP JUMP JUMPDEST PUSH0 PUSH2 0xAF0 PUSH2 0x7C1 JUMP JUMPDEST SWAP1 POP PUSH2 0xAFC DUP3 DUP3 PUSH2 0xAB6 JUMP JUMPDEST SWAP2 SWAP1 POP JUMP JUMPDEST PUSH0 PUSH8 0xFFFFFFFFFFFFFFFF DUP3 GT ISZERO PUSH2 0xB1B JUMPI PUSH2 0xB1A PUSH2 0xA89 JUMP JUMPDEST JUMPDEST PUSH2 0xB24 DUP3 PUSH2 0x8AA JUMP JUMPDEST SWAP1 POP PUSH1 0x20 DUP2 ADD SWAP1 POP SWAP2 SWAP1 POP JUMP JUMPDEST DUP3 DUP2 DUP4 CALLDATACOPY PUSH0 DUP4 DUP4 ADD MSTORE POP POP POP JUMP JUMPDEST PUSH0 PUSH2 0xB51 PUSH2 0xB4C DUP5 PUSH2 0xB01 JUMP JUMPDEST PUSH2 0xAE7 JUMP JUMPDEST SWAP1 POP DUP3 DUP2 MSTORE PUSH1 0x20 DUP2 ADD DUP5 DUP5 DUP5 ADD GT ISZERO PUSH2 0xB6D JUMPI PUSH2 0xB6C PUSH2 0xA85 JUMP JUMPDEST JUMPDEST PUSH2 0xB78 DUP5 DUP3 DUP6 PUSH2 0xB31 JUMP JUMPDEST POP SWAP4 SWAP3 POP POP POP JUMP JUMPDEST PUSH0 DUP3 PUSH1 0x1F DUP4 ADD SLT PUSH2 0xB94 JUMPI PUSH2 0xB93 PUSH2 0xA81 JUMP JUMPDEST JUMPDEST DUP2 CALLDATALOAD PUSH2 0xBA4 DUP5 DUP3 PUSH1 0x20 DUP7 ADD PUSH2 0xB3F JUMP JUMPDEST SWAP2 POP POP SWAP3 SWAP2 POP POP JUMP JUMPDEST PUSH0 PUSH1 0x20 DUP3 DUP5 SUB SLT ISZERO PUSH2 0xBC2 JUMPI PUSH2 0xBC1 PUSH2 0x7CA JUMP JUMPDEST JUMPDEST PUSH0 DUP3 ADD CALLDATALOAD PUSH8 0xFFFFFFFFFFFFFFFF DUP2 GT ISZERO PUSH2 0xBDF JUMPI PUSH2 0xBDE PUSH2 0x7CE JUMP JUMPDEST JUMPDEST PUSH2 0xBEB DUP5 DUP3 DUP6 ADD PUSH2 0xB80 JUMP JUMPDEST SWAP2 POP POP SWAP3 SWAP2 POP POP JUMP JUMPDEST PUSH0 PUSH20 0xFFFFFFFFFFFFFFFFFFFFFFFFFFFFFFFFFFFFFFFF DUP3 AND SWAP1 POP SWAP2 SWAP1 POP JUMP JUMPDEST PUSH0 PUSH2 0xC1D DUP3 PUSH2 0xBF4 JUMP JUMPDEST SWAP1 POP SWAP2 SWAP1 POP JUMP JUMPDEST PUSH2 0xC2D DUP2 PUSH2 0xC13 JUMP JUMPDEST DUP2 EQ PUSH2 0xC37 JUMPI PUSH0 DUP1 REVERT JUMPDEST POP JUMP JUMPDEST PUSH0 DUP2 CALLDATALOAD SWAP1 POP PUSH2 0xC48 DUP2 PUSH2 0xC24 JUMP JUMPDEST SWAP3 SWAP2 POP POP JUMP JUMPDEST PUSH0 PUSH1 0x20 DUP3 DUP5 SUB SLT ISZERO PUSH2 0xC63 JUMPI PUSH2 0xC62 PUSH2 0x7CA JUMP JUMPDEST JUMPDEST PUSH0 PUSH2 0xC70 DUP5 DUP3 DUP6 ADD PUSH2 0xC3A JUMP JUMPDEST SWAP2 POP POP SWAP3 SWAP2 POP POP JUMP JUMPDEST PUSH0 DUP2 ISZERO ISZERO SWAP1 POP SWAP2 SWAP1 POP JUMP JUMPDEST PUSH2 0xC8D DUP2 PUSH2 0xC79 JUMP JUMPDEST DUP3 MSTORE POP POP JUMP JUMPDEST PUSH0 PUSH1 0x20 DUP3 ADD SWAP1 POP PUSH2 0xCA6 PUSH0 DUP4 ADD DUP5 PUSH2 0xC84 JUMP JUMPDEST SWAP3 SWAP2 POP POP JUMP JUMPDEST PUSH0 PUSH1 0x60 DUP4 ADD PUSH0 DUP4 ADD MLOAD PUSH2 0xCC1 PUSH0 DUP7 ADD DUP3 PUSH2 0x859 JUMP JUMPDEST POP PUSH1 0x20 DUP4 ADD MLOAD DUP5 DUP3 SUB PUSH1 0x20 DUP7 ADD MSTORE PUSH2 0xCD9 DUP3 DUP3 PUSH2 0x8BA JUMP JUMPDEST SWAP2 POP POP PUSH1 0x40 DUP4 ADD MLOAD PUSH2 0xCEE PUSH1 0x40 DUP7 ADD DUP3 PUSH2 0x859 JUMP JUMPDEST POP DUP1 SWAP2 POP POP SWAP3 SWAP2 POP POP JUMP JUMPDEST PUSH0 PUSH1 0x20 DUP3 ADD SWAP1 POP DUP2 DUP2 SUB PUSH0 DUP4 ADD MSTORE PUSH2 0xD11 DUP2 DUP5 PUSH2 0xCAC JUMP JUMPDEST SWAP1 POP SWAP3 SWAP2 POP POP JUMP JUMPDEST PUSH32 0x5468697320706572736F6E20616C726561647920766F74656400000000000000 PUSH0 DUP3 ADD MSTORE POP JUMP JUMPDEST PUSH0 PUSH2 0xD4D PUSH1 0x19 DUP4 PUSH2 0x9F1 JUMP JUMPDEST SWAP2 POP PUSH2 0xD58 DUP3 PUSH2 0xD19 JUMP JUMPDEST PUSH1 0x20 DUP3 ADD SWAP1 POP SWAP2 SWAP1 POP JUMP JUMPDEST PUSH0 PUSH1 0x20 DUP3 ADD SWAP1 POP DUP2 DUP2 SUB PUSH0 DUP4 ADD MSTORE PUSH2 0xD7A DUP2 PUSH2 0xD41 JUMP JUMPDEST SWAP1 POP SWAP2 SWAP1 POP JUMP JUMPDEST PUSH32 0x4E487B7100000000000000000000000000000000000000000000000000000000 PUSH0 MSTORE PUSH1 0x32 PUSH1 0x4 MSTORE PUSH1 0x24 PUSH0 REVERT JUMPDEST PUSH32 0x4E487B7100000000000000000000000000000000000000000000000000000000 PUSH0 MSTORE PUSH1 0x11 PUSH1 0x4 MSTORE PUSH1 0x24 PUSH0 REVERT JUMPDEST PUSH0 PUSH2 0xDE5 DUP3 PUSH2 0x7D2 JUMP JUMPDEST SWAP2 POP PUSH32 0xFFFFFFFFFFFFFFFFFFFFFFFFFFFFFFFFFFFFFFFFFFFFFFFFFFFFFFFFFFFFFFFF DUP3 SUB PUSH2 0xE17 JUMPI PUSH2 0xE16 PUSH2 0xDAE JUMP JUMPDEST JUMPDEST PUSH1 0x1 DUP3 ADD SWAP1 POP SWAP2 SWAP1 POP JUMP JUMPDEST PUSH32 0x4E487B7100000000000000000000000000000000000000000000000000000000 PUSH0 MSTORE PUSH1 0x22 PUSH1 0x4 MSTORE PUSH1 0x24 PUSH0 REVERT JUMPDEST PUSH0 PUSH1 0x2 DUP3 DIV SWAP1 POP PUSH1 0x1 DUP3 AND DUP1 PUSH2 0xE66 JUMPI PUSH1 0x7F DUP3 AND SWAP2 POP JUMPDEST PUSH1 0x20 DUP3 LT DUP2 SUB PUSH2 0xE79 JUMPI PUSH2 0xE78 PUSH2 0xE22 JUMP JUMPDEST JUMPDEST POP SWAP2 SWAP1 POP JUMP JUMPDEST PUSH0 DUP2 SWAP1 POP DUP2 PUSH0 MSTORE PUSH1 0x20 PUSH0 KECCAK256 SWAP1 POP SWAP2 SWAP1 POP JUMP JUMPDEST PUSH0 PUSH1 0x20 PUSH1 0x1F DUP4 ADD DIV SWAP1 POP SWAP2 SWAP1 POP JUMP JUMPDEST PUSH0 DUP3 DUP3 SHL SWAP1 POP SWAP3 SWAP2 POP POP JUMP JUMPDEST PUSH0 PUSH1 0x8 DUP4 MUL PUSH2 0xEDB PUSH32 0xFFFFFFFFFFFFFFFFFFFFFFFFFFFFFFFFFFFFFFFFFFFFFFFFFFFFFFFFFFFFFFFF DUP3 PUSH2 0xEA0 JUMP JUMPDEST PUSH2 0xEE5 DUP7 DUP4 PUSH2 0xEA0 JUMP JUMPDEST SWAP6 POP DUP1 NOT DUP5 AND SWAP4 POP DUP1 DUP7 AND DUP5 OR SWAP3 POP POP POP SWAP4 SWAP3 POP POP POP JUMP JUMPDEST PUSH0 DUP2 SWAP1 POP SWAP2 SWAP1 POP JUMP JUMPDEST PUSH0 PUSH2 0xF20 PUSH2 0xF1B PUSH2 0xF16 DUP5 PUSH2 0x7D2 JUMP JUMPDEST PUSH2 0xEFD JUMP JUMPDEST PUSH2 0x7D2 JUMP JUMPDEST SWAP1 POP SWAP2 SWAP1 POP JUMP JUMPDEST PUSH0 DUP2 SWAP1 POP SWAP2 SWAP1 POP JUMP JUMPDEST PUSH2 0xF39 DUP4 PUSH2 0xF06 JUMP JUMPDEST PUSH2 0xF4D PUSH2 0xF45 DUP3 PUSH2 0xF27 JUMP JUMPDEST DUP5 DUP5 SLOAD PUSH2 0xEAC JUMP JUMPDEST DUP3 SSTORE POP POP POP POP JUMP JUMPDEST PUSH0 SWAP1 JUMP JUMPDEST PUSH2 0xF61 PUSH2 0xF55 JUMP JUMPDEST PUSH2 0xF6C DUP2 DUP5 DUP5 PUSH2 0xF30 JUMP JUMPDEST POP POP POP JUMP JUMPDEST JUMPDEST DUP2 DUP2 LT ISZERO PUSH2 0xF8F JUMPI PUSH2 0xF84 PUSH0 DUP3 PUSH2 0xF59 JUMP JUMPDEST PUSH1 0x1 DUP2 ADD SWAP1 POP PUSH2 0xF72 JUMP JUMPDEST POP POP JUMP JUMPDEST PUSH1 0x1F DUP3 GT ISZERO PUSH2 0xFD4 JUMPI PUSH2 0xFA5 DUP2 PUSH2 0xE7F JUMP JUMPDEST PUSH2 0xFAE DUP5 PUSH2 0xE91 JUMP JUMPDEST DUP2 ADD PUSH1 0x20 DUP6 LT ISZERO PUSH2 0xFBD JUMPI DUP2 SWAP1 POP JUMPDEST PUSH2 0xFD1 PUSH2 0xFC9 DUP6 PUSH2 0xE91 JUMP JUMPDEST DUP4 ADD DUP3 PUSH2 0xF71 JUMP JUMPDEST POP POP JUMPDEST POP POP POP JUMP JUMPDEST PUSH0 DUP3 DUP3 SHR SWAP1 POP SWAP3 SWAP2 POP POP JUMP JUMPDEST PUSH0 PUSH2 0xFF4 PUSH0 NOT DUP5 PUSH1 0x8 MUL PUSH2 0xFD9 JUMP JUMPDEST NOT DUP1 DUP4 AND SWAP2 POP POP SWAP3 SWAP2 POP POP JUMP JUMPDEST PUSH0 PUSH2 0x100C DUP4 DUP4 PUSH2 0xFE5 JUMP JUMPDEST SWAP2 POP DUP3 PUSH1 0x2 MUL DUP3 OR SWAP1 POP SWAP3 SWAP2 POP POP JUMP JUMPDEST PUSH2 0x1025 DUP3 PUSH2 0x868 JUMP JUMPDEST PUSH8 0xFFFFFFFFFFFFFFFF DUP2 GT ISZERO PUSH2 0x103E JUMPI PUSH2 0x103D PUSH2 0xA89 JUMP JUMPDEST JUMPDEST PUSH2 0x1048 DUP3 SLOAD PUSH2 0xE4F JUMP JUMPDEST PUSH2 0x1053 DUP3 DUP3 DUP6 PUSH2 0xF93 JUMP JUMPDEST PUSH0 PUSH1 0x20 SWAP1 POP PUSH1 0x1F DUP4 GT PUSH1 0x1 DUP2 EQ PUSH2 0x1084 JUMPI PUSH0 DUP5 ISZERO PUSH2 0x1072 JUMPI DUP3 DUP8 ADD MLOAD SWAP1 POP JUMPDEST PUSH2 0x107C DUP6 DUP3 PUSH2 0x1001 JUMP JUMPDEST DUP7 SSTORE POP PUSH2 0x10E3 JUMP JUMPDEST PUSH1 0x1F NOT DUP5 AND PUSH2 0x1092 DUP7 PUSH2 0xE7F JUMP JUMPDEST PUSH0 JUMPDEST DUP3 DUP2 LT ISZERO PUSH2 0x10B9 JUMPI DUP5 DUP10 ADD MLOAD DUP3 SSTORE PUSH1 0x1 DUP3 ADD SWAP2 POP PUSH1 0x20 DUP6 ADD SWAP5 POP PUSH1 0x20 DUP2 ADD SWAP1 POP PUSH2 0x1094 JUMP JUMPDEST DUP7 DUP4 LT ISZERO PUSH2 0x10D6 JUMPI DUP5 DUP10 ADD MLOAD PUSH2 0x10D2 PUSH1 0x1F DUP10 AND DUP3 PUSH2 0xFE5 JUMP JUMPDEST DUP4 SSTORE POP JUMPDEST PUSH1 0x1 PUSH1 0x2 DUP9 MUL ADD DUP9 SSTORE POP POP POP JUMPDEST POP POP POP POP POP POP JUMP JUMPDEST PUSH32 0x4E6F74206F776E65720000000000000000000000000000000000000000000000 PUSH0 DUP3 ADD MSTORE POP JUMP JUMPDEST PUSH0 PUSH2 0x111F PUSH1 0x9 DUP4 PUSH2 0x9F1 JUMP JUMPDEST SWAP2 POP PUSH2 0x112A DUP3 PUSH2 0x10EB JUMP JUMPDEST PUSH1 0x20 DUP3 ADD SWAP1 POP SWAP2 SWAP1 POP JUMP JUMPDEST PUSH0 PUSH1 0x20 DUP3 ADD SWAP1 POP DUP2 DUP2 SUB PUSH0 DUP4 ADD MSTORE PUSH2 0x114C DUP2 PUSH2 0x1113 JUMP JUMPDEST SWAP1 POP SWAP2 SWAP1 POP JUMP INVALID LOG2 PUSH5 0x6970667358 0x22 SLT KECCAK256 SWAP4 BYTE PUSH30 0x756F7B1FB9AA093C856C72351761A02B9DBA0B126B34F65EEFC97F990E64 PUSH20 0x6F6C634300081400330000000000000000000000 "},"gasEstimates":{"creation":{"codeDepositCost":"897800","executionCost":"infinite","totalCost":"infinite"},"external":{"addCandidate(string)":"infinite","candidatesCounter()":"2425","getCandidates()":"infinite","name()":"infinite","vote(uint256)":"infinite","voters(address)":"2900","winner()":"infinite"}},"methodIdentifiers":{"addCandidate(string)":"462e91ec","candidatesCounter()":"33ec9316","getCandidates()":"06a49fce","name()":"06fdde03","vote(uint256)":"0121b93f","voters(address)":"a3ec138d","winner()":"dfbf53ae"}},"storageLayout":{"storage":[{"astId":13,"contract":"Voting.sol:Voting","label":"owner","offset":0,"slot":"0","type":"t_address"},{"astId":15,"contract":"Voting.sol:Voting","label":"candidatesCounter","offset":0,"slot":"1","type":"t_uint256"},{"astId":17,"contract":"Voting.sol:Voting","label":"name","offset":0,"slot":"2","type":"t_string_storage"},{"astId":21,"contract":"Voting.sol:Voting","label":"candidates","offset":0,"slot":"3","type":"t_array(t_struct(Candidate)8_storage)dyn_storage"},{"astId":26,"contract":"Voting.sol:Voting","label":"voters","offset":0,"slot":"4","type":"t_mapping(t_address,t_struct(Voter)11_storage)"}],"types":{"t_address":{"encoding":"inplace","label":"address","numberOfBytes":"20"},"t_array(t_struct(Candidate)8_storage)dyn_storage":{"base":"t_struct(Candidate)8_storage","encoding":"dynamic_array","label":"struct Voting.Candidate[]","numberOfBytes":"32"},"t_bool":{"encoding":"inplace","label":"bool","numberOfBytes":"1"},"t_mapping(t_address,t_struct(Voter)11_storage)":{"encoding":"mapping","key":"t_address","label":"mapping(address => struct Voting.Voter)","numberOfBytes":"32","value":"t_struct(Voter)11_storage"},"t_string_storage":{"encoding":"bytes","label":"string","numberOfBytes":"32"},"t_struct(Candidate)8_storage":{"encoding":"inplace","label":"struct Voting.Candidate","members":[{"astId":3,"contract":"Voting.sol:Voting","label":"id","offset":0,"slot":"0","type":"t_uint256"},{"astId":5,"contract":"Voting.sol:Voting","label":"name","offset":0,"slot":"1","type":"t_string_storage"},{"astId":7,"contract":"Voting.sol:Voting","label":"votes","offset":0,"slot":"2","type":"t_uint256"}],"numberOfBytes":"96"},"t_struct(Voter)11_storage":{"encoding":"inplace","label":"struct Voting.Voter","members":[{"astId":10,"contract":"Voting.sol:Voting","label":"voted","offset":0,"slot":"0","type":"t_bool"}],"numberOfBytes":"32"},"t_uint256":{"encoding":"inplace","label":"uint256","numberOfBytes":"32"}}},"userdoc":{"kind":"user","methods":{},"version":1}}